:020000040800F2
:10000000000002202D400008393300083F3300086B
:10001000453300084B33000851330008000000004E
:10002000000000000000000000000000573300083E
:1000300065330008000000007333000881330008B6
:100040007D4000087D4000087D4000087D4000089C
:100050007D4000087D4000087D4000087D4000088C
:100060007D4000087D4000087D4000087D4000087C
:100070007D4000087D4000087D4000087D4000086C
:100080007D4000087D4000087D4000087D4000085C
:100090007D4000087D4000087D4000087D4000084C
:1000A0007D4000087D4000087D4000087D4000083C
:1000B0007D4000087D4000088D3300087D40000829
:1000C0007D4000087D4000087D4000087D4000081C
:1000D0007D400008A1330008B53300087D400008CA
:1000E0007D4000087D4000087D4000087D400008FC
:1000F0007D4000087D4000087D4000087D400008EC
:100100007D4000087D400008C93300087D4000089C
:100110007D4000087D4000087D4000087D400008CB
:100120007D4000087D4000087D4000087D400008BB
:100130007D4000087D4000087D4000087D400008AB
:100140007D4000087D4000087D4000087D4000089B
:100150007D4000087D4000087D4000087D4000088B
:100160007D4000087D4000087D4000087D4000087B
:100170007D4000087D4000087D4000080000000030
:080180007D4000087D400008ED
:1001900010B5054C237833B9044B13B10448AFF3C1
:1001A00000800123237010BDEC020020000000003D
:1001B0008CE6000808B5034B1BB103490348AFF3B5
:1001C000008008BD00000000F00200208CE600085E
:1001D000034613F8012B002AFBD1181A0138704787
:1001E00001F0FF01102A2BDB10F0070F08D010F8E8
:1001F000013B013A8B422DD010F0070F42B3F6D1EC
:10020000F0B441EA012141EA014122F007047FF004
:1002100000070023F0E80256083C85EA010586EA5B
:10022000010685FA47F5A3FA87F586FA47F6A5FA97
:1002300087F68EB9EED1F0BC01F0FF0102F00702A3
:1002400032B110F8013B013A83EA010313B1F8D14E
:100250000020704701387047002D06BF354603382F
:10026000073815F0010F07D1013015F4807F02BF68
:10027000013015F4C03F0130F0BC0138704700BFB9
:1002800081F0004102E000BF83F0004330B54FEA47
:1002900041044FEA430594EA050F08BF90EA020FB4
:1002A0001FBF54EA000C55EA020C7FEA645C7FEA47
:1002B000655C00F0E2804FEA5454D4EB5555B8BF6A
:1002C0006D420CDD2C4480EA020281EA030382EADB
:1002D000000083EA010180EA020281EA0303362D6D
:1002E00088BF30BD11F0004F4FEA01314FF4801C40
:1002F0004CEA113102D0404261EB410113F0004F52
:100300004FEA03334CEA133302D0524263EB430308
:1003100094EA050F00F0A780A4F10104D5F1200EA6
:100320000DDB02FA0EFC22FA05F2801841F1000101
:1003300003FA0EF2801843FA05F359410EE0A5F1D5
:1003400020050EF1200E012A03FA0EFC28BF4CF006
:10035000020C43FA05F3C01851EBE37101F00045BC
:1003600007D54FF0000EDCF1000C7EEB00006EEBC9
:100370000101B1F5801F1BD3B1F5001F0CD3490853
:100380005FEA30004FEA3C0C04F101044FEA4452AA
:1003900012F5800F80F09A80BCF1004F08BF5FEA31
:1003A000500C50F1000041EB045141EA050130BD11
:1003B0005FEA4C0C404141EB0101013C28BFB1F523
:1003C000801FE9D291F0000F04BF01460020B1FA6E
:1003D00081F308BF2033A3F10B03B3F120020CDA41
:1003E0000C3208DD02F1140CC2F10C0201FA0CF01F
:1003F00021FA02F10CE002F11402D8BFC2F1200C84
:1004000001FA02F120FA0CFCDCBF41EA0C01904039
:10041000E41AA2BF01EB0451294330BD6FEA040482
:100420001F3C1CDA0C340EDC04F11404C4F120026D
:1004300020FA04F001FA02F340EA030021FA04F37F
:1004400045EA030130BDC4F10C04C4F1200220FAD6
:1004500002F001FA04F340EA0300294630BD21FA14
:1004600004F0294630BD94F0000F83F4801306BFDA
:1004700081F480110134013D4EE77FEA645C18BFCE
:100480007FEA655C29D094EA050F08BF90EA020F65
:1004900005D054EA000C04BF1946104630BD91EA5D
:1004A000030F1EBF0021002030BD5FEA545C05D160
:1004B0004000494128BF41F0004130BD14F580049F
:1004C0003CBF01F5801130BD01F0004545F0FE4113
:1004D00041F470014FF0000030BD7FEA645C1ABF48
:1004E000194610467FEA655C1CBF0B46024650EA7F
:1004F000013406BF52EA033591EA030F41F40021AB
:1005000030BD00BF90F0000F04BF0021704730B530
:100510004FF4806404F132044FF000054FF0000105
:1005200050E700BF90F0000F04BF0021704730B5C6
:100530004FF4806404F1320410F0004548BF40429B
:100540004FF000013EE700BF42004FEAE2014FEAF0
:1005500031014FEA02701FBF12F07F4393F07F4FCB
:1005600081F06051704732F07F4208BF704793F0CE
:100570007F4F04BF41F40021704730B54FF46074E1
:1005800001F0004521F000411CE700BF50EA0102E4
:1005900008BF704730B54FF000050AE050EA01028D
:1005A00008BF704730B511F0004502D5404261EBFD
:1005B00041014FF4806404F132045FEA915C3FF43E
:1005C000D8AE4FF003025FEADC0C18BF03325FEADB
:1005D000DC0C18BF033202EBDC02C2F1200300FA8C
:1005E00003FC20FA02F001FA03FE40EA0E0021FAB1
:1005F00002F11444BDE600BF70B54FF0FF0C4CF49F
:10060000E06C1CEA11541DBF1CEA135594EA0C0F50
:1006100095EA0C0F00F0DEF82C4481EA030621EA8B
:100620004C5123EA4C5350EA013518BF52EA0335C6
:1006300041F4801143F4801338D0A0FB02CE4FF078
:100640000005E1FB02E506F00042E0FB03E54FF0A8
:100650000006E1FB03569CF0000F18BF4EF0010EA0
:10066000A4F1FF04B6F5007F64F5407404D25FEA9C
:100670004E0E6D4146EB060642EAC62141EA55514F
:100680004FEAC52040EA5E504FEACE2EB4F1FD0C91
:1006900088BFBCF5E06F1ED8BEF1004F08BF5FEA0F
:1006A000500E50F1000041EB045170BD06F00046C1
:1006B00046EA010140EA020081EA0301B4EB5C046E
:1006C000C2BFD4EB0C0541EA045170BD41F4801166
:1006D0004FF0000E013C00F3AB8014F1360FDEBF8B
:1006E000002001F0004170BDC4F10004203C35DA67
:1006F0000C341BDC04F11404C4F1200500FA05F3EA
:1007000020FA04F001FA05F240EA020001F000428A
:1007100021F0004110EBD37021FA04F642EB060100
:100720005EEA430E08BF20EAD37070BDC4F10C042A
:10073000C4F1200500FA04F320FA05F001FA04F2EE
:1007400040EA020001F0004110EBD37041F10001DA
:100750005EEA430E08BF20EAD37070BDC4F12005E5
:1007600000FA05F24EEA020E20FA04F301FA05F24D
:1007700043EA020321FA04F001F0004121FA04F2F5
:1007800020EA020000EBD3705EEA430E08BF20EAC5
:10079000D37070BD94F0000F0FD101F000464000FF
:1007A00041EB010111F4801F08BF013CF7D041EA81
:1007B000060195F0000F18BF704703F00046520085
:1007C00043EB030313F4801F08BF013DF7D043EA56
:1007D0000603704794EA0C0F0CEA135518BF95EA0C
:1007E0000C0F0CD050EA410618BF52EA4306D1D193
:1007F00081EA030101F000414FF0000070BD50EAB2
:10080000410606BF1046194652EA430619D094EA3B
:100810000C0F02D150EA013613D195EA0C0F05D125
:1008200052EA03361CBF104619460AD181EA030179
:1008300001F0004141F0FE4141F470014FF0000031
:1008400070BD41F0FE4141F4780170BD70B54FF0CC
:10085000FF0C4CF4E06C1CEA11541DBF1CEA13554C
:1008600094EA0C0F95EA0C0F00F0A7F8A4EB05042E
:1008700081EA030E52EA03354FEA013100F0888025
:100880004FEA03334FF0805545EA131343EA1263EE
:100890004FEA022245EA111545EA10654FEA0026A3
:1008A0000EF000419D4208BF964244F1FD0404F55C
:1008B000407402D25B084FEA3202B61A65EB0305B8
:1008C0005B084FEA32024FF480104FF4002CB6EB75
:1008D000020E75EB030E22BFB61A754640EA0C00F5
:1008E0005B084FEA3202B6EB020E75EB030E22BF35
:1008F000B61A754640EA5C005B084FEA3202B6EB76
:10090000020E75EB030E22BFB61A754640EA9C0034
:100910005B084FEA3202B6EB020E75EB030E22BF04
:10092000B61A754640EADC0055EA060E18D04FEAC2
:10093000051545EA16754FEA06164FEAC30343EA62
:1009400052734FEAC2025FEA1C1CC0D111F4801F2F
:100950000BD141EA00014FF000004FF0004CB6E728
:1009600011F4801F04BF01430020B4F1FD0C88BFC7
:10097000BCF5E06F3FF6AFAEB5EB030C04BFB6EBD2
:10098000020C5FEA500C50F1000041EB045170BDC5
:100990000EF0004E4EEA113114EB5C04C2BFD4EBF2
:1009A0000C0541EA045170BD41F480114FF0000E76
:1009B000013C90E645EA060E8DE60CEA135594EAF2
:1009C0000C0F08BF95EA0C0F3FF43BAF94EA0C0FF5
:1009D0000AD150EA01347FF434AF95EA0C0F7FF46A
:1009E00025AF104619462CE795EA0C0F06D152EABE
:1009F00003353FF4FDAE1046194622E750EA4106A2
:100A000018BF52EA43067FF4C5AE50EA41047FF4B2
:100A10000DAF52EA43057FF4EBAE12E74FF0FF3C17
:100A200006E000BF4FF0010C02E000BF4FF0010CE8
:100A30004DF804CD4FEA410C7FEA6C5C4FEA430C61
:100A400018BF7FEA6C5C1BD001B050EA410C0CBFB0
:100A500052EA430C91EA030F02BF90EA020F002012
:100A6000704710F1000F91EA030F58BF994208BF79
:100A700090422CBFD8176FEAE37040F00100704736
:100A80004FEA410C7FEA6C5C02D150EA013C07D18D
:100A90004FEA430C7FEA6C5CD6D152EA033CD3D0D8
:100AA0005DF8040B704700BF8446104662468C46D2
:100AB0001946634600E000BF01B5FFF7B7FF002805
:100AC00048BF10F1000F01BD4DF808EDFFF7F4FF2E
:100AD0000CBF012000205DF808FB00BF4DF808EDB9
:100AE000FFF7EAFF34BF012000205DF808FB00BFDC
:100AF0004DF808EDFFF7E0FF94BF012000205DF8FE
:100B000008FB00BF4DF808EDFFF7CEFF94BF0120B2
:100B100000205DF808FB00BF4DF808EDFFF7C4FFAB
:100B200034BF012000205DF808FB00BF4FEA410CF4
:100B30007FEA6C5C02D150EA013C0AD14FEA430CD7
:100B40007FEA6C5C02D152EA033C02D14FF0000014
:100B500070474FF0010070474FEA410212F5001252
:100B600015D211D56FF47873B3EB625212D94FEAF4
:100B7000C12343F0004343EA505311F0004F23FADE
:100B800002F018BF404270474FF00000704750EA33
:100B9000013005D111F0004008BF6FF000407047F0
:100BA0004FF00000704700BF4A0011D212F500124A
:100BB00011D20DD56FF47873B3EB62520ED44FEAB5
:100BC000C12343F0004343EA505323FA02F0704735
:100BD0004FF00000704750EA013002D14FF0FF3073
:100BE00070474FF0000070474FEA4102B2F1E04316
:100BF00024BFB3F5001CDCF1FE5C0DD901F0004C04
:100C00004FEAC0024CEA5070B2F1004F40EB830053
:100C100008BF20F00100704711F0804F21D113F17F
:100C20003872BCBF01F00040704741F480114FEAB8
:100C30005252C2F11802C2F1200C10FA0CF320FA41
:100C400002F018BF40F001004FEAC1234FEAD3235E
:100C500003FA0CFC40EA0C0023FA02F34FEA4303C8
:100C6000CCE77FEA625307D150EA01331EBF4FF051
:100C7000FE4040F44000704701F0004040F0FE406C
:100C800040F40000704700BF53B94AB9002908BFBB
:100C900000281CBF4FF0FF314FF0FF3000F0AAB921
:100CA000ADF1080C6DE904CE00F03CF8DDF804E08D
:100CB000DDE9022304B0704738B500220023044662
:100CC0000D46FFF70BFF28B920462946BDE83840FE
:100CD00000F00AB8204605F1004100F005F8404256
:100CE00061EB410138BD00BFD0B50C4B0022064678
:100CF0000F46FFF781FCFFF757FF0446FFF702FCA2
:100D0000074B0022FFF778FC02460B463046394677
:100D1000FFF7BAFAFFF748FF2146D0BD0000F03DCB
:100D20000000F0412DE9F047089D04468E46002B57
:100D30004DD18A42944669D9B2FA82F252B101FA8F
:100D400002F3C2F1200120FA01F10CFA02FC41EA9F
:100D5000030E94404FEA1C48210CBEFBF8F61FFA24
:100D60008CF708FB16E341EA034306FB07F19942BF
:100D70000AD91CEB030306F1FF3080F01F81994272
:100D800040F21C81023E63445B1AA4B2B3FBF8F04C
:100D900008FB103344EA034400FB07F7A7420AD9D3
:100DA0001CEB040400F1FF3380F00A81A74240F2FB
:100DB00007816444023840EA0640E41B00261DB166
:100DC000D4400023C5E900433146BDE8F0878B429B
:100DD00009D9002D00F0EF800026C5E9000130465A
:100DE0003146BDE8F087B3FA83F6002E4AD18B4234
:100DF00002D3824200F2F980841A61EB03030120DE
:100E00009E46002DE0D0C5E9004EDDE702B9FFDEC9
:100E1000B2FA82F2002A40F09280A1EB0C014FEA74
:100E20001C471FFA8CFE0126200CB1FBF7F307FBD1
:100E3000131140EA01410EFB03F0884208D91CEB74
:100E4000010103F1FF3802D2884200F2CB80434611
:100E5000091AA4B2B1FBF7F007FB101144EA0144F0
:100E60000EFB00FEA64508D91CEB040400F1FF317F
:100E700002D2A64500F2BB800846A4EB0E0440EA6D
:100E800003409CE7C6F12007B34022FA07FC4CEA76
:100E9000030C20FA07F401FA06F31C43F9404FEA69
:100EA0001C4900FA06F3B1FBF9F8200C1FFA8CFE7E
:100EB00009FB181140EA014108FB0EF0884202FAD2
:100EC00006F20BD91CEB010108F1FF3A80F0888093
:100ED000884240F28580A8F102086144091AA4B250
:100EE000B1FBF9F009FB101144EA014100FB0EFED1
:100EF0008E4508D91CEB010100F1FF346CD28E4500
:100F00006AD90238614440EA0840A0FB0294A1EB90
:100F10000E01A142C846A64656D353D05DB1B3EBED
:100F2000080261EB0E0101FA07F722FA06F3F1401D
:100F30001F43C5E9007100263146BDE8F087C2F1C4
:100F40002003D8400CFA02FC21FA03F3914001433C
:100F50004FEA1C471FFA8CFEB3FBF7F007FB103675
:100F60000B0C43EA064300FB0EF69E4204FA02F421
:100F700008D91CEB030300F1FF382FD29E422DD974
:100F8000023863449B1B89B2B3FBF7F607FB1633A9
:100F900041EA034106FB0EF38B4208D91CEB010129
:100FA00006F1FF3816D28B4214D9023E6144C91AA9
:100FB00046EA004638E72E46284605E70646E3E6B9
:100FC0001846F8E64B45A9D2B9EB020864EB0C0EC3
:100FD0000138A3E74646EAE7204694E74046D1E7D2
:100FE000D0467BE7023B614432E7304609E7644480
:100FF000023842E7704700BF80B584B000AF3B467F
:1010000000221A605A609A60DA60214B214A1A6005
:101010001F4B4FF480325A601D4B00229A601C4BCC
:1010200000221A611A4B00221A76194B002283F80B
:101030002020174B0022DA62154B174A9A62144B94
:101040000022DA60124B0122DA61114B002283F890
:1010500030200F4B01225A610D4803F0A7F80346D8
:10106000002B01D000F000FF05233B6001237B60D3
:101070000023BB603B461946054803F0DBF80346F6
:10108000002B01D000F0F0FE00BF1037BD4680BD40
:1010900008030020002001400100000F80B58AB045
:1010A00000AF786007F1140300221A605A609A605A
:1010B000DA601A617B681B68174A934227D10023C4
:1010C0003B61164B5B6C154A43F480735364134BBE
:1010D0005B6C03F480733B613B690023FB600F4B47
:1010E0001B6B0E4A43F0010313630C4B1B6B03F0A5
:1010F0000103FB60FB6820237B610323BB610023AA
:10110000FB6107F114031946054803F07DFF00BF9A
:101110002837BD4680BD00BF002001400038024096
:101120000000024080B500AF1F4B204A1A60204BE0
:1011300000221A701E4B80225A701D4BE1229A70B9
:101140001B4B0022DA701A4B00221A71184B002236
:101150005A71154B164A5A60134B4FF400029A60AD
:10116000114B144ADA60104B134A1A610E4B40F2CD
:10117000F4525A610C4803F01FFC0346002B01D0C7
:1011800000F072FE382200210C4808F09BFB0B4B4C
:1011900021221A60094B4FF440025A61074B00228A
:1011A0001A6100BF80BD00BFC8040020008002405B
:1011B00078050020F0030020500300209004002058
:1011C00080B58EB000AF786007F1240300221A606A
:1011D0005A609A60DA601A617B681B68464A9342DB
:1011E00040F0858000233B62444B1B6B434A43F035
:1011F00000731363414B1B6B03F000733B623B6A4C
:101200000023FB613D4B1B6B3C4A43F0806313633F
:101210003A4B1B6B03F08063FB61FB690023BB61EE
:10122000364B1B6B354A43F000631363334B1B6B28
:1012300003F00063BB61BB6900237B612F4B1B6B19
:101240002E4A43F0040313632C4B1B6B03F004037F
:101250007B617B6900233B61284B1B6B274A43F072
:1012600001031363254B1B6B03F001033B613B69D7
:101270000023FB60214B1B6B204A43F002031363E6
:101280001E4B1B6B03F00203FB60FB6832237B6287
:101290000223BB620023FB6203233B630B237B63BC
:1012A00007F124031946164803F0AEFE86237B623D
:1012B0000223BB620023FB6203233B630B237B639C
:1012C00007F1240319460F4803F09EFE4FF46053C4
:1012D0007B620223BB620023FB6203233B630B237D
:1012E0007B6307F124031946074803F08DFE00BF16
:1012F0003837BD4680BD00BF008002400038024044
:1013000000080240000002400004024080B58CB09A
:1013100000AF07F11C0300221A605A609A60DA607D
:101320001A610023BB61634B1B6B624A43F01003DD
:101330001363604B1B6B03F01003BB61BB6900239D
:101340007B615C4B1B6B5B4A43F080031363594B1F
:101350001B6B03F080037B617B6900233B61554B72
:101360001B6B544A43F004031363524B1B6B03F093
:1013700004033B613B690023FB604E4B1B6B4D4AF2
:1013800043F0010313634B4B1B6B03F00103FB6042
:10139000FB680023BB60474B1B6B464A43F00203CC
:1013A0001363444B1B6B03F00203BB60BB68002359
:1013B0007B60404B1B6B3F4A43F0080313633D4B7C
:1013C0001B6B03F008037B607B6800224FF69B7168
:1013D000394803F0B5FF00224FF40161374803F0AC
:1013E000AFFF00224CF20301354803F0A9FF0022B1
:1013F00043F61B71334803F0A3FF4FF69B73FB6169
:1014000001233B6200237B620023BB6207F11C03C4
:101410001946294803F0F8FD1023FB6101233B62C4
:1014200002237B620023BB6207F11C031946234899
:1014300003F0EAFD4CF20303FB6101233B6200234E
:101440007B620023BB6207F11C0319461C4803F0B2
:10145000DBFD43F61B73FB6101233B6200237B62D0
:101460000023BB6207F11C031946164803F0CCFDAC
:101470004FF44043FB614FF488133B6200237B62CF
:1014800007F11C0319460F4803F0BEFD4FF400633B
:10149000FB6101233B6200237B620023BB6207F1F7
:1014A0001C031946054803F0AFFD00BF3037BD46A9
:1014B00080BD00BF00380240001002400000024022
:1014C00000040240000C024080B500AF124B134AEA
:1014D0001A60114B124A5A600F4B00229A600E4B51
:1014E0000022DA600C4B4FF480421A610A4B002252
:1014F0005A61094B00229A61074B0022DA61064BC0
:1015000000221A62044803F035FF0346002B01D085
:1015100000F0AAFC00BF80BD800500200054004000
:10152000A086010080B500AF124B134A1A60114B20
:10153000124A5A600F4B00229A600E4B0022DA606A
:101540000C4B4FF480421A610A4B00225A61094B3E
:1015500000229A61074B0022DA61064B00221A62D0
:10156000044803F007FF0346002B01D000F07CFC89
:1015700000BF80BDD4050020005C0040A0860100B3
:1015800080B58CB000AF786007F11C0300221A60B0
:101590005A609A60DA601A617B681B68424A93421B
:1015A0002CD10023BB61414B1B6B404A43F002032B
:1015B00013633E4B1B6B03F00203BB61BB69C0238B
:1015C000FB6112233B6200237B620323BB62042383
:1015D000FB6207F11C031946354803F015FD002393
:1015E0007B61324B1B6C314A43F4001313642F4B65
:1015F0001B6C03F400137B617B6950E07B681B6804
:101600002C4A93424BD100233B61284B1B6B274A4A
:1016100043F004031363254B1B6B03F004033B618E
:101620003B690023FB60214B1B6B204A43F0010305
:1016300013631E4B1B6B03F00103FB60FB684FF44D
:101640000073FB6112233B6200237B620323BB62B6
:101650000423FB6207F11C031946174803F0D4FC6E
:101660004FF48073FB6112233B6200237B620323F0
:10167000BB620423FB6207F11C0319460F4803F009
:10168000C3FC0023BB60094B1B6C084A43F40003F6
:101690001364064B1B6C03F40003BB60BB6800BF04
:1016A0003037BD4680BD00BF0054004000380240C6
:1016B00000040240005C00400008024000000240BC
:1016C000B0B58AB004AF78600121786800F024FAE0
:1016D0007B6818680A23009301233D223C2103F014
:1016E0008DFF7B6818680A2302930623019307F194
:1016F0000C030093012303223C2104F077F93B7B88
:101700001B021AB27B7B1BB213431BB207EE903A4B
:10171000F8EEE77A7B68C3ED257A3B7C1B021AB2B0
:101720007B7C1BB213431BB207EE903AF8EEE77ACC
:101730007B68C3ED267ABB7B1B021AB2FB7B1BB214
:1017400013431BB207EE903AF8EEE77A7B68C3EDDD
:10175000277A7B68D3F894301846FEF7F5FE0446E6
:101760000D467B68D3F898301846FEF7EDFE02462A
:101770000B4643EC112B45EC104B0CF00DFD51ECDE
:10178000100B38A3D3E90023FEF780FD02460B4679
:1017900010461946FFF728FA03467B61D7ED057A14
:1017A0009FED2F7A67EE877A17EE900AFEF7CCFE50
:1017B00029A3D3E90023FFF749F802460B46104658
:1017C0001946FFF7C9F903461AB27B68A3F8A020AF
:1017D0007B68B3F9A030002B0ADA7B68B3F9A0303C
:1017E0009BB203F5B4739BB21AB27B68A3F8A02036
:1017F0007B68B3F9A030B3F5B47F0ADD7B68B3F939
:10180000A0309BB2A3F5B4739BB21AB27B68A3F865
:10181000A0207B68B3F9A0309AB27B68B3F9A230FC
:101820009BB2D31A9BB21AB27B68A3F8A0207B6844
:10183000B3F9A030002B0ADA7B68B3F9A0309BB271
:1018400003F5B4739BB21AB27B68A3F8A02000BF63
:101850001837BD46B0BD00BF182D4454FB210940C8
:1018600000003443CB10C7BAB88DB63F80B586B000
:1018700004AF78600021786800F04EF97B68186842
:101880000A230293062301933E4B009301233B223C
:10189000D02104F0ABF83B4B1B781B021AB2394B3A
:1018A0005B781BB213431AB27B68A3F87A20354BDE
:1018B0009B781B021AB2334BDB781BB213431AB26C
:1018C0007B68A3F87C202F4B1B791B021AB22D4B8F
:1018D0005B791BB213431AB27B68A3F87E207B6846
:1018E000B3F97A30002B00DA0F331B111AB27B6880
:1018F000A3F87A207B68B3F97C30002B00DA0F3331
:101900001B111AB27B68A3F87C207B68B3F97E3088
:101910001D4A82FB03121A44D210DB17D31A1AB2E3
:101920007B68A3F87E207B68B3F97A309AB27B6833
:10193000B3F90A309BB2D31A9BB21AB27B68A3F8F0
:1019400080207B68B3F97C309AB27B68B3F90C30A5
:101950009BB2D31A9BB21AB27B68A3F882207B6831
:10196000B3F97E309AB27B68B3F90E309BB2D31ACA
:101970009BB21AB27B68A3F8842000BF0837BD462B
:1019800080BD00BF2C060020932449920000000077
:1019900080B586B004AF78600021786800F0BCF8AC
:1019A0007B6818680A23029306230193504B009327
:1019B00001234322D02104F019F84D4B1B781B0260
:1019C0001AB24B4B5B781BB213431AB27B68A3F875
:1019D0008620474B9B781B021AB2454BDB781BB223
:1019E00013431AB27B68A3F88820414B1B791B0272
:1019F0001AB23F4B5B791BB213431AB27B68A3F850
:101A00008A207B68B3F986301846FEF78BFD36A333
:101A1000D3E90023FEF71AFF02460B46104619468B
:101A2000FFF79AF803461AB27B68A3F886207B6812
:101A3000B3F988301846FEF775FD2BA3D3E90023D0
:101A4000FEF704FF02460B4610461946FFF784F8DE
:101A500003461AB27B68A3F888207B68B3F98A3002
:101A60001846FEF75FFD20A3D3E90023FEF7EEFE44
:101A700002460B4610461946FFF76EF803461AB2A7
:101A80007B68A3F88A207B68B3F986309AB27B68BA
:101A9000B3F904309BB2D31A9BB21AB27B68A3F895
:101AA0008C207B68B3F988309AB27B68B3F9063032
:101AB0009BB2D31A9BB21AB27B68A3F88E207B68C4
:101AC000B3F98A309AB27B68B3F908309BB2D31A63
:101AD0009BB21AB27B68A3F8902000BF0837BD46BE
:101AE00080BD00BFAFF30080F853E3A59BC4C03FA7
:101AF0002C06002080B582B000AF786000217868A5
:101B000000F00AF87868FFF7B1FE7868FFF740FF49
:101B100000BF0837BD4680BD80B586B004AF786091
:101B20000B46FB701A4B00221A707B6818680A2358
:101B3000029301230193164B009301236A22D021C3
:101B400003F05AFEFB785B00DAB2114B1A707B6827
:101B500018680A230293012301930D4B009301237C
:101B60003722D02103F048FE094B00221A707B680F
:101B700018680A23029301230193054B0093012364
:101B80006B22D02103F038FE00BF0837BD4680BD70
:101B90002806002080B582B000AF7860391D4FF66E
:101BA000FF730122034806F02AFE7B6818460837B7
:101BB000BD4680BD500F0020F0B58FB00EAF02F0D3
:101BC0005FFA00F0B5F8FFF7A1FBFFF715FAFFF792
:101BD000A9FAFFF779FCFFF7A5FC01F07BFA01F009
:101BE000AFFA01F023FD01F075FD01F0C7FD01F032
:101BF0008FFE01F039FF02F037F902F05FF901F0D2
:101C0000C5FC01F037FE00213A4805F0EDFA042149
:101C1000384805F0E9FA3C21374805F0A2FC3C21A0
:101C2000364805F09EFC364805F0C5F9344805F005
:101C300011FA344803F09EFB01224FF480613248D0
:101C400003F07EFB0121314800F06AFB304800F0D0
:101C500098F93049304800F063FD3049304800F0D1
:101C60005FFD00224FF48061274803F069FB284B99
:101C70000022A3F86420264B0022A3F86620294BFB
:101C80001B78012BFBD1214B214A2749244800F026
:101C9000D1FD1E4B1E4A24491F4800F0CBFD1B4BB3
:101CA0006422A3F85420194B6422A3F852209623EF
:101CB00096221749154800F0A9FB144B93F93D30C3
:101CC000124A92F93C20194E0D920C936D4606F182
:101CD00010040FCC0FC50FCC0FC594E80F0085E89A
:101CE0000F0096E80F0000F01FF90E4B00221A704B
:101CF000C5E700BFC00E0020E80D0020A00D0020A9
:101D0000780E0020D4050020000C0240340600208C
:101D100000000020500F002098090020940F0020A0
:101D20008C0600203206002068000020C0E6000873
:101D300080B594B000AF07F120033022002118468F
:101D400007F0C0FD07F10C0300221A605A609A6088
:101D5000DA601A610023BB60284B1B6C274A43F0F2
:101D600080531364254B1B6C03F08053BB60BB682E
:101D700000237B60224B1B68214A43F4804313609D
:101D80001F4B1B6803F480437B607B6801233B622D
:101D90004FF480337B620223BB634FF48003FB6309
:101DA00019233B644FF4A8737B640223BB640423B0
:101DB000FB6407F12003184604F01CFC0346002BCB
:101DC00001D000F051F80F23FB6002233B61002398
:101DD0007B614FF4A053BB614FF48053FB6107F16B
:101DE0000C030521184604F07DFE0346002B01D0AC
:101DF00000F03AF800BF5037BD4680BD00380240C1
:101E00000070004080B582B000AF7860094B1B685D
:101E10007A689A4204D0084B1B687A689A4205D1C6
:101E2000044800F0A7FC044800F0A4FC00BF0837F9
:101E3000BD4680BD8C0600209809002080B483B088
:101E400000AF78607B68064A934202D1054B0122BD
:101E50001A7000BF0C37BD465DF8047B704700BFA9
:101E6000780E00203206002080B400AF72B600BFAA
:101E7000FEE7000084B080B582B000AF07F1100C1F
:101E80008CE80F0097F92C30DB115BB2DBB203F06A
:101E90000103002B14BF01230023FB7197F92C30A1
:101EA000002BB8BF5B42DBB287F82C30BB6A97F9D6
:101EB0002C2002FB03F31B4AA2FB03235B093B60BC
:101EC0003869B98AFB7983F00103DBB21A4603F063
:101ED00037FABB69B98BFA79184603F031FA7B6A95
:101EE000002B04D13B6A1B683A685A6313E07B6A93
:101EF000042B04D13B6A1B683A689A630BE07B6A47
:101F0000082B04D13B6A1B683A68DA6303E03B6A3A
:101F10001B683A681A6400BF0837BD46BDE88040B8
:101F200004B070471F85EB5184B090B585B004AF05
:101F300007F1100484E80F0097F9503003936C46C2
:101F400007F13C0393E8070084E8070007F12C033E
:101F50000FCBFFF78FFF97F9543003936C4607F1CF
:101F6000200393E8070084E8070007F110030FCB74
:101F7000FFF780FF00BF0437BD46BDE8904004B0C6
:101F8000704780B483B000AF78607B681B681B68C3
:101F900000225A627B681B691B6800225A627B68B8
:101FA00000229A817B6800229A837B680022DA8172
:101FB0007B680022DA8300BF0C37BD465DF8047BE6
:101FC00070470000000000002DE9B04388B000AF6A
:101FD00078604FF000037B614FF000033B617B684A
:101FE0001B681B685B6A9AB27B689A817B681B6975
:101FF0001B685B6A9AB27B689A837B681B681B6864
:102000001B6803F01003102B0CBF01230023DBB26D
:10201000FB737B681B691B681B6803F01003102BA4
:102020000CBF01230023DBB2BB73FB7B002B23D14E
:102030007B689B891A467B68DB89D31A002B0ADBF5
:102040007B689A897B68DB89D31A9BB21AB27B685A
:10205000A3F860200DE07B689A887B68DB89D31A3F
:102060009AB27B689B8913449BB21AB27B68A3F82F
:1020700060200123FB6123E07B68DB891A467B68D3
:102080009B89D31A002B0ADB7B68DA897B689B89E2
:10209000D31A9BB21AB27B68A3F860200DE07B686C
:1020A0009A887B689B89D31A9AB27B68DB89134430
:1020B0009BB21AB27B68A3F860204FF0FF33FB613C
:1020C000BB7B002B24D17B689B8B1A467B68DB8B08
:1020D000D31A002B0ADB7B689A8B7B68DB8BD31AC5
:1020E0009BB21AB27B68A3F862200DE07B689A8AE3
:1020F0007B68DB8BD31A9AB27B689B8B13449BB2B1
:102100001AB27B68A3F862204FF0FF33BB6122E074
:102110007B68DB8B1A467B689B8BD31A002B0ADB10
:102120007B68DA8B7B689B8BD31A9BB21AB27B6875
:10213000A3F862200DE07B689A8A7B689B8BD31A98
:102140009AB27B68DB8B13449BB21AB27B68A3F80C
:1021500062200123BB617B68B3F96030082B03DC8C
:102160007B680022A3F860207B68B3F96230082BFB
:1021700003DC7B680022A3F862207869FEF7E4F9AB
:1021800004460D467B68B3F960301A46FB6902FBD2
:1021900003F31846FEF7C6F9804689467B689B6DB7
:1021A0001846FEF7D1F95CA3D3E90023FEF724FA21
:1021B00002460B4640464946FEF71EFA02460B46CB
:1021C000904699467B689B881846FEF7ABF9024615
:1021D0000B4640464946FEF739FB02460B46204671
:1021E0002946FEF753F802460B4610461946FEF7FD
:1021F000FBFC03467B613869FEF7A6F904460D46F1
:102200007B68B3F962301A46BB6902FB03F31846D8
:10221000FEF788F9804689467B689B6D1846FEF775
:1022200093F93DA3D3E90023FEF7E6F902460B46F6
:1022300040464946FEF7E0F902460B46904699466D
:102240007B689B8A1846FEF76DF902460B464046AE
:102250004946FEF7FBFA02460B4620462946FEF7A2
:1022600015F802460B4610461946FEF7BDFC03461C
:102270003B61D7ED057AFDEEE77A17EE903A1AB298
:102280007B68A3F86420D7ED047AFDEEE77A17EEB9
:10229000903A1AB27B68A3F866207B68B3F9603085
:1022A0001A46FB6902FB03F307EE903AB8EEE77AB1
:1022B0007B68D3ED027A67EE277AFDEEE77A17EEB8
:1022C000903A1AB27B68A3F860207B68B3F9623059
:1022D0001A46BB6902FB03F307EE903AB8EEE77AC1
:1022E0007B68D3ED067A67EE277AFDEEE77A17EE84
:1022F000903A1AB27B68A3F862207B689A897B685F
:10230000DA817B689A8B7B68DA8300BF2037BD4611
:10231000BDE8B083AFF30080182D4454FB21194071
:1023200080B483B000AF78600B46FB707B68334AA3
:102330001A607B68324A9A607B68324A1A617B680D
:102340004FF07E525A607B682D4ADA607B682E4AD5
:102350005A617B682B4A9A617B6800221A777B68F6
:1023600064225A777B684FF000021A627B684FF054
:1023700000025A627B684FF000029A627B684FF05D
:102380000002DA627B6800221A867B6800225A8685
:102390007B684FF000025A637B684FF000029A633B
:1023A0007B684FF000029A647B684FF00002DA64A9
:1023B0007B684FF000021A647B684FF000025A6499
:1023C0007B68002283F83C207B68002283F83D2054
:1023D0007B680022A3F852207B680022A3F85420D7
:1023E0007B68002283F850207B68FA7883F83E20CF
:1023F00000BF0C37BD465DF8047B70479A99993F42
:10240000000040400AD7233CCDCC4C3D80B586B07F
:1024100000AFF860B96011461A460B46FB801346C0
:10242000BB80B868FFF7D0FDBB68B3F86230FB82B1
:10243000BB68B3F86030BB82B7F90430002BCCBF67
:1024400001230023DBB21A46BB88DB0BDBB2D31AB5
:10245000DBB2FB74B7F90630002BCCBF012300239D
:10246000DBB21A46FB88DB0BDBB2D31ADBB2BB74E0
:10247000B7F90420B7F91430D21A13469B0013445D
:102480001A01D31AA54A82FB03121A44D211DB1790
:10249000D31A07EE903AF8EEE77AFB68C3ED127AAA
:1024A000B7F90620B7F91630D21A13469B00134429
:1024B0001A01D31A994A82FB03121A44D211DB176C
:1024C000D31A07EE903AF8EEE77AFB68C3ED137A79
:1024D000FB6893ED087AFB68D3ED066AFB6893ED21
:1024E000026AFB68D3ED125AFB68D3ED0D7A75EEE4
:1024F000A77A66EE277A66EEA77A77EE277AFB68E8
:10250000C3ED087AFB6893ED097AFB68D3ED066AA0
:10251000FB6893ED036AFB68D3ED135AFB68D3EDB8
:102520000E7A75EEA77A66EE277A66EEA77A77EED0
:10253000277AFB68C3ED097AFB684FF000029A62C4
:10254000FB684FF00002DA62FB6893ED007AFB68EB
:10255000D3ED127A27EE277AFB68D3ED087A37EEAF
:10256000277AFB68D3ED0A7A77EE277AFDEEE77AD1
:10257000C7ED007A3B785AB2FB6883F83C20FB68D1
:1025800093ED017AFB68D3ED137A27EE277AFB6887
:10259000D3ED097A37EE277AFB68D3ED0B7A77EE25
:1025A000277AFDEEE77AC7ED007A3B785AB2FB68EE
:1025B00083F83D20FB6893F83E30012B49D1FB683E
:1025C00093F93C30642B04DCFB681A6AFB681A64DC
:1025D0001AE0FB6893ED007AFB68D3ED127A27EEE0
:1025E000277AFB68D3ED107A37EE277AFB68D3EDB4
:1025F0000A7A77EE277AFDEEE77AC7ED007A3B7824
:102600005AB2FB6883F83C20FB6893F93D30642B99
:1026100004DCFB685A6AFB685A641AE0FB6893EDB5
:10262000017AFB68D3ED137A27EE277AFB68D3EDA6
:10263000117A37EE277AFB68D3ED0B7A77EE277A9B
:10264000FDEEE77AC7ED007A3B785AB2FB6883F873
:102650003D20FB6893F93C20FB6893F91D309A42BA
:1026600006DDFB6893F91D20FB6883F83C200DE034
:10267000FB6893F93C20FB6893F91C309A4205DA19
:10268000FB6893F91C20FB6883F83C20FB6893F9F6
:102690003D20FB6893F91D309A4206DDFB6893F9F3
:1026A0001D20FB6883F83D200DE0FB6893F93D2079
:1026B000FB6893F91C309A4205DAFB6893F91C20F9
:1026C000FB6883F83D20FB6893F93C30DAB2FB7C71
:1026D00012FB03F3DBB25AB2FB6883F83C20FB68C1
:1026E00093F93D30DAB2BB7C12FB03F3DBB25AB292
:1026F000FB6883F83D20FB68BA8A1A86FB689A6CEF
:10270000FB685A63FB68FA8A5A86FB68DA6CFB68D6
:102710009A6300BF1837BD4680BD00BF6DDA4F9683
:1027200080B582B000AF786039607B683A681A6023
:102730007B6805221A717B68FF225A717B68002230
:1027400083F804237B680022DA717B6800221A7206
:10275000786800F054FC7B6818687B6803F10E0110
:102760007B681B799BB21A4606F0DBF800BF08377E
:10277000BD4680BD80B584B000AF78607B68DB79F2
:10278000002B47D17B68DB7BFE2B3ED10023FB7304
:102790007B685A7C7B681B7C1344DBB2DB43FB7396
:1027A0007B689B7CFA7B9A4224D17B685B7C9BB2E2
:1027B0001B029AB27B681B7C9BB21343BB81BB8913
:1027C00003339AB27B685A81BB8908339AB27B681B
:1027D0009A817B6818687B681B7908337A68134490
:1027E000991D7B685B891A4606F09BF87B6801227D
:1027F0001A7206E07B68022283F804237B680022B9
:102800001A727B680122DA710FE07B68012283F87B
:1028100004230AE07B6818687B6803F10E017B687B
:102820001B799BB21A4606F07CF800BF1037BD46F4
:1028300080BD000080B590B000AFF860B9607A60EC
:102840003B60FB68DB79002B69D0FB681B7A002BAF
:1028500062D0FB689B89013BFA6813449B7B002B89
:102860005AD0FB6803F20D10FB681B790833FA6835
:102870001344991DFB685B891A4607F015F800237D
:1028800087F83F30002387F837300023BB630DE023
:10289000FA68BB6B134403F20D131A7897F83F30B4
:1028A000134487F83F30BB6B0133BB63FB685B8924
:1028B0001A46BB6B9342EBDB97F83F30DB4387F85C
:1028C0003730FB685B891A46FB68134493F80D3177
:1028D00097F837209A4218D1FB6801229A713B6819
:1028E0007A68B968F86800F083F8FB680E33FF2255
:1028F0000021184606F0E6FFFB6803F20D13F822EC
:102900000021184606F0DEFF03E0FB68032283F88F
:102910000423FB6800221A72FB680022DA71FB684C
:1029200093F80433012B1AD1F86800F068FB2D4AA4
:1029300007F1240392E8030083E8030007F12C0366
:1029400007F1240292E8030083E80300FB6818689B
:1029500007F12C010123082205F051FF3EE0FB683E
:1029600093F80433022B1AD1F86800F048FB1E4A92
:1029700007F11C0392E8030083E8030007F12C032E
:1029800007F11C0292E8030083E80300FB68186863
:1029900007F12C010123082205F031FF1EE0FB683E
:1029A00093F80433032B19D1F86800F028FB0F4A81
:1029B00007F1140392E8030083E8030007F12C03F6
:1029C00007F1140292E8030083E80300FB6818682B
:1029D00007F12C010123082205F011FF00BF403749
:1029E000BD4680BDA8E60008B0E60008B8E60008CD
:1029F00080B586B000AFF860B9607A603B60FB6874
:102A000093F80D31FB75FB7D002B03D1F86800F0C6
:102A100029F823E0FB7D012B05D1BA687968F868B5
:102A200000F035F81AE0FB7D022B04D13968F86814
:102A300000F050F912E0FB7D032B04D13968F868EF
:102A400000F0E4F90AE0FB7D042B04D13968F86852
:102A500000F0C6FA02E0FB6800229A7100BF183746
:102A6000BD4680BD80B582B000AF78607B681868D5
:102A70007B6803F10E017B689A890A2305F0BFFE8B
:102A80007B6800229A7100BF0837BD4680BD80B5C3
:102A900086B000AFF860B9607A607868FFF72AF80E
:102AA0007868FEF70DFEB868FFF78EFAFB68FF2224
:102AB00083F80522FB68FE2283F80622FB681A22AF
:102AC00083F80722FB68002283F80822FB68E522CE
:102AD00083F80922FB68012283F80A22FB6800229E
:102AE00083F80B22BB68B3F962301B121BB2DAB257
:102AF000FB6883F80C22BB68B3F96230DAB2FB687A
:102B000083F80D22BB68B3F960301B121BB2DAB236
:102B1000FB6883F80E22BB68B3F96030DAB2FB6859
:102B200083F80F22BB68B3F966301B121BB2DAB20E
:102B3000FB6883F81022BB68B3F96630DAB2FB6831
:102B400083F81122BB68B3F964301B121BB2DAB2EE
:102B5000FB6883F81222BB68B3F96430DAB2FB6811
:102B600083F813227B68B3F980301B121BB2DAB2F0
:102B7000FB6883F814227B68B3F98030DAB2FB6813
:102B800083F815227B68B3F982301B121BB2DAB2CC
:102B9000FB6883F816227B68B3F98230DAB2FB68EF
:102BA00083F817227B68B3F984301B121BB2DAB2A8
:102BB000FB6883F818227B68B3F98430DAB2FB68CB
:102BC00083F819227B68B3F98C301B121BB2DAB27E
:102BD000FB6883F81A227B68B3F98C30DAB2FB68A1
:102BE00083F81B227B68B3F98E301B121BB2DAB25A
:102BF000FB6883F81C227B68B3F98E30DAB2FB687D
:102C000083F81D227B68B3F990301B121BB2DAB235
:102C1000FB6883F81E227B68B3F99030DAB2FB6858
:102C200083F81F227B68B3F974301B121BB2DAB22F
:102C3000FB6883F820227B68B3F97430DAB2FB6852
:102C400083F821227B68B3F976301B121BB2DAB20B
:102C5000FB6883F822227B68B3F97630DAB2FB682E
:102C600083F823227B68B3F9A0301B121BB2DAB2BF
:102C7000FB6883F824227B68B3F9A030DAB2FB68E2
:102C800083F825220023FB7500233B610BE03B69A1
:102C90000533FA68134493F80522FB7D1344FB7552
:102CA0003B6901333B613B691B2BF0DDFB68FA7D1F
:102CB00083F82622FB681868FB6803F205210A23C3
:102CC000222205F09CFDFB6800229A7100BF183794
:102CD000BD4680BD80B582B000AF786039607B684A
:102CE00093F80E31002B3CD17B6893F80F311A46D4
:102CF0007B6893F810311B02134307EE903AB8EE4D
:102D0000E77ADFED416AC7EE267A3B68C3ED007AC9
:102D10007B6893F811311A467B6893F812311B02D5
:102D2000134307EE903AB8EEE77ADFED376AC7EE65
:102D3000267A3B68C3ED027A7B6893F813311A4612
:102D40007B6893F814311B02134307EE903AB8EEF8
:102D5000E77ADFED2D6AC7EE267A3B68C3ED047A89
:102D600040E07B6893F80E31012B3BD17B6893F8F0
:102D70000F311A467B6893F810311B02134307EE9C
:102D8000903AB8EEE77ADFED206AC7EE267A3B6824
:102D9000C3ED017A7B6893F811311A467B6893F88A
:102DA00012311B02134307EE903AB8EEE77ADFEDDB
:102DB000166AC7EE267A3B68C3ED037A7B6893F800
:102DC00013311A467B6893F814311B02134307EE44
:102DD000903AB8EEE77ADFED0C6AC7EE267A3B68E8
:102DE000C3ED057A7B6818687B6803F10E017B6888
:102DF0009A890A2305F003FD7B6800229A7100BFBF
:102E00000837BD4680BD00BF0000C84280B586B00F
:102E100000AF786039607B68FF2283F805227B6809
:102E2000FE2283F806227B68032283F807227B6850
:102E3000002283F808227B68FC2283F809227B6841
:102E4000032283F80A227B6893F80E31002B4CD1C1
:102E50007B68002283F80B223B68D3ED007A9FED5C
:102E60005F7A67EE877AFCEEE77A17EE903AFB819D
:102E7000FB89DAB27B6883F80C22FB891B0A9BB2C0
:102E8000DAB27B6883F80D223B68D3ED027A9FEDBE
:102E9000537A67EE877AFCEEE77A17EE903AFB8179
:102EA000FB89DAB27B6883F80E22FB891B0A9BB28E
:102EB000DAB27B6883F80F223B68D3ED047A9FED8A
:102EC000477A67EE877AFCEEE77A17EE903AFB8155
:102ED000FB89DAB27B6883F81022FB891B0A9BB25C
:102EE000DAB27B6883F8112250E07B6893F80E31E8
:102EF000012B4BD17B68012283F80B223B68D3ED79
:102F0000017A9FED367A67EE877AFCEEE77A17EE64
:102F1000903AFB81FB89DAB27B6883F80C22FB894B
:102F20001B0A9BB2DAB27B6883F80D223B68D3EDB3
:102F3000037A9FED2A7A67EE877AFCEEE77A17EE3E
:102F4000903AFB81FB89DAB27B6883F80E22FB8919
:102F50001B0A9BB2DAB27B6883F80F223B68D3ED81
:102F6000057A9FED1E7A67EE877AFCEEE77A17EE18
:102F7000903AFB81FB89DAB27B6883F81022FB89E7
:102F80001B0A9BB2DAB27B6883F811220023FB751F
:102F900000233B610BE03B6905337A68134493F8E7
:102FA0000522FB7D1344FB753B6901333B613B69A3
:102FB000072BF0DD7B68FA7D83F812227B681868A6
:102FC0007B6803F205210A230E2205F018FC7B68BA
:102FD00000229A7100BF1837BD4680BD0000C8426C
:102FE00080B485B000AF786039600023FB81002396
:102FF000BB8100BF1437BD465DF8047B704780B5C8
:1030000088B000AF78607B681B681B681B6803F0A2
:103010002003202B06D17B681B681B685B68DBB232
:10302000FB77FB7F7B681B681B681B6803F0200332
:10303000202BE8D00023BB617B681B681B681B68E2
:10304000BB617B681B681B685B68BB61BB69002355
:103050007B617B681B681B681B687B617B681B68E6
:103060001B685B687B617B6900233B617B681B6835
:103070001B681B683B617B681B681B685B683B6166
:103080003B690023FB607B681B681B681B68FB6057
:103090007B681B681B685B68FB60FB687B681B6860
:1030A000202283F83E207B681B6800221A647B681C
:1030B00018687B6803F10E017B681B799BB21A4686
:1030C00005F02FFC7B68002283F8042300BF203723
:1030D000BD4680BD80B500AF174B184A1A60164B2D
:1030E0004FF482725A60144B00229A60124B0022F5
:1030F000DA60114B00221A610F4B00225A610E4B0D
:103100004FF400729A610C4B0022DA610A4B0022E4
:103110001A62094B00225A62074B00229A62064B40
:103120000A22DA62044803F0BDFE0346002B01D0F8
:10313000FEF79AFE00BF80BDA40C002000380040BE
:1031400080B500AF174B184A1A60164B4FF48272C5
:103150005A60144B00229A60124B0022DA60114B25
:1031600000221A610F4B00225A610E4B4FF400727D
:103170009A610C4B0022DA610A4B00221A62094B59
:1031800000225A62074B00229A62064B0A22DA6238
:10319000044803F087FE0346002B01D0FEF764FECF
:1031A00000BF80BDFC0C0020003C004080B58CB00E
:1031B00000AF786007F11C0300221A605A609A6021
:1031C000DA601A617B681B68424A93424BD1002344
:1031D000BB61414B1B6C404A43F4804313643E4B3C
:1031E0001B6C03F48043BB61BB6900237B613A4BDA
:1031F0001B6B394A43F004031363374B1B6B03F01B
:1032000004037B617B6900233B61334B1B6B324AB8
:1032100043F002031363304B1B6B03F002033B616B
:103220003B690C23FB6102233B6200237B62032387
:10323000BB620523FB6207F11C031946274801F016
:10324000E3FE4FF48063FB6102233B6200237B6259
:103250000323BB620523FB6207F11C0319462048C8
:1032600001F0D2FE31E07B681B681E4A93422CD1EC
:103270000023FB60184B1B6C174A43F40043136494
:10328000154B1B6C03F40043FB60FB680023BB6021
:10329000114B1B6B104A43F0040313630E4B1B6B63
:1032A00003F00403BB60BB684FF4E053FB610223EF
:1032B0003B6200237B620323BB620623FB6207F1B0
:1032C0001C031946054801F09FFE00BF3037BD467C
:1032D00080BD00BF003800400038024000080240B6
:1032E00000040240003C004080B483B000AF0023E3
:1032F0007B60104B5B6C0F4A43F4804353640D4B6F
:103300005B6C03F480437B607B6800233B60094B6C
:103310001B6C084A43F080531364064B1B6C03F08C
:1033200080533B603B6800BF0C37BD465DF8047BB3
:10333000704700BF0038024080B400AFFEE780B4A1
:1033400000AFFEE780B400AFFEE780B400AFFEE759
:1033500080B400AFFEE780B400AF00BFBD465DF8AB
:10336000047B704780B400AF00BFBD465DF8047BAE
:10337000704780B400AF00BFBD465DF8047B704766
:1033800080B500AF00F0CEFE00BF80BD80B500AFBD
:10339000024804F074F900BF80BD00BF300E002069
:1033A00080B500AF024805F0EDFA00BF80BD00BF58
:1033B000500F002080B500AF024805F0E3FA00BFCF
:1033C00080BD00BF940F002080B500AF024804F01C
:1033D00056F900BF80BD00BF780E002080B400AF5A
:1033E00001231846BD465DF8047B704780B582B066
:1033F00000AF7860396006F02DFA034616221A6095
:103400004FF0FF3318460837BD4680BD80B582B007
:1034100000AF78604FF0FF317868FFF7E7FFFEE715
:1034200080B586B000AFF860B9607A6000237B6138
:103430000AE0AFF300800146BB685A1CBA60CAB20A
:103440001A707B6901337B617A697B689A42F0DB91
:103450007B6818461837BD4680BD80B586B000AF82
:10346000F860B9607A6000237B6109E0BB685A1C90
:10347000BA601B781846FEF78DFB7B6901337B61D0
:103480007A697B689A42F1DB7B6818461837BD463B
:1034900080BD80B483B000AF78604FF0FF33184632
:1034A0000C37BD465DF8047B704780B483B000AF35
:1034B000786039603B684FF400525A600023184628
:1034C0000C37BD465DF8047B704780B483B000AF15
:1034D0007860012318460C37BD465DF8047B7047C1
:1034E00080B485B000AFF860B9607A6000231846F8
:1034F0001437BD465DF8047B7047000080B586B088
:1035000000AF7860144A154BD31A7B617B693B612D
:10351000134B1B68002B02D1114B124A1A60104B3F
:103520001A687B6813443A699A4207D206F092F906
:1035300003460C221A604FF0FF3309E0084B1B686A
:10354000FB60074B1A687B681344054A1360FB68ED
:1035500018461837BD4680BD000002200004000058
:10356000540D0020F00F002080B400AF064BD3F8BC
:103570008830054A43F47003C2F8883000BFBD4666
:103580005DF8047B704700BF00ED00E080B586B0B9
:1035900000AF07F1080300221A605A609A60DA60EF
:1035A0003B4600221A605A601E4B1F4A1A601D4B90
:1035B000A7225A601B4B00229A601A4B4FF6FF72EB
:1035C000DA60184B00221A61164B00225A61154B23
:1035D00000229A61134803F0EEFC0346002B01D051
:1035E000FEF742FC4FF48053BB6007F10803194615
:1035F0000C4804F0ABFA0346002B01D0FEF734FC74
:1036000000233B6000237B603B461946054804F0DD
:10361000C7FF0346002B01D0FEF726FC00BF18377A
:10362000BD4680BD580D00200000014080B58CB023
:1036300000AF07F10C0324220021184606F042F9DE
:103640003B1D00221A605A60214B4FF080421A60E5
:103650001F4B00225A601E4B00229A601C4B4BF6F7
:103660004072DA601A4B00221A61194B80229A616B
:103670000323FB6000233B6101237B610023BB61CB
:103680000A23FB6100233B6201237B620023BB62B0
:103690000A23FB6207F10C0319460D4803F0BBFE39
:1036A0000346002B01D0FEF7DFFB00237B600023E5
:1036B000BB603B1D1946064804F072FF0346002B11
:1036C00001D0FEF7D1FB00BF3037BD4680BD00BF43
:1036D000A00D002080B58CB000AF07F10C032422B0
:1036E0000021184606F0EEF83B1D00221A605A60D1
:1036F000204B214A1A601F4B00225A601D4B0022AA
:103700009A601C4B4BF64072DA601A4B00221A6129
:10371000184B80229A610323FB6000233B61012345
:103720007B610023BB610A23FB6100233B62012311
:103730007B620023BB620A23FB6207F10C0319467C
:103740000C4803F068FE0346002B01D0FEF78CFB0B
:1037500000237B600023BB603B1D1946054804F035
:103760001FFF0346002B01D0FEF77EFB00BF303762
:10377000BD4680BDE80D00200004004080B58AB041
:1037800000AF07F1180300221A605A609A60DA60ED
:1037900007F1100300221A605A603B4600221A60AB
:1037A0005A609A60DA60314B314A1A602F4B00221E
:1037B0005A602E4B00229A602C4B4FF6FF72DA6053
:1037C0002A4B00221A61294B00229A61274803F0F4
:1037D000F2FB0346002B01D0FEF746FB4FF480536B
:1037E000BB6107F118031946204804F0AFF90346FE
:1037F000002B01D0FEF738FB1C4803F0BDFD03464B
:10380000002B01D0FEF730FB00233B6100237B61DE
:1038100007F110031946154804F0C2FE0346002BB9
:1038200001D0FEF721FB00233B6001237B600023D6
:10383000BB600023FB603B46082219460B4804F09E
:1038400026F80346002B01D0FEF70EFB3B460C2268
:103850001946064804F01BF80346002B01D0FEF77A
:1038600003FB00BF2837BD4680BD00BF300E0020DF
:103870000008004080B586B000AF07F108030022C1
:103880001A605A609A60DA603B4600221A605A60F9
:103890001D4B1E4A1A601C4B42F210725A601A4BA2
:1038A00000229A60184B5322DA60174B00221A61EB
:1038B000154B00229A61144803F07DFB0346002B50
:1038C00001D0FEF7D1FA4FF48053BB6007F1080333
:1038D00019460D4804F03AF90346002B01D0FEF7D3
:1038E000C3FA00233B6000237B603B461946064831
:1038F00004F056FE0346002B01D0FEF7B5FA00BFD8
:103900001837BD4680BD00BF780E0020000C004077
:1039100080B596B000AF07F1480300221A605A60E4
:103920009A60DA6007F1400300221A605A6007F1DA
:10393000240300221A605A609A60DA601A615A61A0
:103940009A613B1D20220021184605F0BBFF444B25
:10395000444A1A60424B07225A60414B00229A6047
:103960003F4B4FF47A72DA603D4B00221A613C4BB8
:1039700000225A613A4B80229A61394803F01BFBBE
:103980000346002B01D0FEF76FFA4FF48053BB645F
:1039900007F148031946324804F0D8F80346002BD3
:1039A00001D0FEF761FA2E4803F0C4FB0346002B5A
:1039B00001D0FEF759FA00233B6400237B6407F132
:1039C00040031946264804F0EBFD0346002B01D0C6
:1039D000FEF74AFA60237B620023BB620023FB628E
:1039E00000233B6300237B630023BB630023FB6353
:1039F00007F1240300221946194803F0E5FF0346A6
:103A0000002B01D0FEF730FA07F1240304221946F7
:103A1000134803F0D9FF0346002B01D0FEF724FA28
:103A200000237B600023BB600023FB6000233B611D
:103A300000237B614FF40053BB6100233B623B1DBD
:103A40001946074804F028FE0346002B01D0FEF774
:103A50000BFA034800F0CEF900BF5837BD4680BDD1
:103A6000C00E00200004014080B584B000AF3B468A
:103A700000221A605A609A60DA601E4B1E4A1A6071
:103A80001C4B00225A601B4B00229A60194B4FF6C8
:103A9000FF72DA60174B00221A61164B00229A61FE
:103AA000144803F069FC0346002B01D0FEF7DCF953
:103AB00000233B6001237B600023BB600023FB608D
:103AC0003B46002219460B4803F0E1FE0346002B5B
:103AD00001D0FEF7C9F93B4604221946054803F018
:103AE000D6FE0346002B01D0FEF7BEF900BF10370B
:103AF000BD4680BD080F00200040014080B58CB05D
:103B000000AF786007F11C0300221A605A609A60C7
:103B1000DA601A617B681B683F4A93420ED100232A
:103B2000BB613E4B5B6C3D4A43F0010353643B4B2E
:103B30005B6C03F00103BB61BB6969E07B681B68D8
:103B4000374A934235D100237B61344B1B6C334A97
:103B500043F004031364314B1B6C03F004037B61DB
:103B60007B6900233B612D4B1B6B2C4A43F0020306
:103B700013632A4B1B6B03F002033B613B694FF459
:103B80004073FB6102233B6200237B620023BB6224
:103B90000223FB6207F11C031946224801F034FAA4
:103BA000002200211E2000F03EFE1E2000F057FEE5
:103BB0002EE07B681B681C4A934216D10023FB60F1
:103BC000164B1B6C154A43F008031364134B1B6C14
:103BD00003F00803FB60FB6800220021322000F0A4
:103BE00022FE322000F03BFE12E07B681B680F4A89
:103BF00093420DD10023BB60084B5B6C074A43F036
:103C000002035364054B5B6C03F00203BB60BB68AB
:103C100000BF3037BD4680BD000001400038024083
:103C20000008004000040240000C00400004014075
:103C300080B58CB000AF786007F11C0300221A60D9
:103C40005A609A60DA601A617B681B68B3F1804F32
:103C50004BD10023BB613F4B1B6C3E4A43F0010339
:103C600013643C4B1B6C03F00103BB61BB69002375
:103C70007B61384B1B6B374A43F001031363354BB1
:103C80001B6B03F001037B617B6900233B61314BBC
:103C90001B6B304A43F0020313632E4B1B6B03F084
:103CA00002033B613B694FF40043FB6102233B622B
:103CB00000237B620023BB620123FB6207F11C032C
:103CC0001946254801F0A0F90823FB6102233B6255
:103CD00000237B620023BB620123FB6207F11C030C
:103CE00019461E4801F090F930E07B681B681C4AB9
:103CF00093422BD10023FB60164B1B6C154A43F0FB
:103D000002031364134B1B6C03F00203FB60FB689C
:103D10000023BB600F4B1B6B0E4A43F0020313637F
:103D20000C4B1B6B03F00203BB60BB683023FB61D1
:103D300002233B6200237B620023BB620223FB62FF
:103D400007F11C031946054801F05EF900BF303742
:103D5000BD4680BD00380240000002400004024021
:103D60000004004080B58AB000AF786007F114030A
:103D700000221A605A609A60DA601A617B681B68D8
:103D8000194A93422BD100233B61184B5B6C174AB5
:103D900043F480335364154B5B6C03F480333B6115
:103DA0003B690023FB60114B1B6B104A43F010036F
:103DB00013630E4B1B6B03F01003FB60FB68602367
:103DC0007B610223BB610023FB6100233B62032371
:103DD0007B6207F114031946054801F015F900BF8D
:103DE0002837BD4680BD00BF00400140003802407A
:103DF0000010024080B588B000AF786007F10C0376
:103E000000221A605A609A60DA601A617B681B6847
:103E1000124A93421DD10023BB60114B1B6B104A09
:103E200043F0040313630E4B1B6B03F00403BB60EE
:103E3000BB68C023FB6002233B6100237B6100233E
:103E4000BB610323FB6107F10C031946054801F030
:103E5000DBF800BF2037BD4680BD00BF0004014035
:103E6000003802400008024080B500AF114B124AF2
:103E70001A60104B4FF4E1325A600E4B00229A60E8
:103E80000C4B0022DA600B4B00221A61094B0C220A
:103E90005A61084B00229A61064B0022DA610548FC
:103EA00004F060FC0346002B01D0FDF7DDFF00BFEE
:103EB00080BD00BF500F00200010014080B500AF52
:103EC000114B124A1A60104B4FF4E1325A600E4BFC
:103ED00000229A600C4B0022DA600B4B00221A6120
:103EE000094B0C225A61084B00229A61064B0022B2
:103EF000DA61054804F036FC0346002B01D0FDF7DB
:103F0000B3FF00BF80BD00BF940F002000440040FD
:103F100080B58CB000AF786007F11C0300221A60F6
:103F20005A609A60DA601A617B681B683A4A934269
:103F300035D10023BB61394B5B6C384A43F0100329
:103F40005364364B5B6C03F01003BB61BB69002309
:103F50007B61324B1B6B314A43F0010313632F4BE0
:103F60001B6B03F001037B617B694FF4C063FB6152
:103F700002233B6200237B620323BB620723FB62B5
:103F800007F11C031946264801F03EF800220221E1
:103F9000252000F048FC252000F061FC38E07B681B
:103FA0001B68204A934233D100233B611B4B1B6C9F
:103FB0001A4A43F400331364184B1B6C03F40033A8
:103FC0003B613B690023FB60144B1B6B134A43F0BE
:103FD00008031363114B1B6B03F00803FB60FB68C2
:103FE0006023FB6102233B6200237B620323BB62ED
:103FF0000723FB6207F11C0319460B4801F004F884
:1040000000220121262000F00EFC262000F027FCD3
:1040100000BF3037BD4680BD00100140003802406F
:104020000000024000440040000C0240DFF834D0A1
:104030000D480E490E4A002302E0D458C450043300
:10404000C4188C42F9D30B4A0B4C002301E01360D7
:104050000432A242FBD3FFF787FA05F001FCFDF71B
:10406000ABFD70470000022000000020EC020020A1
:1040700040EC0008EC020020EC0F0020FEE70000FE
:1040800080B500AF0E4B1B680D4A43F400731360FC
:104090000B4B1B680A4A43F480631360084B1B6890
:1040A000074A43F480731360032000F0B1FB0F2034
:1040B00000F008F8FFF718F90023184680BD00BF8C
:1040C000003C024080B582B000AF7860124B1A68A5
:1040D000124B1B7819464FF47A73B3FBF1F3B2FB22
:1040E000F3F3184600F0C9FB0346002B01D001236F
:1040F0000EE07B680F2B0AD8002279684FF0FF3062
:1041000000F091FB064A7B681360002300E0012366
:1041100018460837BD4680BD0C0100201401002060
:104120001001002080B400AF064B1B781A46064BE6
:104130001B681344044A136000BFBD465DF8047B4E
:10414000704700BF14010020D80F002080B400AFDA
:10415000034B1B681846BD465DF8047B704700BFE3
:10416000D80F002080B584B000AF7860FFF7EEFF75
:10417000B8607B68FB60FB68B3F1FF3F05D00A4B7A
:104180001B781A46FB681344FB6000BFFFF7DEFF95
:104190000246BB68D31AFA689A42F7D800BF00BF3C
:1041A0001037BD4680BD00BF1401002080B584B02B
:1041B00000AF78600023FB737B68002B01D10123E3
:1041C00033E07B681B6C002B09D17868FCF766FF35
:1041D0007B6800225A647B68002283F83C207B685D
:1041E0001B6C03F01003002B18D17B681B6C23F4AD
:1041F000885323F0020343F002027B681A64786854
:1042000000F03AF97B6800225A647B681B6C23F04B
:10421000030343F001027B681A6401E00123FB738E
:104220007B68002283F83C20FB7B18461037BD4694
:1042300080BD000080B485B000AF78603960002395
:10424000BB607B6893F83C30012B01D1022305E170
:104250007B68012283F83C203B681B68092B25D929
:104260007B681B68D9683B681B689BB21A4613467B
:104270005B0013441E3B072202FA03F3DA437B6818
:104280001B680A40DA607B681B68D9683B689A68DB
:104290003B681B689BB2184603465B0003441E3B09
:1042A0009A407B681B680A43DA6022E07B681B68DF
:1042B00019693B681B689BB21A4613465B0013449E
:1042C000072202FA03F3DA437B681B680A401A618B
:1042D0007B681B6819693B689A683B681B689BB2DE
:1042E000184603465B0003449A407B681B680A43F8
:1042F0001A613B685B68062B24D87B681B68596B86
:104300003B685A6813469B001344053B1F2202FA80
:1043100003F3DA437B681B680A405A637B681B68B7
:10432000596B3B681B689BB218463B685A6813463A
:104330009B001344053B00FA03F27B681B680A43A9
:104340005A634CE03B685B680C2B24D87B681B6885
:10435000196B3B685A6813469B001344233B1F228A
:1043600002FA03F3DA437B681B680A401A637B682E
:104370001B68196B3B681B689BB218463B685A6800
:1043800013469B001344233B00FA03F27B681B682F
:104390000A431A6323E07B681B68D96A3B685A6842
:1043A00013469B001344413B1F2202FA03F3DA43F6
:1043B0007B681B680A40DA627B681B68D96A3B68C5
:1043C0001B689BB218463B685A6813469B0013440F
:1043D000413B00FA03F27B681B680A43DA62224B16
:1043E000FB607B681B68214A934209D13B681B68CC
:1043F000122B05D1FB685B6843F48002FB685A60AE
:104400007B681B68194A934223D13B681B68102BB9
:1044100003D03B681B68112B1BD1FB685B6843F41E
:104420000002FB685A603B681B68102B11D1104BCF
:104430001B68104AA2FB03239A0C13469B001344EB
:104440005B00BB6002E0BB68013BBB60BB68002B4C
:10445000F9D17B68002283F83C20002318461437EA
:10446000BD465DF8047B70470023014000200140F9
:104470000C01002083DE1B4380B485B000AF786060
:10448000794BFB60FB685B6823F44032FB685A6041
:10449000FB685A687B685B681A43FB685A607B68F4
:1044A0001B685A687B681B6822F480725A607B68BC
:1044B0001B6859687B681B691A027B681B680A4382
:1044C0005A607B681B685A687B681B6822F04072E0
:1044D0005A607B681B6859687B689A687B681B68B0
:1044E0000A435A607B681B689A687B681B6822F4E1
:1044F00000629A607B681B6899687B68DA687B68F1
:104500001B680A439A607B689B6A584A934222D090
:104510007B681B689A687B681B6822F070629A60EF
:104520007B681B6899687B689A6A7B681B680A438A
:104530009A607B681B689A687B681B6822F040520F
:104540009A607B681B6899687B68DA6A7B681B687D
:104550000A439A600FE07B681B689A687B681B6857
:1045600022F070629A607B681B689A687B681B689F
:1045700022F040529A607B681B689A687B681B68CF
:1045800022F002029A607B681B6899687B681B7E38
:104590005A007B681B680A439A607B6893F8203056
:1045A000002B1BD07B681B685A687B681B6842F431
:1045B00000625A607B681B685A687B681B6822F43B
:1045C00060425A607B681B6859687B685B6A013B84
:1045D0005A037B681B680A435A6007E07B681B68C4
:1045E0005A687B681B6822F400625A607B681B680B
:1045F000DA6A7B681B6822F47002DA627B681B68E7
:10460000D96A7B68DB69013B1A057B681B680A4332
:10461000DA627B681B689A687B681B6822F4007208
:104620009A607B681B6899687B6893F830305A02FF
:104630007B681B680A439A607B681B689A687B6882
:104640001B6822F480629A607B681B6899687B68AB
:104650005B699A027B681B680A439A6000BF143743
:10466000BD465DF8047B7047002301400100000F48
:1046700080B485B000AF78607B6803F00703FB600F
:104680000C4BDB68BB60BA684FF6FF031340BB609E
:10469000FB681A02BB68134343F0BF6343F4003363
:1046A000BB60044ABB68D36000BF1437BD465DF8E9
:1046B000047B704700ED00E080B400AF044BDB6882
:1046C0001B0A03F007031846BD465DF8047B7047DC
:1046D00000ED00E080B483B000AF0346FB7197F9B2
:1046E0000730002B0BDBFB7903F01F02074997F91A
:1046F00007305B09012000FA02F241F8232000BFD5
:104700000C37BD465DF8047B704700BF00E100E058
:1047100080B483B000AF03463960FB7197F907306E
:10472000002B0ADB3B68DAB20C4997F9073012011B
:10473000D2B20B4483F800230AE03B68DAB208499E
:10474000FB7903F00F03043B1201D2B20B441A763B
:1047500000BF0C37BD465DF8047B704700E100E008
:1047600000ED00E080B489B000AFF860B9607A6015
:10477000FB6803F00703FB61FB69C3F10703042B2C
:1047800028BF0423BB61FB690433062B02D9FB69F4
:10479000033B00E000237B614FF0FF32BB6902FA6C
:1047A00003F3DA43BB681A407B699A404FF0FF314C
:1047B0007B6901FA03F3D9437B680B401343184626
:1047C0002437BD465DF8047B7047000080B582B099
:1047D00000AF78607B68013BB3F1807F01D3012398
:1047E0000FE00A4A7B68013B53600F214FF0FF3016
:1047F000FFF78EFF054B00229A60044B07221A60D8
:10480000002318460837BD4680BD00BF10E000E019
:1048100080B582B000AF78607868FFF729FF00BFED
:104820000837BD4680BD80B586B000AF0346B9608D
:104830007A60FB7300237B61FFF73EFF78617A6843
:10484000B9687869FFF78EFF024697F90F30114675
:104850001846FFF75DFF00BF1837BD4680BD80B525
:1048600082B000AF0346FB7197F907301846FFF797
:1048700031FF00BF0837BD4680BD80B582B000AFB4
:1048800078607868FFF7A2FF034618460837BD46F0
:1048900080BD80B584B000AF78607B689B6DFB60A5
:1048A000FFF754FCB8607B6893F83530DBB2022B1D
:1048B00008D07B6880225A657B68002283F8342008
:1048C000012352E07B681B681A687B681B6822F032
:1048D00016021A607B681B685A697B681B6822F0A5
:1048E00080025A617B681B6C002B03D17B689B6C38
:1048F000002B07D07B681B681A687B681B6822F056
:1049000008021A607B681B681A687B681B6822F0C3
:1049100001021A6013E0FFF719FC0246BB68D31AC4
:10492000052B0CD97B6820225A657B68032283F80B
:1049300035207B68002283F83420032315E07B6850
:104940001B681B6803F00103002BE4D17B68DB6D5F
:104950003F229A40FB689A607B68012283F83520E9
:104960007B68002283F83420002318461037BD46A8
:1049700080BD80B483B000AF78607B6893F8353039
:10498000DBB2022B04D07B6880225A6501230CE045
:104990007B68052283F835207B681B681A687B6872
:1049A0001B6822F001021A60002318460C37BD462E
:1049B0005DF8047B7047000080B584B000AF78607C
:1049C0007B68002B01D101236CE07B68D3F8843035
:1049D000002B06D17B682322C3F884207868FCF77B
:1049E000EFFB0023BB60314B5B6C304A43F48043E8
:1049F00053642E4B5B6C03F48043BB60BB682C4B51
:104A00005B682B4A23F400035360294B5A687B6888
:104A10009B68274913434B60254B5B687B681B6889
:104A200003F580531B687A68126843F0010302F5AE
:104A300080521360FFF78AFBF86011E0FFF786FBF6
:104A40000246FB68D31AB3F5FA7F09D97B680422C2
:104A5000C3F888207B68E022C3F88420012321E08A
:104A60007B681B6803F580531B6803F00103002B70
:104A7000E4D1786800F058F9786800F0FFF97868B8
:104A800000F055FA7B685B681A460021786800F0F0
:104A9000BDF97B680022C3F888207B681022C3F828
:104AA0008420002318461037BD4680BD00380240E0
:104AB0000038014080B584B000AF786039607B6811
:104AC0001B681B68FB60FA68514B1340FB603B6836
:104AD0001B7C002B02D14FF4000200E000223B6857
:104AE0005B7C002B02D14FF4800300E000231A43CB
:104AF0003B689B681A433B68DB7F1B041A433B6897
:104B00005B6913433A68927F002A02D14FF4005246
:104B100000E000221A433B681B7F1B031A433B68DB
:104B20009B691A433B681B799B0213433A6892F8CE
:104B30002020002A02D14FF4007200E000221A4324
:104B40003B68DB7BDB011A433B685B6A1A433B68CB
:104B500093F828301B011343FA681343FB607B680A
:104B60001B68FA681A607B681B681B68FB60012081
:104B7000FFF7F8FA7B681B68FA681A607B681B68A5
:104B80009B69FB60FA684FF641731340FB603B681A
:104B90009B6C1B043A6892F84C20002A01D18022B9
:104BA00000E000221A433B681B6D13433A6892F8F9
:104BB0005520012A01D1082200E0002213433A685F
:104BC00092F85620012A01D1042200E0002213436A
:104BD0003A6892F85420012A01D1022200E0002212
:104BE0001343FA681343FB607B681B68FA689A6199
:104BF0007B681B689B69FB600120FFF7B3FA7B6849
:104C00001B68FA689A6100BF1037BD4680BD00BFBF
:104C10000F8120FF80B584B000AF786039607B6879
:104C20001B6803F580539B69FB60FA683D4B13409A
:104C3000FB603B681B7B002B02D14FF0806200E0E1
:104C400000223B685B7B5B0613433A68527F002A75
:104C500002D14FF4801200E000221A433B689B7B94
:104C60005B051A433B685B691A433B681B7FDB01AA
:104C70001A433B689B7F9B011A433B681B6A1A439C
:104C80003B6893F824309B001343FA681343FB609E
:104C90007B681B6803F580531A46FB6893617B6849
:104CA0001B6803F580539B69FB600120FFF75AFAEC
:104CB0007B681B6803F580531A46FB6893613B6869
:104CC0001B795A063B689B681A433B689B691A43E9
:104CD0003B681B691A433B6893F82530DB011A4394
:104CE0003B689B6A9B001A433B681B6813437A68C6
:104CF000126843F4000302F5805213607B681B685E
:104D000003F580531B68FB600120FFF72BFA7B68DB
:104D10001B6803F580531A46FB68136000BF103709
:104D2000BD4680BD233FDEF880B5A6B000AF7860F9
:104D3000012387F84430012387F845300023FB63C3
:104D4000002387F85330012387F85230002387F877
:104D50005030012387F83830002387F8543000237F
:104D600087F843300023BB65002387F85C300023BD
:104D7000FB67002387F880300023C7F884300023C6
:104D800087F88A30002387F888304FF48043BB646B
:104D90004FF40063FB64002387F8893007F1340384
:104DA00019467868FFF786FE01233B7501237B7562
:104DB000012387F825300123BB750023FB61002305
:104DC00087F82430002387F826300023BB620123B4
:104DD00087F82C3001233B734FF480333B614FF451
:104DE00080033B624FF40053BB61012387F82D30F1
:104DF00000233B630023BB6007F108031946786872
:104E0000FFF708FF00BF9837BD4680BD80B487B06C
:104E100000AFF860B9607A607B6805331B781B02CD
:104E20007A680432127813437B61BA68114B1344D9
:104E30001A467B6913607B6803331B781A067B680C
:104E400002331B781B041A437B6801331B781B0257
:104E500013437A68127813437B61BA68064B134494
:104E60001A467B69136000BF1C37BD465DF8047BA2
:104E7000704700BF408002404480024080B485B04B
:104E800000AF78600023FB603EE07B68D968FA6879
:104E900013469B001344DB000B44BB60BB6800223D
:104EA0001A60BB6800225A60BB6800229A60BB6827
:104EB0000022DA60B9687B68FA68063243F822108B
:104EC000BB681B6843F48012BB681A60FB68022B46
:104ED0000CD87B68D968FB685A1C13469B001344A6
:104EE000DB000B441A46BB68DA6004E07B68DB68D1
:104EF0001A46BB68DA60BB681B6843F44002BB68B3
:104F00001A60FB680133FB60FB68032BBDD97B682B
:104F100000229A627B68DA687B681B6803F580531D
:104F20001A6100BF1437BD465DF8047B704780B43A
:104F300085B000AF78600023FB6046E07B681969AC
:104F4000FA6813469B001344DB000B44BB60BB684C
:104F500000221A60BB6800225A60BB6800229A6077
:104F6000BB680022DA60BB6800221A62BB680022BC
:104F70005A62BB684FF000421A60BB6844F2F852B4
:104F80005A60BB685B6823F00042BB685A60B9682E
:104F90007B68FA68123243F82210FB68022B0CD8A7
:104FA0007B681969FB685A1C13469B001344DB009D
:104FB0000B441A46BB68DA6004E07B681B691A463A
:104FC000BB68DA60FB680133FB60FB68032BB5D973
:104FD0007B680022DA657B6800221A667B68002203
:104FE0009A667B680022DA667B6800229A657B6895
:104FF0001A697B681B6803F58053DA6000BF1437B9
:10500000BD465DF8047B704780B489B000AF78601E
:10501000396000237B6100233B610023BB610023D7
:10502000FB616BE10122FB6902FA03F37B613B68E0
:105030001B687A6913403B613A697B699A4240F088
:105040005A813B685B6803F00303012B05D03B6882
:105050005B6803F00303022B30D17B689B68BB6164
:10506000FB695B00032202FA03F3DB43BA691340D6
:10507000BB613B68DA68FB695B0002FA03F3BA695B
:105080001343BB617B68BA699A607B685B68BB61EC
:105090000122FB6902FA03F3DB43BA691340BB61E7
:1050A0003B685B681B0903F00102FB6902FA03F32A
:1050B000BA691343BB617B68BA695A603B685B6835
:1050C00003F00303032B17D07B68DB68BB61FB692C
:1050D0005B00032202FA03F3DB43BA691340BB61AE
:1050E0003B689A68FB695B0002FA03F3BA691343F1
:1050F000BB617B68BA69DA603B685B6803F00303F5
:10510000022B23D1FB69DA087B68083253F822307E
:10511000BB61FB6903F007039B000F2202FA03F354
:10512000DB43BA691340BB613B681A69FB6903F052
:1051300007039B0002FA03F3BA691343BB61FB69DF
:10514000DA087B680832B96943F822107B681B686B
:10515000BB61FB695B00032202FA03F3DB43BA691C
:105160001340BB613B685B6803F00302FB695B00B3
:1051700002FA03F3BA691343BB617B68BA691A6028
:105180003B685B6803F44033002B00F0B4800023DD
:10519000FB60604B5B6C5F4A43F4804353645D4B40
:1051A0005B6C03F48043FB60FB685B4AFB699B0814
:1051B000023352F82330BB61FB6903F003039B0009
:1051C0000F2202FA03F3DB43BA691340BB617B6829
:1051D000524A93422BD07B68514A934225D07B6838
:1051E000504A93421FD07B684F4A934219D07B6844
:1051F0004E4A934213D07B684D4A93420DD07B6850
:105200004C4A934207D07B684B4A934201D1072313
:105210000EE008230CE006230AE0052308E004233F
:1052200006E0032304E0022302E0012300E0002360
:10523000FA6902F0030292009340BA691343BB611A
:105240003549FB699B080233BA6941F823203B4B7F
:105250009B68BB613B69DB43BA691340BB613B6838
:105260005B6803F48013002B03D0BA693B691343D6
:10527000BB61324ABB699360304BDB68BB613B6901
:10528000DB43BA691340BB613B685B6803F40013FE
:10529000002B03D0BA693B691343BB61274ABB6942
:1052A000D360264B5B68BB613B69DB43BA69134043
:1052B000BB613B685B6803F40033002B03D0BA6921
:1052C0003B691343BB611D4ABB6953601B4B1B68A1
:1052D000BB613B69DB43BA691340BB613B685B68F8
:1052E00003F48033002B03D0BA693B691343BB61DD
:1052F000124ABB691360FB690133FB61FB690F2B29
:105300007FF690AE00BF00BF2437BD465DF8047B3A
:10531000704700BF003802400038014000000240E2
:105320000004024000080240000C0240001002404D
:105330000014024000180240001C0240003C0140E2
:1053400080B483B000AF78600B467B8013467B70DF
:105350007B78002B03D07A887B689A6103E07B8896
:105360001A047B689A6100BF0C37BD465DF8047B68
:105370007047000080B584B000AF78607B68002B78
:1053800001D101232BE17B6893F83D30DBB2002B88
:1053900006D17B68002283F83C207868FCF7F0F89F
:1053A0007B68242283F83D207B681B681A687B6831
:1053B0001B6822F001021A607B681B681A687B6810
:1053C0001B6842F400421A607B681B681A687B689D
:1053D0001B6822F400421A6001F03CFDF8607B6813
:1053E0005B68814A934207D8FB68804A934294BF26
:1053F00001230023DBB206E0FB687D4A934294BFA1
:1054000001230023DBB2002B01D00123E7E0FB687E
:10541000784AA2FB03239B0CBB607B681B685B681C
:1054200023F03F017B681B68BA680A435A607B68B7
:105430001B681B6A23F03F017B685B686A4A9342E2
:1054400002D8BB68013309E0BB684FF4967202FBD7
:1054500003F3694AA2FB03239B0901337A681268AC
:105460000B4313627B681B68DB6923F44F4222F015
:10547000FF027B685B685C498B4219D8FB68591E48
:105480007B685B685B00B1FBF3F3591C40F6FC736F
:105490000B40002B0AD0FB68591E7B685B685B00E1
:1054A000B1FBF3F30133C3F30B0351E004234FE0EB
:1054B0007B689B68002B11D1FB68581E7B6859687C
:1054C0000B465B000B44B0FBF3F30133C3F30B0358
:1054D000002B0CBF01230023DBB212E0FB68581E37
:1054E0007B6859680B469B000B4499000B44B0FB4A
:1054F000F3F30133C3F30B03002B0CBF0123002391
:10550000DBB2002B01D0012322E07B689B68002BDB
:105510000ED1FB68581E7B6859680B465B000B4434
:10552000B0FBF3F30133C3F30B0343F400430FE089
:10553000FB68581E7B6859680B469B000B4499001A
:105540000B44B0FBF3F30133C3F30B0343F44043C9
:10555000796809681343CB617B681B681B6823F07B
:10556000C0017B68DA697B681B6A1A437B681B6829
:105570000A431A607B681B689B6823F4034323F08B
:10558000FF037A6811697A68D26811437A681268F1
:105590000B4393607B681B68DB6823F0FF017B682B
:1055A0005A697B689B691A437B681B680A43DA6007
:1055B0007B681B681A687B681B6842F001021A60EE
:1055C0007B6800221A647B68202283F83D207B6878
:1055D00000221A637B68002283F83E2000231846CD
:1055E0001037BD4680BD00BFA08601007F841E002D
:1055F000FF083D0083DE1B43D34D621080B588B0A9
:1056000002AFF8607A601A460B467B8113463B81F5
:10561000FEF79CFD7861FB6893F83D30DBB2202BF0
:1056200040F0E0807B690093192301227049F868FB
:1056300000F002FE0346002B01D00223D3E0FB68FA
:1056400093F83C30012B01D10223CCE0FB6801220E
:1056500083F83C20FB681B681B6803F00103012BE7
:1056600007D0FB681B681A68FB681B6842F00102E0
:105670001A60FB681B681A68FB681B6822F40062EA
:105680001A60FB68212283F83D20FB68102283F812
:105690003E20FB6800221A64FB687A685A62FB6845
:1056A0003A895A85FB685B8D9AB2FB681A85FB685C
:1056B000504ADA6279897B693A6AF86800F0BCFB83
:1056C0000346002B01D001238DE000233B61FB68E2
:1056D0001B685B693B61FB681B689B693B613B69BD
:1056E00066E07A69396AF86800F07CFE0346002BB0
:1056F0000DD0FB681B6C042B07D1FB681B681A6874
:10570000FB681B6842F400721A6001236BE0FB68BF
:105710005B6A1A78FB681B681A61FB685B6A5A1C33
:10572000FB685A62FB685B8D9BB2013B9AB2FB68D7
:105730005A85FB681B8D013B9AB2FB681A85FB6892
:105740001B685B6903F00403042B1BD1FB681B8DF2
:10575000002B17D0FB685B6A1A78FB681B681A611C
:10576000FB685B6A5A1CFB685A62FB685B8D9BB2E4
:10577000013B9AB2FB685A85FB681B8D013B9AB2CC
:10578000FB681A857A69396AF86800F06CFE03468E
:10579000002B0DD0FB681B6C042B07D1FB681B682A
:1057A0001A68FB681B6842F400721A6001231AE051
:1057B000FB681B8D002B94D1FB681B681A68FB6883
:1057C0001B6842F400721A60FB68202283F83D20B7
:1057D000FB68002283F83E20FB68002283F83C200F
:1057E000002300E0022318461837BD4680BD00BFE5
:1057F000020010000000FFFF80B588B002AFF86023
:10580000084611461A4603467B810B463B811346E8
:10581000FB80FEF79BFC7861FB6893F83D30DBB2C0
:10582000202B40F0D9807B690093192301226D4918
:10583000F86800F001FD0346002B01D00223CCE004
:10584000FB6893F83C30012B01D10223C5E0FB68D3
:10585000012283F83C20FB681B681B6803F00103EE
:10586000012B07D0FB681B681A68FB681B6842F0B5
:1058700001021A60FB681B681A68FB681B6822F447
:1058800000621A60FB68212283F83D20FB684022F9
:1058900083F83E20FB6800221A64FB683A6A5A6269
:1058A000FB68BA8C5A85FB685B8D9AB2FB681A85D7
:1058B000FB684D4ADA62F8883A8979897B690193F5
:1058C000BB6A00930346F86800F038FB0346002BE0
:1058D00052D0012381E07A69B96AF86800F082FD4C
:1058E0000346002B0DD0FB681B6C042B07D1FB6813
:1058F0001B681A68FB681B6842F400721A60012377
:105900006BE0FB685B6A1A78FB681B681A61FB68CE
:105910005B6A5A1CFB685A62FB681B8D013B9AB29A
:10592000FB681A85FB685B8D9BB2013B9AB2FB68F2
:105930005A85FB681B685B6903F00403042B1BD1C9
:10594000FB681B8D002B17D0FB685B6A1A78FB681D
:105950001B681A61FB685B6A5A1CFB685A62FB6829
:105960001B8D013B9AB2FB681A85FB685B8D9BB26D
:10597000013B9AB2FB685A85FB681B8D002BAAD1AC
:105980007A69B96AF86800F06EFD0346002B0DD005
:10599000FB681B6C042B07D1FB681B681A68FB684B
:1059A0001B6842F400721A60012316E0FB681B6852
:1059B0001A68FB681B6842F400721A60FB682022B8
:1059C00083F83D20FB68002283F83E20FB6800221C
:1059D00083F83C20002300E0022318461837BD4618
:1059E00080BD00BF020010000000FFFF80B58CB03A
:1059F00002AFF860084611461A4603467B810B4603
:105A00003B811346FB80FEF7A1FB7862FB6893F8AD
:105A10003D30DBB2202B40F008827B6A00931923D3
:105A200001227B49F86800F007FC0346002B01D0F7
:105A30000223FBE1FB6893F83C30012B01D10223E8
:105A4000F4E1FB68012283F83C20FB681B681B68BB
:105A500003F00103012B07D0FB681B681A68FB6881
:105A60001B6842F001021A60FB681B681A68FB6839
:105A70001B6822F400621A60FB68222283F83D2032
:105A8000FB68402283F83E20FB6800221A64FB6812
:105A90003A6B5A62FB68BA8E5A85FB685B8D9AB284
:105AA000FB681A85FB685B4ADA62F8883A8979896B
:105AB0007B6A0193BB6B00930346F86800F0D4FA4D
:105AC0000346002B01D00123B0E1FB681B8D002BA6
:105AD00013D100233B62FB681B685B693B62FB6878
