:020000040800F2
:1000000000000220CD330008F1250008F725000884
:10001000FD2500080326000809260008000000004E
:100020000000000000000000000000000F26000893
:100030001D260008000000002B26000839260008B5
:100040001D3400081D3400081D3400081D3400084C
:100050001D3400081D3400081D3400081D3400083C
:100060001D3400081D3400081D3400081D3400082C
:100070001D3400081D3400081D3400081D3400081C
:100080001D3400081D3400081D3400081D3400080C
:100090001D3400081D3400081D3400081D340008FC
:1000A0001D3400081D3400081D3400081D340008EC
:1000B0001D3400081D340008452600081D340008C2
:1000C0001D3400081D3400081D3400081D340008CC
:1000D0001D340008592600081D3400081D3400088E
:1000E0001D3400081D3400081D3400081D340008AC
:1000F0001D3400081D3400081D3400081D3400089C
:100100001D3400081D3400086D2600081D34000849
:100110001D3400081D3400081D3400081D3400087B
:100120001D3400081D3400081D3400081D3400086B
:100130001D3400081D3400081D3400081D3400085B
:100140001D3400081D3400081D3400081D3400084B
:100150001D3400081D3400081D3400081D3400083B
:1001600081260008952600081D3400081D3400086B
:100170001D3400081D3400081D3400080000000074
:080180001D3400081D340008C5
:1001900010B5054C237833B9044B13B10448AFF3C1
:1001A00000800123237010BDB40200200000000075
:1001B00008F4000808B5034B1BB103490348AFF32B
:1001C000008008BD00000000B802002008F400080C
:1001D000034613F8012B002AFBD1181A0138704787
:1001E00001F0FF01102A2BDB10F0070F08D010F8E8
:1001F000013B013A8B422DD010F0070F42B3F6D1EC
:10020000F0B441EA012141EA014122F007047FF004
:1002100000070023F0E80256083C85EA010586EA5B
:10022000010685FA47F5A3FA87F586FA47F6A5FA97
:1002300087F68EB9EED1F0BC01F0FF0102F00702A3
:1002400032B110F8013B013A83EA010313B1F8D14E
:100250000020704701387047002D06BF354603382F
:10026000073815F0010F07D1013015F4807F02BF68
:10027000013015F4C03F0130F0BC0138704700BFB9
:1002800081F0004102E000BF83F0004330B54FEA47
:1002900041044FEA430594EA050F08BF90EA020FB4
:1002A0001FBF54EA000C55EA020C7FEA645C7FEA47
:1002B000655C00F0E2804FEA5454D4EB5555B8BF6A
:1002C0006D420CDD2C4480EA020281EA030382EADB
:1002D000000083EA010180EA020281EA0303362D6D
:1002E00088BF30BD11F0004F4FEA01314FF4801C40
:1002F0004CEA113102D0404261EB410113F0004F52
:100300004FEA03334CEA133302D0524263EB430308
:1003100094EA050F00F0A780A4F10104D5F1200EA6
:100320000DDB02FA0EFC22FA05F2801841F1000101
:1003300003FA0EF2801843FA05F359410EE0A5F1D5
:1003400020050EF1200E012A03FA0EFC28BF4CF006
:10035000020C43FA05F3C01851EBE37101F00045BC
:1003600007D54FF0000EDCF1000C7EEB00006EEBC9
:100370000101B1F5801F1BD3B1F5001F0CD3490853
:100380005FEA30004FEA3C0C04F101044FEA4452AA
:1003900012F5800F80F09A80BCF1004F08BF5FEA31
:1003A000500C50F1000041EB045141EA050130BD11
:1003B0005FEA4C0C404141EB0101013C28BFB1F523
:1003C000801FE9D291F0000F04BF01460020B1FA6E
:1003D00081F308BF2033A3F10B03B3F120020CDA41
:1003E0000C3208DD02F1140CC2F10C0201FA0CF01F
:1003F00021FA02F10CE002F11402D8BFC2F1200C84
:1004000001FA02F120FA0CFCDCBF41EA0C01904039
:10041000E41AA2BF01EB0451294330BD6FEA040482
:100420001F3C1CDA0C340EDC04F11404C4F120026D
:1004300020FA04F001FA02F340EA030021FA04F37F
:1004400045EA030130BDC4F10C04C4F1200220FAD6
:1004500002F001FA04F340EA0300294630BD21FA14
:1004600004F0294630BD94F0000F83F4801306BFDA
:1004700081F480110134013D4EE77FEA645C18BFCE
:100480007FEA655C29D094EA050F08BF90EA020F65
:1004900005D054EA000C04BF1946104630BD91EA5D
:1004A000030F1EBF0021002030BD5FEA545C05D160
:1004B0004000494128BF41F0004130BD14F580049F
:1004C0003CBF01F5801130BD01F0004545F0FE4113
:1004D00041F470014FF0000030BD7FEA645C1ABF48
:1004E000194610467FEA655C1CBF0B46024650EA7F
:1004F000013406BF52EA033591EA030F41F40021AB
:1005000030BD00BF90F0000F04BF0021704730B530
:100510004FF4806404F132044FF000054FF0000105
:1005200050E700BF90F0000F04BF0021704730B5C6
:100530004FF4806404F1320410F0004548BF40429B
:100540004FF000013EE700BF42004FEAE2014FEAF0
:1005500031014FEA02701FBF12F07F4393F07F4FCB
:1005600081F06051704732F07F4208BF704793F0CE
:100570007F4F04BF41F40021704730B54FF46074E1
:1005800001F0004521F000411CE700BF50EA0102E4
:1005900008BF704730B54FF000050AE050EA01028D
:1005A00008BF704730B511F0004502D5404261EBFD
:1005B00041014FF4806404F132045FEA915C3FF43E
:1005C000D8AE4FF003025FEADC0C18BF03325FEADB
:1005D000DC0C18BF033202EBDC02C2F1200300FA8C
:1005E00003FC20FA02F001FA03FE40EA0E0021FAB1
:1005F00002F11444BDE600BF70B54FF0FF0C4CF49F
:10060000E06C1CEA11541DBF1CEA135594EA0C0F50
:1006100095EA0C0F00F0DEF82C4481EA030621EA8B
:100620004C5123EA4C5350EA013518BF52EA0335C6
:1006300041F4801143F4801338D0A0FB02CE4FF078
:100640000005E1FB02E506F00042E0FB03E54FF0A8
:100650000006E1FB03569CF0000F18BF4EF0010EA0
:10066000A4F1FF04B6F5007F64F5407404D25FEA9C
:100670004E0E6D4146EB060642EAC62141EA55514F
:100680004FEAC52040EA5E504FEACE2EB4F1FD0C91
:1006900088BFBCF5E06F1ED8BEF1004F08BF5FEA0F
:1006A000500E50F1000041EB045170BD06F00046C1
:1006B00046EA010140EA020081EA0301B4EB5C046E
:1006C000C2BFD4EB0C0541EA045170BD41F4801166
:1006D0004FF0000E013C00F3AB8014F1360FDEBF8B
:1006E000002001F0004170BDC4F10004203C35DA67
:1006F0000C341BDC04F11404C4F1200500FA05F3EA
:1007000020FA04F001FA05F240EA020001F000428A
:1007100021F0004110EBD37021FA04F642EB060100
:100720005EEA430E08BF20EAD37070BDC4F10C042A
:10073000C4F1200500FA04F320FA05F001FA04F2EE
:1007400040EA020001F0004110EBD37041F10001DA
:100750005EEA430E08BF20EAD37070BDC4F12005E5
:1007600000FA05F24EEA020E20FA04F301FA05F24D
:1007700043EA020321FA04F001F0004121FA04F2F5
:1007800020EA020000EBD3705EEA430E08BF20EAC5
:10079000D37070BD94F0000F0FD101F000464000FF
:1007A00041EB010111F4801F08BF013CF7D041EA81
:1007B000060195F0000F18BF704703F00046520085
:1007C00043EB030313F4801F08BF013DF7D043EA56
:1007D0000603704794EA0C0F0CEA135518BF95EA0C
:1007E0000C0F0CD050EA410618BF52EA4306D1D193
:1007F00081EA030101F000414FF0000070BD50EAB2
:10080000410606BF1046194652EA430619D094EA3B
:100810000C0F02D150EA013613D195EA0C0F05D125
:1008200052EA03361CBF104619460AD181EA030179
:1008300001F0004141F0FE4141F470014FF0000031
:1008400070BD41F0FE4141F4780170BD70B54FF0CC
:10085000FF0C4CF4E06C1CEA11541DBF1CEA13554C
:1008600094EA0C0F95EA0C0F00F0A7F8A4EB05042E
:1008700081EA030E52EA03354FEA013100F0888025
:100880004FEA03334FF0805545EA131343EA1263EE
:100890004FEA022245EA111545EA10654FEA0026A3
:1008A0000EF000419D4208BF964244F1FD0404F55C
:1008B000407402D25B084FEA3202B61A65EB0305B8
:1008C0005B084FEA32024FF480104FF4002CB6EB75
:1008D000020E75EB030E22BFB61A754640EA0C00F5
:1008E0005B084FEA3202B6EB020E75EB030E22BF35
:1008F000B61A754640EA5C005B084FEA3202B6EB76
:10090000020E75EB030E22BFB61A754640EA9C0034
:100910005B084FEA3202B6EB020E75EB030E22BF04
:10092000B61A754640EADC0055EA060E18D04FEAC2
:10093000051545EA16754FEA06164FEAC30343EA62
:1009400052734FEAC2025FEA1C1CC0D111F4801F2F
:100950000BD141EA00014FF000004FF0004CB6E728
:1009600011F4801F04BF01430020B4F1FD0C88BFC7
:10097000BCF5E06F3FF6AFAEB5EB030C04BFB6EBD2
:10098000020C5FEA500C50F1000041EB045170BDC5
:100990000EF0004E4EEA113114EB5C04C2BFD4EBF2
:1009A0000C0541EA045170BD41F480114FF0000E76
:1009B000013C90E645EA060E8DE60CEA135594EAF2
:1009C0000C0F08BF95EA0C0F3FF43BAF94EA0C0FF5
:1009D0000AD150EA01347FF434AF95EA0C0F7FF46A
:1009E00025AF104619462CE795EA0C0F06D152EABE
:1009F00003353FF4FDAE1046194622E750EA4106A2
:100A000018BF52EA43067FF4C5AE50EA41047FF4B2
:100A10000DAF52EA43057FF4EBAE12E74FF0FF3C17
:100A200006E000BF4FF0010C02E000BF4FF0010CE8
:100A30004DF804CD4FEA410C7FEA6C5C4FEA430C61
:100A400018BF7FEA6C5C1BD001B050EA410C0CBFB0
:100A500052EA430C91EA030F02BF90EA020F002012
:100A6000704710F1000F91EA030F58BF994208BF79
:100A700090422CBFD8176FEAE37040F00100704736
:100A80004FEA410C7FEA6C5C02D150EA013C07D18D
:100A90004FEA430C7FEA6C5CD6D152EA033CD3D0D8
:100AA0005DF8040B704700BF8446104662468C46D2
:100AB0001946634600E000BF01B5FFF7B7FF002805
:100AC00048BF10F1000F01BD4DF808EDFFF7F4FF2E
:100AD0000CBF012000205DF808FB00BF4DF808EDB9
:100AE000FFF7EAFF34BF012000205DF808FB00BFDC
:100AF0004DF808EDFFF7E0FF94BF012000205DF8FE
:100B000008FB00BF4DF808EDFFF7CEFF94BF0120B2
:100B100000205DF808FB00BF4DF808EDFFF7C4FFAB
:100B200034BF012000205DF808FB00BF4FEA410CF4
:100B30007FEA6C5C02D150EA013C0AD14FEA430CD7
:100B40007FEA6C5C02D152EA033C02D14FF0000014
:100B500070474FF0010070474FEA410212F5001252
:100B600015D211D56FF47873B3EB625212D94FEAF4
:100B7000C12343F0004343EA505311F0004F23FADE
:100B800002F018BF404270474FF00000704750EA33
:100B9000013005D111F0004008BF6FF000407047F0
:100BA0004FF00000704700BF4A0011D212F500124A
:100BB00011D20DD56FF47873B3EB62520ED44FEAB5
:100BC000C12343F0004343EA505323FA02F0704735
:100BD0004FF00000704750EA013002D14FF0FF3073
:100BE00070474FF0000070474FEA4102B2F1E04316
:100BF00024BFB3F5001CDCF1FE5C0DD901F0004C04
:100C00004FEAC0024CEA5070B2F1004F40EB830053
:100C100008BF20F00100704711F0804F21D113F17F
:100C20003872BCBF01F00040704741F480114FEAB8
:100C30005252C2F11802C2F1200C10FA0CF320FA41
:100C400002F018BF40F001004FEAC1234FEAD3235E
:100C500003FA0CFC40EA0C0023FA02F34FEA4303C8
:100C6000CCE77FEA625307D150EA01331EBF4FF051
:100C7000FE4040F44000704701F0004040F0FE406C
:100C800040F40000704700BF53B94AB9002908BFBB
:100C900000281CBF4FF0FF314FF0FF3000F0AAB921
:100CA000ADF1080C6DE904CE00F03CF8DDF804E08D
:100CB000DDE9022304B0704738B500220023044662
:100CC0000D46FFF70BFF28B920462946BDE83840FE
:100CD00000F00AB8204605F1004100F005F8404256
:100CE00061EB410138BD00BFD0B50C4B0022064678
:100CF0000F46FFF781FCFFF757FF0446FFF702FCA2
:100D0000074B0022FFF778FC02460B463046394677
:100D1000FFF7BAFAFFF748FF2146D0BD0000F03DCB
:100D20000000F0412DE9F047089D04468E46002B57
:100D30004DD18A42944669D9B2FA82F252B101FA8F
:100D400002F3C2F1200120FA01F10CFA02FC41EA9F
:100D5000030E94404FEA1C48210CBEFBF8F61FFA24
:100D60008CF708FB16E341EA034306FB07F19942BF
:100D70000AD91CEB030306F1FF3080F01F81994272
:100D800040F21C81023E63445B1AA4B2B3FBF8F04C
:100D900008FB103344EA034400FB07F7A7420AD9D3
:100DA0001CEB040400F1FF3380F00A81A74240F2FB
:100DB00007816444023840EA0640E41B00261DB166
:100DC000D4400023C5E900433146BDE8F0878B429B
:100DD00009D9002D00F0EF800026C5E9000130465A
:100DE0003146BDE8F087B3FA83F6002E4AD18B4234
:100DF00002D3824200F2F980841A61EB03030120DE
:100E00009E46002DE0D0C5E9004EDDE702B9FFDEC9
:100E1000B2FA82F2002A40F09280A1EB0C014FEA74
:100E20001C471FFA8CFE0126200CB1FBF7F307FBD1
:100E3000131140EA01410EFB03F0884208D91CEB74
:100E4000010103F1FF3802D2884200F2CB80434611
:100E5000091AA4B2B1FBF7F007FB101144EA0144F0
:100E60000EFB00FEA64508D91CEB040400F1FF317F
:100E700002D2A64500F2BB800846A4EB0E0440EA6D
:100E800003409CE7C6F12007B34022FA07FC4CEA76
:100E9000030C20FA07F401FA06F31C43F9404FEA69
:100EA0001C4900FA06F3B1FBF9F8200C1FFA8CFE7E
:100EB00009FB181140EA014108FB0EF0884202FAD2
:100EC00006F20BD91CEB010108F1FF3A80F0888093
:100ED000884240F28580A8F102086144091AA4B250
:100EE000B1FBF9F009FB101144EA014100FB0EFED1
:100EF0008E4508D91CEB010100F1FF346CD28E4500
:100F00006AD90238614440EA0840A0FB0294A1EB90
:100F10000E01A142C846A64656D353D05DB1B3EBED
:100F2000080261EB0E0101FA07F722FA06F3F1401D
:100F30001F43C5E9007100263146BDE8F087C2F1C4
:100F40002003D8400CFA02FC21FA03F3914001433C
:100F50004FEA1C471FFA8CFEB3FBF7F007FB103675
:100F60000B0C43EA064300FB0EF69E4204FA02F421
:100F700008D91CEB030300F1FF382FD29E422DD974
:100F8000023863449B1B89B2B3FBF7F607FB1633A9
:100F900041EA034106FB0EF38B4208D91CEB010129
:100FA00006F1FF3816D28B4214D9023E6144C91AA9
:100FB00046EA004638E72E46284605E70646E3E6B9
:100FC0001846F8E64B45A9D2B9EB020864EB0C0EC3
:100FD0000138A3E74646EAE7204694E74046D1E7D2
:100FE000D0467BE7023B614432E7304609E7644480
:100FF000023842E7704700BF80B584B000AF3B467F
:1010000000221A605A609A60DA60214B214A1A6005
:101010001F4B4FF480325A601D4B00229A601C4BCC
:1010200000221A611A4B00221A76194B002283F80B
:101030002020174B0022DA62154B174A9A62144B94
:101040000022DA60124B0122DA61114B002283F890
:1010500030200F4B01225A610D4802F077FA034607
:10106000002B01D000F082FC05233B6001237B6054
:101070000023BB603B461946054802F0ABFA034625
:10108000002B01D000F072FC00BF1037BD4680BDC0
:10109000D0020020002001400100000F80B58AB07E
:1010A00000AF786007F1140300221A605A609A605A
:1010B000DA601A617B681B68174A934227D10023C4
:1010C0003B61164B5B6C154A43F480735364134BBE
:1010D0005B6C03F480733B613B690023FB600F4B47
:1010E0001B6B0E4A43F0010313630C4B1B6B03F0A5
:1010F0000103FB60FB6820237B610323BB610023AA
:10110000FB6107F114031946054803F05BF900BFC2
:101110002837BD4680BD00BF002001400038024096
:101120000000024080B500AF1F4B204A1A60204BE0
:1011300000221A701E4B80225A701D4BE1229A70B9
:101140001B4B0022DA701A4B00221A71184B002236
:101150005A71154B164A5A60134B4FF400029A60AD
:10116000114B144ADA60104B134A1A610E4B40F2CD
:10117000F4525A610C4802F0FDFD0346002B01D0E9
:1011800000F0F4FB382200210C4809F023FB0B4B44
:1011900021221A60094B4FF440025A61074B00228A
:1011A0001A6100BF80BD00BF900400200080024093
:1011B00040050020B8030020180300205804002038
:1011C00080B58EB000AF786007F1240300221A606A
:1011D0005A609A60DA601A617B681B68464A9342DB
:1011E00040F0858000233B62444B1B6B434A43F035
:1011F00000731363414B1B6B03F000733B623B6A4C
:101200000023FB613D4B1B6B3C4A43F0806313633F
:101210003A4B1B6B03F08063FB61FB690023BB61EE
:10122000364B1B6B354A43F000631363334B1B6B28
:1012300003F00063BB61BB6900237B612F4B1B6B19
:101240002E4A43F0040313632C4B1B6B03F004037F
:101250007B617B6900233B61284B1B6B274A43F072
:1012600001031363254B1B6B03F001033B613B69D7
:101270000023FB60214B1B6B204A43F002031363E6
:101280001E4B1B6B03F00203FB60FB6832237B6287
:101290000223BB620023FB6203233B630B237B63BC
:1012A00007F124031946164803F08CF886237B6265
:1012B0000223BB620023FB6203233B630B237B639C
:1012C00007F1240319460F4803F07CF84FF46053EC
:1012D0007B620223BB620023FB6203233B630B237D
:1012E0007B6307F124031946074803F06BF800BF3E
:1012F0003837BD4680BD00BF008002400038024044
:1013000000080240000002400004024080B58CB09A
:1013100000AF07F11C0300221A605A609A60DA607D
:101320001A610023BB61634B1B6B624A43F01003DD
:101330001363604B1B6B03F01003BB61BB6900239D
:101340007B615C4B1B6B5B4A43F080031363594B1F
:101350001B6B03F080037B617B6900233B61554B72
:101360001B6B544A43F004031363524B1B6B03F093
:1013700004033B613B690023FB604E4B1B6B4D4AF2
:1013800043F0010313634B4B1B6B03F00103FB6042
:10139000FB680023BB60474B1B6B464A43F00203CC
:1013A0001363444B1B6B03F00203BB60BB68002359
:1013B0007B60404B1B6B3F4A43F0080313633D4B7C
:1013C0001B6B03F008037B607B6800224FF69B7168
:1013D000394803F093F900224FF40161374803F0D4
:1013E0008DF900224CF20301354803F087F9002201
:1013F00043F61B71334803F081F94FF69B73FB6191
:1014000001233B6200237B620023BB6207F11C03C4
:101410001946294802F0D6FF1023FB6101233B62E5
:1014200002237B620023BB6207F11C031946234899
:1014300002F0C8FF4CF20303FB6101233B6200236F
:101440007B620023BB6207F11C0319461C4802F0B3
:10145000B9FF43F61B73FB6101233B6200237B62F0
:101460000023BB6207F11C031946164802F0AAFFCD
:101470004FF44043FB614FF488133B6200237B62CF
:1014800007F11C0319460F4802F09CFF4FF400635C
:10149000FB6101233B6200237B620023BB6207F1F7
:1014A0001C031946054802F08DFF00BF3037BD46CA
:1014B00080BD00BF00380240001002400000024022
:1014C00000040240000C024080B500AF124B134AEA
:1014D0001A60114B124A5A600F4B00229A600E4B51
:1014E0000022DA600C4B4FF480421A610A4B002252
:1014F0005A61094B00229A61074B0022DA61064BC0
:1015000000221A62044803F02DF90346002B01D093
:1015100000F02CFA00BF80BD4805002000540040B8
:10152000A086010080B500AF124B134A1A60114B20
:10153000124A5A600F4B00229A600E4B0022DA606A
:101540000C4B4FF480421A610A4B00225A61094B3E
:1015500000229A61074B0022DA61064B00221A62D0
:10156000044803F0FFF80346002B01D000F0FEF919
:1015700000BF80BD9C050020005C0040A0860100EB
:1015800080B58CB000AF786007F11C0300221A60B0
:101590005A609A60DA601A617B681B684A4A934213
:1015A0002CD10023BB61494B1B6B484A43F002031B
:1015B0001363464B1B6B03F00203BB61BB69C02383
:1015C000FB6112233B6200237B620323BB62042383
:1015D000FB6207F11C0319463D4802F0F3FE0023AD
:1015E0007B613A4B1B6C394A43F400131364374B4D
:1015F0001B6C03F400137B617B6960E07B681B68F4
:10160000344A93425BD100233B61304B1B6B2F4A22
:1016100043F0040313632D4B1B6B03F004033B6186
:101620003B690023FB60294B1B6B284A43F00103F5
:101630001363264B1B6B03F00103FB60FB684FF445
:101640000073FB6112233B6200237B620323BB62B6
:101650000423FB6207F11C0319461F4802F0B2FE87
:101660004FF48073FB6112233B6200237B620323F0
:10167000BB620423FB6207F11C031946174802F002
:10168000A1FE0023BB60114B1B6C104A43F4000306
:1016900013640E4B1B6C03F40003BB60BB68002299
:1016A0000021482002F08FFA482002F0A8FA002218
:1016B0000021492002F087FA492002F0A0FA00BF79
:1016C0003037BD4680BD00BF0054004000380240A6
:1016D00000040240005C004000080240000002409C
:1016E00080B582B000AF7860391D4FF6FF730122DC
:1016F000034808F07EF87B6818460837BD4680BD71
:10170000540900202DE9B04384B004AF01F088FEF5
:1017100000F0ACF8FFF7FAFDFFF76EFCFFF702FDF3
:10172000FFF7D2FEFFF7FEFE00F030FE00F064FE91
:1017300001F0E2F801F034F901F086F901F04EFA17
:1017400001F0F8FA01F00EFD01F036FD01F084F829
:1017500001F0F6F901F0E0FD364B6C4603F11002A2
:1017600007CA84E807000FCB01F0E4FC00213248EF
:1017700006F00CFC0421304806F008FC3C212F4800
:1017800006F0EAFE3C212E4806F0E6FE2D4806F063
:10179000E4FA2C4806F030FB2B4802F0E3FF2B481C
:1017A00000F0B4FD294800F041F9284800F0E4F8C1
:1017B0000121274800F0CAFD0121264800F0C6FD9E
:1017C0000A2309222449254808F013F8244B1B78E2
:1017D000012BFBD11D4800F035FB1C4800F084FBB9
:1017E0001A4B9B6C1846FEF7AFFE80468946174B96
:1017F000DB6C1846FEF7A8FE04460D46134B1B6D26
:101800001846FEF7A1FE02460B46CDE90223CDE9BC
:10181000004542464B461349134809F063FE0A232C
:10182000782211490D4807F0E4FF0D4B00221A7091
:10183000CCE700BF54F40008C4080020EC070020E7
:10184000A40700207C0800209C0500200000002048
:1018500074000020A400002020F400085409002097
:10186000F00500202CF40008F405002080B594B0A9
:1018700000AF07F1200330220021184608F0AAFF2C
:1018800007F10C0300221A605A609A60DA601A614C
:101890000023BB60284B1B6C274A43F08053136422
:1018A000254B1B6C03F08053BB60BB6800237B603F
:1018B000224B1B68214A43F4804313601F4B1B6873
:1018C00003F480437B607B6801233B624FF48033E9
:1018D0007B620223BB634FF48003FB6319233B64E9
:1018E0004FF4A8737B640223BB640423FB6407F1F9
:1018F0002003184605F050FD0346002B01D000F0F0
:1019000035F80F23FB6002233B6100237B614FF41A
:10191000A053BB614FF48053FB6107F10C03052119
:10192000184605F0B1FF0346002B01D000F01EF869
:1019300000BF5037BD4680BD0038024000700040F7
:1019400080B483B000AF78607B68064A934202D1CE
:10195000054B01221A7000BF0C37BD465DF8047BB1
:10196000704700BF7C080020F005002080B400AF65
:1019700072B600BFFEE7000080B586B004AF7860A5
:101980000121786800F070FA7B6818680A230093D8
:1019900001233C223C2103F029F8234B10221A702A
:1019A0007B6818680A230293012301931E4B00935E
:1019B000012300223C2103F017F97B6818680A23F1
:1019C000009301233C223C2103F010F8164BE02247
:1019D0001A707B6818680A23029301230193124B43
:1019E0000093012301223C2103F0FEF87B68186874
:1019F0000A23009301233C223C2102F0F7FF7B687D
:101A000018680A2302930123019301230093012301
:101A100002223C2103F0E8F80A2001F073FD00BF28
:101A20000837BD4680BD00BF6C06002080B588B079
:101A300004AF78600021786800F016FA7B681868B7
:101A40000A230293012301937A4B00930123752209
:101A5000D02103F0C3F9774B1B78682B3FD1764B2D
:101A600000221A707B6818680A23029301230193ED
:101A7000714B009301236B22D02103F0B5F86E4B1C
:101A800007221A707B6818680A23029301230193C6
:101A9000694B009301231922D02103F0A5F8664B6E
:101AA00000221A707B6818680A23029301230193AD
:101AB000614B009301231C22D02103F095F85E4B6B
:101AC00000221A707B6818680A230293012301938D
:101AD000594B009301231B22D02103F085F87B682A
:101AE0004FF000025A607B684FF000029A607B68FA
:101AF0004FF00002DA600023FB602CE0786800F011
:101B0000A1F9786800F0F0F97B6893ED127A4B4BFD
:101B1000D3ED007A77EE277A484BC3ED007A7B68E5
:101B200093ED137A464BD3ED007A77EE277A444B48
:101B3000C3ED007A7B6893ED147A424BD3ED007AC3
:101B400077EE277A3F4BC3ED007A0A2001F0DAFCEA
:101B5000FB680133FB60FB68B3F5FA7FCEDB4FF423
:101B60008061394802F0E3FD642001F0CBFC4FF4C2
:101B70008061354802F0DBFD642001F0C3FC4FF4C6
:101B80008061314802F0D3FD642001F0BBFC4FF4CA
:101B900080612D4802F0CBFD642001F0B3FC4FF4CE
:101BA0008061294802F0C3FD642001F0ABFC4FF4D2
:101BB0008061254802F0BBFD642001F0A3FC1F4BAF
:101BC00093ED007ADFED216AC7EE267A7B68C3EDDC
:101BD000017A1B4B93ED007ADFED1C6AC7EE267A83
:101BE0007B68C3ED027A174B93ED007ADFED176A3D
:101BF000C7EE267A7B68C3ED037A154B4FF00002DF
:101C00001A60144B4FF000021A60134B4FF00002A1
:101C10001A60124B4FF000021A60114B4FF0000295
:101C20001A60104B4FF000021A6000BF1037BD461B
:101C300080BD00BF6D0600206C0600209C060020C1
:101C4000A0060020A4060020000C02400000FA4379
:101C500090060020940600209806002084060020AC
:101C6000880600208C06002080B586B004AF78601E
:101C70000021786800F0F8F87B6818680A2302935E
:101C800006230193294B009301233B22D02103F02B
:101C9000A5F8264B1B781B021AB2244B5B781BB2AB
:101CA00013431AB27B68A3F85420204B9B781B0285
:101CB0001AB21E4BDB781BB213431AB27B68A3F82F
:101CC00056201A4B1B791B021AB2184B5B791BB2B8
:101CD00013431AB27B68A3F858207B68B3F95430D9
:101CE000002B00DA0F331B111AB27B68A3F85420C3
:101CF0007B68B3F95630002B00DA0F331B111AB290
:101D00007B68A3F856207B68B3F95830084A82FBF9
:101D100003121A44D210DB17D31A1AB27B68A3F845
:101D2000582000BF0837BD4680BD00BF70060020A8
:101D3000932449920000000080B586B004AF78601B
:101D40000021786800F090F87B6818680A230293F5
:101D5000062301933A4B009301234322D02103F041
:101D60003DF8374B1B781B021AB2354B5B781BB220
:101D700013431AB27B68A3F85A20314B9B781B029D
:101D80001AB22F4BDB781BB213431AB27B68A3F84D
:101D90005C202B4B1B791B021AB2294B5B791BB2BF
:101DA00013431AB27B68A3F85E207B68B3F95A30FC
:101DB0001846FEF7B7FB20A3D3E90023FEF746FD44
:101DC00002460B4610461946FEF7C6FE03461AB2F7
:101DD0007B68A3F85A207B68B3F95C301846FEF79D
:101DE000A1FB15A3D3E90023FEF730FD02460B4605
:101DF00010461946FEF7B0FE03461AB27B68A3F8F8
:101E00005C207B68B3F95E301846FEF78BFB0AA3B3
:101E1000D3E90023FEF71AFD02460B461046194689
:101E2000FEF79AFE03461AB27B68A3F85E2000BF55
:101E30000837BD4680BD00BFF853E3A59BC4C03F33
:101E40007006002080B582B000AF7860002178680D
:101E500000F00AF87868FFF707FF7868FFF76CFF73
:101E600000BF0837BD4680BD80B586B004AF78603E
:101E70000B46FB701A4B00221A707B6818680A2305
:101E8000029301230193164B009301236A22D02170
:101E900002F0AAFEFB785B00DAB2114B1A707B6885
:101EA00018680A230293012301930D4B0093012329
:101EB0003722D02102F098FE094B00221A707B686D
:101EC00018680A23029301230193054B0093012311
:101ED0006B22D02102F088FE00BF0837BD4680BDCE
:101EE0006C0600200000000080B58AB000AF78606A
:101EF00000217868FFF7B8FFDD4B7B62DD4BD3ED47
:101F0000007A9FEDDD7A27EE877A7B68B3F954304B
:101F100007EE903AF8EEE77ADFEDD86A67EEA66A48
:101F20009FEDD76AC6EE867A77EE277AD54BC3ED5A
:101F3000007AD54BD3ED007A9FEDCF7A27EE877AE2
:101F40007B68B3F9563007EE903AF8EEE77ADFEDAA
:101F5000CB6A67EEA66A9FEDCA6AC6EE867A77EE0E
:101F6000277ACA4BC3ED007AC94BD3ED007A9FEDB7
:101F7000C27A27EE877A7B68B3F9583007EE903A39
:101F8000F8EEE77ADFEDBD6A67EEA66A9FEDBC6A00
:101F9000C6EE867A77EE277ABE4BC3ED007AB94B50
:101FA00093ED007AB74BD3ED007A27EE277AB74B43
:101FB000D3ED006AB54BD3ED007A66EEA77A37EE23
:101FC000277AB44BD3ED006AB24BD3ED007A66EEBC
:101FD000A77A77EE277AB0EE670A0DF077F887EDEB
:101FE000080AA84BD3ED006A97ED087AC6EE877A07
:101FF000A44BC3ED007AA54BD3ED006A97ED087AA8
:10200000C6EE877AA14BC3ED007AA24BD3ED006AEE
:1020100097ED087AC6EE877A9E4BC3ED007A9B4B0C
:10202000D3ED007A9B4B93ED007AF0EE470AB0EEC9
:10203000670A0DF049F810EE103A1846FEF784FAD8
:1020400089A3D3E90023FEF7D7FA02460B461046D0
:102050001946FEF7C9FD0346FB618A4BD3ED007AB2
:102060008C4B93ED007AF0EE470AB0EE670A0DF064
:102070002BF810EE103A1846FEF766FA7AA3D3E969
:102080000023FEF7B9FA02460B4610461946FEF742
:10209000ABFD0346BB617D4BD3ED007A794B93EDED
:1020A000007AF0EE470AB0EE670A0DF00DF810EE78
:1020B000103A1846FEF748FA6BA3D3E90023FEF75F
:1020C0009BFA02460B4610461946FEF78DFD034665
:1020D0007B61714BD3ED007A9FED677A27EE877AAB
:1020E0007B68B3F95A3007EE903AF8EEE77ADFED05
:1020F000636A67EEA66A9FED626AC6EE867A77EE3D
:10210000277AC7ED047A654BD3ED007A9FED5A7AB2
:1021100027EE877A7B68B3F95C3007EE903AF8EEE9
:10212000E77ADFED566A67EEA66A9FED556AC6EE5E
:10213000867A77EE277AC7ED037A594BD3ED007A8A
:102140009FED4D7A27EE877A7B68B3F95E3007EE14
:10215000903AF8EEE77ADFED496A67EEA66A9FEDFE
:10216000486AC6EE867A77EE277AC7ED027A7B68F0
:1021700093ED047AD7ED046AD7ED097A66EEA77A73
:1021800077EE277A7B68C3ED047A7B6893ED057A56
:10219000D7ED036AD7ED097A66EEA77A77EE677A0C
:1021A0007B68C3ED057A7B6893ED067AD7ED026A0A
:1021B000D7ED097A66EEA77A77EE277A7B68C3EDCA
:1021C000067A7B68D3ED047A9FED2B7A27EE877A27
:1021D000D7ED077ADFED296A67EEA67A77EE277AE0
:1021E0007B68C3ED047A7B68D3ED057A9FED227A94
:1021F00027EE877AD7ED067ADFED206A67EEA67ABA
:1022000077EE677A7B68C3ED057A7B68D3ED067A53
:102210009FED197A27EE877AD7ED057ADFED176AF9
:1022200067EEA67A77EE277A7B68C3ED067A7B683D
:1022300093ED047A7B68D3ED017A77EE677A7B6859
:10224000C3ED127A7B6893ED057A7B68D3ED027A51
:1022500077EE677A7B68C3ED137A7B6893ED067A35
:1022600020E000BFAFF30080F8C1631ADCA54C404A
:102270000AD7233C900600206666663FD0CCCC3D52
:1022800000007A4478060020940600207C06002096
:102290009806002080060020840600208806002082
:1022A0008C0600207B68D3ED037A77EE677A7B6833
:1022B000C3ED147A0C4B1B680C4A13600C4B1B6863
:1022C0000C4A13600C4B1B680C4A13600C4A3B69A8
:1022D00013600C4AFB6813600B4ABB68136000BFB5
:1022E0002837BD4680BD00BF78060020900600203C
:1022F0007C0600209406002080060020980600201E
:1023000084060020880600208C06002080B483B05C
:1023100000AF78607B68DB691B6800225A627B68CB
:10232000DB6A1B6800225A627B6800221A857B6880
:1023300000221A877B6800225A857B6800225A8710
:1023400000BF0C37BD465DF8047B704780B483B096
:1023500000AF78600B46FB707B68FA7883F8252025
:102360007B684FF00002DA617B684FF000025A612F
:102370007B684FF000021A627B68002283F82420F9
:1023800000BF0C37BD465DF8047B704780B500AFD9
:10239000174B184A1A60164B4FF482725A60144B4E
:1023A00000229A60124B0022DA60114B00221A615F
:1023B0000F4B00225A610E4B4FF400729A610C4B86
:1023C0000022DA610A4B00221A62094B00225A628B
:1023D000074B00229A62064B0A22DA62044805F093
:1023E00033FC0346002B01D0FFF7C0FA00BF80BDCD
:1023F000A80600200038004080B500AF174B184AEF
:102400001A60164B4FF482725A60144B00229A6085
:10241000124B0022DA60114B00221A610F4B00228E
:102420005A610E4B4FF400729A610C4B0022DA6134
:102430000A4B00221A62094B00225A62074B002203
:102440009A62064B0A22DA62044805F0FDFB034655
:10245000002B01D0FFF78AFA00BF80BD00070020E3
:10246000003C004080B58CB000AF786007F11C03E1
:1024700000221A605A609A60DA601A617B681B68F1
:10248000424A93424BD10023BB61414B1B6C404AF3
:1024900043F4804313643E4B1B6C03F48043BB61E5
:1024A000BB6900237B613A4B1B6B394A43F0040341
:1024B0001363374B1B6B03F004037B617B690023C1
:1024C0003B61334B1B6B324A43F002031363304BC7
:1024D0001B6B03F002033B613B690C23FB6102238E
:1024E0003B6200237B620323BB620523FB6207F18F
:1024F0001C031946274801F065FF4FF48063FB6118
:1025000002233B6200237B620323BB620523FB6241
:1025100007F11C031946204801F054FF31E07B68A5
:102520001B681E4A93422CD10023FB60184B1B6C86
:10253000174A43F400431364154B1B6C03F4004328
:10254000FB60FB680023BB60114B1B6B104A43F020
:10255000040313630E4B1B6B03F00403BB60BB68E7
:102560004FF4E053FB6102233B6200237B620323B1
:10257000BB620623FB6207F11C031946054801F004
:1025800021FF00BF3037BD4680BD00BF003800408E
:10259000003802400008024000040240003C0040B5
:1025A00080B483B000AF00237B60104B5B6C0F4A9C
:1025B00043F4804353640D4B5B6C03F480437B60B6
:1025C0007B6800233B60094B1B6C084A43F0805337
:1025D0001364064B1B6C03F080533B603B6800BFE9
:1025E0000C37BD465DF8047B704700BF00380240E1
:1025F00080B400AFFEE780B400AFFEE780B400AF68
:10260000FEE780B400AFFEE780B400AFFEE780B421
:1026100000AF00BFBD465DF8047B704780B400AFDB
:1026200000BFBD465DF8047B704780B400AF00BFBB
:10263000BD465DF8047B704780B500AF00F042FFF7
:1026400000BF80BD80B500AF024806F013F800BFA0
:1026500080BD00BF3408002080B500AF024807F0FD
:102660005BF900BF80BD00BF5409002080B500AFFA
:10267000024805F0FFFF00BF80BD00BF7C080020BE
:1026800080B500AF024802F0CFFD00BF80BD00BFA3
:102690009C05002080B500AF024802F036FF00BF65
:1026A00080BD00BF9C05002080B400AF0123184608
:1026B000BD465DF8047B704780B582B000AF78609E
:1026C000396008F05DF8034616221A604FF0FF33B8
:1026D00018460837BD4680BD80B582B000AF78602F
:1026E0004FF0FF317868FFF7E7FFFEE780B586B06F
:1026F00000AFF860B9607A6000237B610AE0AFF355
:1027000000800146BB685A1CBA60CAB21A707B6965
:1027100001337B617A697B689A42F0DB7B681846FB
:102720001837BD4680BD80B586B000AFF860B9608F
:102730007A6000237B6109E0BB685A1CBA601B7891
:102740001846FEF7CDFF7B6901337B617A697B68B0
:102750009A42F1DB7B6818461837BD4680BD80B4CD
:1027600083B000AF78604FF0FF3318460C37BD469A
:102770005DF8047B704780B483B000AF7860396047
:102780003B684FF400525A60002318460C37BD4690
:102790005DF8047B704780B483B000AF786001239C
:1027A00018460C37BD465DF8047B704780B485B091
:1027B00000AFF860B9607A60002318461437BD4650
:1027C0005DF8047B7047000080B586B000AF78608C
:1027D000144A154BD31A7B617B693B61134B1B6811
:1027E000002B02D1114B124A1A60104B1A687B68F9
:1027F00013443A699A4207D207F0C2FF03460C22FB
:102800001A604FF0FF3309E0084B1B68FB60074B71
:102810001A687B681344054A1360FB68184618372A
:10282000BD4680BD000002200004000058070020C3
:10283000F009002080B400AF064BD3F88830054A79
:1028400043F47003C2F8883000BFBD465DF8047BD6
:10285000704700BF00ED00E080B586B000AF07F123
:10286000080300221A605A609A60DA603B46002230
:102870001A605A601E4B1F4A1A601D4BA7225A60ED
:102880001B4B00229A601A4B4FF6FF72DA60184B0E
:1028900000221A61164B00225A61154B00229A61E0
:1028A000134805F05AFA0346002B01D0FFF75EF8F3
:1028B0004FF48053BB6007F1080319460C4806F03B
:1028C0003FF90346002B01D0FFF750F800233B608F
:1028D00000237B603B461946054806F05BFE034635
:1028E000002B01D0FFF742F800BF1837BD4680BD6E
:1028F0005C0700200000014080B58CB000AF07F1FC
:102900000C0324220021184607F064FF3B1D00221F
:102910001A605A60214B4FF080421A601F4B002210
:102920005A601E4B00229A601C4B4BF64072DA60D4
:102930001A4B00221A61194B80229A610323FB6013
:1029400002233B6101237B610023BB610A23FB61FE
:1029500000233B6201237B620023BB620A23FB62EC
:1029600007F10C0319460D4805F050FD0346002BF6
:1029700001D0FEF7FBFF00237B600023BB603B1D03
:102980001946064806F006FE0346002B01D0FEF766
:10299000EDFF00BF3037BD4680BD00BFA40700205B
:1029A00080B58CB000AF07F10C032422002118463B
:1029B00007F010FF3B1D00221A605A60204B214A8D
:1029C0001A601F4B00225A601D4B00229A601C4B5C
:1029D0004BF64072DA601A4B00221A61184B8022C3
:1029E0009A610323FB6000233B6101237B61002389
:1029F000BB610A23FB6100233B6201237B6200234E
:102A0000BB620A23FB6207F10C0319460C4805F070
:102A1000FDFC0346002B01D0FEF7A8FF00237B60DE
:102A20000023BB603B1D1946054806F0B3FD034675
:102A3000002B01D0FEF79AFF00BF3037BD4680BDA6
:102A4000EC0700200004004080B58AB000AF07F119
:102A5000180300221A605A609A60DA6007F11003C6
:102A600000221A605A603B4600221A605A609A603F
:102A7000DA60314B314A1A602F4B00225A602E4BDC
:102A800000229A602C4B4FF6FF72DA602A4B00222C
:102A90001A61294B00229A61274805F05EF9034626
:102AA000002B01D0FEF762FF4FF48053BB6107F1AA
:102AB00018031946204806F043F80346002B01D0BE
:102AC000FEF754FF1C4805F029FB0346002B01D0FC
:102AD000FEF74CFF00233B6100237B6107F11003ED
:102AE0001946154806F056FD0346002B01D0FEF7A7
:102AF0003DFF00233B6001237B600023BB6000237C
:102B0000FB603B46082219460B4805F0BBFE034616
:102B1000002B01D0FEF72AFF3B460C22194606483F
:102B200005F0B0FE0346002B01D0FEF71FFF00BFEB
:102B30002837BD4680BD00BF340800200008004093
:102B400080B586B000AF07F1080300221A605A6012
:102B50009A60DA603B4600221A605A601D4B1E4A9A
:102B60001A601C4B42F210725A601A4B00229A6093
:102B7000184B5322DA60174B00221A61154B0022C2
:102B80009A61144805F0E9F80346002B01D0FEF7DE
:102B9000EDFE4FF48053BB6007F1080319460D4862
:102BA00005F0CEFF0346002B01D0FEF7DFFE002329
:102BB0003B6000237B603B461946064806F0EAFC72
:102BC0000346002B01D0FEF7D1FE00BF1837BD46EB
:102BD00080BD00BF7C080020000C004080B596B08E
:102BE00000AF07F1480300221A605A609A60DA6069
:102BF00007F1400300221A605A6007F12403002203
:102C00001A605A609A60DA601A615A619A613B1DD3
:102C100020220021184607F0DDFD444B444A1A608B
:102C2000424B07225A60414B00229A603F4B4FF4BF
:102C30007A72DA603D4B00221A613C4B00225A61E5
:102C40003A4B80229A61394805F087F80346002BF9
:102C500001D0FEF78BFE4FF48053BB6407F14803AD
:102C60001946324805F06CFF0346002B01D0FEF7F1
:102C70007DFE2E4805F030F90346002B01D0FEF70B
:102C800075FE00233B6400237B6407F14003194673
:102C9000264806F07FFC0346002B01D0FEF766FEB7
:102CA00060237B620023BB620023FB6200233B6343
:102CB00000237B630023BB630023FB6307F1240332
:102CC00000221946194805F079FE0346002B01D071
:102CD000FEF74CFE07F1240304221946134805F0C1
:102CE0006DFE0346002B01D0FEF740FE00237B6003
:102CF0000023BB600023FB6000233B6100237B615A
:102D00004FF40053BB6100233B623B1D194607484B
:102D100006F0BCFC0346002B01D0FEF727FE03485B
:102D200000F0CEF900BF5837BD4680BDC408002072
:102D30000004014080B584B000AF3B4600221A6019
:102D40005A609A60DA601E4B1E4A1A601C4B0022C1
:102D50005A601B4B00229A60194B4FF6FF72DA60E3
:102D6000174B00221A61164B00229A61144805F095
:102D7000D5F90346002B01D0FEF7F8FD00233B6098
:102D800001237B600023BB600023FB603B460022E5
:102D900019460B4805F076FD0346002B01D0FEF7DF
:102DA000E5FD3B4604221946054805F06BFD034648
:102DB000002B01D0FEF7DAFD00BF1037BD4680BD05
:102DC0000C0900200040014080B58CB000AF786055
:102DD00007F11C0300221A605A609A60DA601A61D7
:102DE0007B681B683F4A93420ED10023BB613E4B78
:102DF0005B6C3D4A43F0010353643B4B5B6C03F057
:102E00000103BB61BB6969E07B681B68374A934279
:102E100035D100237B61344B1B6C334A43F00403F0
:102E20001364314B1B6C03F004037B617B6900234B
:102E30003B612D4B1B6B2C4A43F0020313632A4B5F
:102E40001B6B03F002033B613B694FF44073FB6172
:102E500002233B6200237B620023BB620223FB62EE
:102E600007F11C031946224801F0ACFA00220021A8
:102E70001E2000F0A8FE1E2000F0C1FE2EE07B68A0
:102E80001B681C4A934216D10023FB60164B1B6C37
:102E9000154A43F008031364134B1B6C03F008033B
:102EA000FB60FB6800220021322000F08CFE322003
:102EB00000F0A5FE12E07B681B680F4A93420DD11B
:102EC0000023BB60084B5B6C074A43F0020353646A
:102ED000054B5B6C03F00203BB60BB6800BF30377F
:102EE000BD4680BD0000014000380240000800409F
:102EF00000040240000C00400004014080B58CB08A
:102F000000AF786007F11C0300221A605A609A60D3
:102F1000DA601A617B681B68B3F1804F4BD10023E4
:102F2000BB613F4B1B6C3E4A43F0010313643C4BB7
:102F30001B6C03F00103BB61BB6900237B61384B51
:102F40001B6B374A43F001031363354B1B6B03F0D4
:102F500001037B617B6900233B61314B1B6B304A72
:102F600043F0020313632E4B1B6B03F002033B6120
:102F70003B694FF40043FB6102233B6200237B6209
:102F80000023BB620123FB6207F11C03194625489D
:102F900001F018FA0823FB6102233B6200237B62E5
:102FA0000023BB620123FB6207F11C0319461E4884
:102FB00001F008FA30E07B681B681C4A93422BD171
:102FC0000023FB60164B1B6C154A43F0020313648D
:102FD000134B1B6C03F00203FB60FB680023BB6018
:102FE0000F4B1B6B0E4A43F0020313630C4B1B6B1E
:102FF00003F00203BB60BB683023FB6102233B622A
:1030000000237B620023BB620223FB6207F11C03E7
:103010001946054801F0D6F900BF3037BD4680BDDE
:10302000003802400000024000040240000400405A
:1030300080B58AB000AF786007F1140300221A60EF
:103040005A609A60DA601A617B681B68194A934279
:103050002BD100233B61184B5B6C174A43F4803340
:103060005364154B5B6C03F480333B613B69002375
:10307000FB60114B1B6B104A43F0100313630E4BA4
:103080001B6B03F01003FB60FB6860237B61022372
:10309000BB610023FB6100233B6203237B6207F1DA
:1030A00014031946054801F08DF900BF2837BD46C5
:1030B00080BD00BF004001400038024000100240C7
:1030C00080B588B000AF786007F10C0300221A6069
:1030D0005A609A60DA601A617B681B68124A9342F0
:1030E0001DD10023BB60114B1B6B104A43F004033E
:1030F00013630E4B1B6B03F00403BB60BB68C02360
:10310000FB6002233B6100237B610023BB6103233F
:10311000FB6107F10C031946054801F053F900BFA4
:103120002037BD4680BD00BF00040140003802408A
:103130000008024084B080B500AF07F1080C8CE8AD
:103140000F003B69184604F057FE3B69BA69114607
:10315000184605F033F800BFBD46BDE8804004B016
:103160007047000080B500AF114B124A1A60104B37
:103170004FF4E1325A600E4B00229A600C4B002251
:10318000DA600B4B00221A61094B0C225A61084B82
:1031900000229A61064B0022DA61054806F0DCFA4B
:1031A0000346002B01D0FEF7E1FB00BF80BD00BF4E
:1031B000540900200010014080B500AF114B124AA5
:1031C0001A60104B4FF4E1325A600E4B00229A60A5
:1031D0000C4B0022DA600B4B00221A61094B0C22C7
:1031E0005A61084B00229A61064B0022DA610548B9
:1031F00006F0B2FA0346002B01D0FEF7B7FB00BF82
:1032000080BD00BF980900200044004080B58CB00C
:1032100000AF786007F11C0300221A605A609A60C0
:10322000DA601A617B681B68364A934235D1002305
:10323000BB61354B5B6C344A43F010035364324B33
:103240005B6C03F01003BB61BB6900237B612E4BF9
:103250001B6B2D4A43F0010313632B4B1B6B03F0D5
:1032600001037B617B694FF4C063FB6102233B6216
:1032700000237B620323BB620723FB6207F11C036D
:103280001946224801F09EF800220021252000F076
:103290009AFC252000F0B3FC30E07B681B681C4AD8
:1032A00093422BD100233B61174B1B6C164A43F40E
:1032B00000331364144B1B6C03F400333B613B6914
:1032C0000023FB60104B1B6B0F4A43F00803136392
:1032D0000D4B1B6B03F00803FB60FB686023FB6175
:1032E00002233B6200237B620323BB620723FB6252
:1032F00007F11C031946074801F064F800BF303796
:10330000BD4680BD00100140003802400000024070
:1033100000440040000C024080B586B000AF07F1C9
:10332000080300221A605A609A60DA603B46002265
:103330001A605A60224B234A1A6004F051FC03467B
:10334000214AA2FB03239B0C013B1D4A53601C4BEB
:1033500000229A601A4B4FF6FF72DA60184B002277
:103360001A61174B00225A61154B00229A611448CA
:1033700004F0F3FC0346002B01D0FEF7F7FA4FF4FC
:103380008053BB6007F1080319460D4805F0D8FBD0
:103390000346002B01D0FEF7E9FA00233B6000232F
:1033A0007B603B461946064806F0F4F80346002BBE
:1033B00001D0FEF7DBFA00BF1837BD4680BD00BF65
:1033C0005C0700200000014083DE1B43DFF834D09F
:1033D0000D480E490E4A002302E0D458C45004336D
:1033E000C4188C42F9D30B4A0B4C002301E0136044
:1033F0000432A242FBD3FFF71DFA07F0C7F9FEF72C
:1034000081F970470000022000000020B402002073
:1034100074F90008B4020020F0090020FEE7000063
:1034200080B500AF0E4B1B680D4A43F40073136068
:103430000B4B1B680A4A43F480631360084B1B68FC
:10344000074A43F480731360032000F0B1FB0F20A0
:1034500000F008F8FFF7A4F80023184680BD00BF6D
:10346000003C024080B582B000AF7860124B1A6811
:10347000124B1B7819464FF47A73B3FBF1F3B2FB8E
:10348000F3F3184600F0C9FB0346002B01D00123DB
:103490000EE07B680F2B0AD8002279684FF0FF30CE
:1034A00000F091FB064A7B681360002300E00123D3
:1034B00018460837BD4680BDD4000020DC0000203F
:1034C000D800002080B400AF064B1B781A46064B8C
:1034D0001B681344044A136000BFBD465DF8047BBB
:1034E000704700BFDC000020DC09002080B400AF82
:1034F000034B1B681846BD465DF8047B704700BF50
:10350000DC09002080B584B000AF7860FFF7EEFFE3
:10351000B8607B68FB60FB68B3F1FF3F05D00A4BE6
:103520001B781A46FB681344FB6000BFFFF7DEFF01
:103530000246BB68D31AFA689A42F7D800BF00BFA8
:103540001037BD4680BD00BFDC00002080B584B0D0
:1035500000AF78600023FB737B68002B01D101234F
:1035600033E07B681B6C002B09D17868FDF796FD72
:103570007B6800225A647B68002283F83C207B68C9
:103580001B6C03F01003002B18D17B681B6C23F419
:10359000885323F0020343F002027B681A647868C0
:1035A00000F03AF97B6800225A647B681B6C23F0B8
:1035B000030343F001027B681A6401E00123FB73FB
:1035C0007B68002283F83C20FB7B18461037BD4601
:1035D00080BD000080B485B000AF78603960002302
:1035E000BB607B6893F83C30012B01D1022305E1DD
:1035F0007B68012283F83C203B681B68092B25D996
:103600007B681B68D9683B681B689BB21A461346E7
:103610005B0013441E3B072202FA03F3DA437B6884
:103620001B680A40DA607B681B68D9683B689A6847
:103630003B681B689BB2184603465B0003441E3B75
:103640009A407B681B680A43DA6022E07B681B684B
:1036500019693B681B689BB21A4613465B0013440A
:10366000072202FA03F3DA437B681B680A401A61F7
:103670007B681B6819693B689A683B681B689BB24A
:10368000184603465B0003449A407B681B680A4364
:103690001A613B685B68062B24D87B681B68596BF2
:1036A0003B685A6813469B001344053B1F2202FAED
:1036B00003F3DA437B681B680A405A637B681B6824
:1036C000596B3B681B689BB218463B685A681346A7
:1036D0009B001344053B00FA03F27B681B680A4316
:1036E0005A634CE03B685B680C2B24D87B681B68F2
:1036F000196B3B685A6813469B001344233B1F22F7
:1037000002FA03F3DA437B681B680A401A637B689A
:103710001B68196B3B681B689BB218463B685A686C
:1037200013469B001344233B00FA03F27B681B689B
:103730000A431A6323E07B681B68D96A3B685A68AE
:1037400013469B001344413B1F2202FA03F3DA4362
:103750007B681B680A40DA627B681B68D96A3B6831
:103760001B689BB218463B685A6813469B0013447B
:10377000413B00FA03F27B681B680A43DA62224B82
:10378000FB607B681B68214A934209D13B681B6838
:10379000122B05D1FB685B6843F48002FB685A601A
:1037A0007B681B68194A934223D13B681B68102B26
:1037B00003D03B681B68112B1BD1FB685B6843F48B
:1037C0000002FB685A603B681B68102B11D1104B3C
:1037D0001B68104AA2FB03239A0C13469B00134458
:1037E0005B00BB6002E0BB68013BBB60BB68002BB9
:1037F000F9D17B68002283F83C2000231846143757
:10380000BD465DF8047B7047002301400020014065
:10381000D400002083DE1B4380B485B000AF786005
:10382000794BFB60FB685B6823F44032FB685A60AD
:10383000FB685A687B685B681A43FB685A607B6860
:103840001B685A687B681B6822F480725A607B6828
:103850001B6859687B681B691A027B681B680A43EE
:103860005A607B681B685A687B681B6822F040724C
:103870005A607B681B6859687B689A687B681B681C
:103880000A435A607B681B689A687B681B6822F44D
:1038900000629A607B681B6899687B68DA687B685D
:1038A0001B680A439A607B689B6A584A934222D0FD
:1038B0007B681B689A687B681B6822F070629A605C
:1038C0007B681B6899687B689A6A7B681B680A43F7
:1038D0009A607B681B689A687B681B6822F040527C
:1038E0009A607B681B6899687B68DA6A7B681B68EA
:1038F0000A439A600FE07B681B689A687B681B68C4
:1039000022F070629A607B681B689A687B681B680B
:1039100022F040529A607B681B689A687B681B683B
:1039200022F002029A607B681B6899687B681B7EA4
:103930005A007B681B680A439A607B6893F82030C2
:10394000002B1BD07B681B685A687B681B6842F49D
:1039500000625A607B681B685A687B681B6822F4A7
:1039600060425A607B681B6859687B685B6A013BF0
:103970005A037B681B680A435A6007E07B681B6830
:103980005A687B681B6822F400625A607B681B6877
:10399000DA6A7B681B6822F47002DA627B681B6853
:1039A000D96A7B68DB69013B1A057B681B680A439F
:1039B000DA627B681B689A687B681B6822F4007275
:1039C0009A607B681B6899687B6893F830305A026C
:1039D0007B681B680A439A607B681B689A687B68EF
:1039E0001B6822F480629A607B681B6899687B6818
:1039F0005B699A027B681B680A439A6000BF1437B0
:103A0000BD465DF8047B7047002301400100000FB4
:103A100080B485B000AF78607B6803F00703FB607B
:103A20000C4BDB68BB60BA684FF6FF031340BB600A
:103A3000FB681A02BB68134343F0BF6343F40033CF
:103A4000BB60044ABB68D36000BF1437BD465DF855
:103A5000047B704700ED00E080B400AF044BDB68EE
:103A60001B0A03F007031846BD465DF8047B704748
:103A700000ED00E080B483B000AF0346FB7197F91E
:103A80000730002B0BDBFB7903F01F02074997F986
:103A900007305B09012000FA02F241F8232000BF41
:103AA0000C37BD465DF8047B704700BF00E100E0C5
:103AB00080B483B000AF03463960FB7197F90730DB
:103AC000002B0ADB3B68DAB20C4997F90730120188
:103AD000D2B20B4483F800230AE03B68DAB208490B
:103AE000FB7903F00F03043B1201D2B20B441A76A8
:103AF00000BF0C37BD465DF8047B704700E100E075
:103B000000ED00E080B489B000AFF860B9607A6081
:103B1000FB6803F00703FB61FB69C3F10703042B98
:103B200028BF0423BB61FB690433062B02D9FB6960
:103B3000033B00E000237B614FF0FF32BB6902FAD8
:103B400003F3DA43BB681A407B699A404FF0FF31B8
:103B50007B6901FA03F3D9437B680B401343184692
:103B60002437BD465DF8047B7047000080B582B005
:103B700000AF78607B68013BB3F1807F01D3012304
:103B80000FE00A4A7B68013B53600F214FF0FF3082
:103B9000FFF78EFF054B00229A60044B07221A6044
:103BA000002318460837BD4680BD00BF10E000E086
:103BB00080B582B000AF78607868FFF729FF00BF5A
:103BC0000837BD4680BD80B586B000AF0346B960FA
:103BD0007A60FB7300237B61FFF73EFF78617A68B0
:103BE000B9687869FFF78EFF024697F90F301146E2
:103BF0001846FFF75DFF00BF1837BD4680BD80B592
:103C000082B000AF0346FB7197F907301846FFF703
:103C100031FF00BF0837BD4680BD80B582B000AF20
:103C200078607868FFF7A2FF034618460837BD465C
:103C300080BD80B584B000AF78607B689B6DFB6011
:103C4000FFF754FCB8607B6893F83530DBB2022B89
:103C500008D07B6880225A657B68002283F8342074
:103C6000012352E07B681B681A687B681B6822F09E
:103C700016021A607B681B685A697B681B6822F011
:103C800080025A617B681B6C002B03D17B689B6CA4
:103C9000002B07D07B681B681A687B681B6822F0C2
:103CA00008021A607B681B681A687B681B6822F030
:103CB00001021A6013E0FFF719FC0246BB68D31A31
:103CC000052B0CD97B6820225A657B68032283F878
:103CD00035207B68002283F83420032315E07B68BD
:103CE0001B681B6803F00103002BE4D17B68DB6DCC
:103CF0003F229A40FB689A607B68012283F8352056
:103D00007B68002283F83420002318461037BD4614
:103D100080BD80B483B000AF78607B6893F83530A5
:103D2000DBB2022B04D07B6880225A6501230CE0B1
:103D30007B68052283F835207B681B681A687B68DE
:103D40001B6822F001021A60002318460C37BD469A
:103D50005DF8047B704780B483B000AF78607B6807
:103D600093F83530DBB218460C37BD465DF8047B5E
:103D70007047000080B584B000AF78607B68002B8E
:103D800001D101236CE07B68D3F88430002B06D18D
:103D90007B682322C3F884207868FDF711FA00239A
:103DA000BB60314B5B6C304A43F4804353642E4B11
:103DB0005B6C03F48043BB60BB682C4B5B682B4A95
:103DC00023F400035360294B5A687B689B6827499A
:103DD00013434B60254B5B687B681B6803F580537E
:103DE0001B687A68126843F0010302F58052136081
:103DF000FFF77CFBF86011E0FFF778FB0246FB68F9
:103E0000D31AB3F5FA7F09D97B680422C3F8882056
:103E10007B68E022C3F88420012321E07B681B68D3
:103E200003F580531B6803F00103002BE4D178688D
:103E300000F058F9786800F0FFF9786800F055FA5A
:103E40007B685B681A460021786800F0BDF97B68E2
:103E50000022C3F888207B681022C3F88420002346
:103E600018461037BD4680BD00380240003801407A
:103E700080B584B000AF786039607B681B681B68D0
:103E8000FB60FA68514B1340FB603B681B7C002BC6
:103E900002D14FF4000200E000223B685B7C002B63
:103EA00002D14FF4800300E000231A433B689B6873
:103EB0001A433B68DB7F1B041A433B685B6913436F
:103EC0003A68927F002A02D14FF4005200E00022AB
:103ED0001A433B681B7F1B031A433B689B691A43C9
:103EE0003B681B799B0213433A6892F82020002A12
:103EF00002D14FF4007200E000221A433B68DB7BE2
:103F0000DB011A433B685B6A1A433B6893F828302D
:103F10001B011343FA681343FB607B681B68FA6854
:103F20001A607B681B681B68FB600120FFF7EAFAD8
:103F30007B681B68FA681A607B681B689B69FB607A
:103F4000FA684FF641731340FB603B689B6C1B049F
:103F50003A6892F84C20002A01D1802200E0002229
:103F60001A433B681B6D13433A6892F85520012AA7
:103F700001D1082200E0002213433A6892F856204B
:103F8000012A01D1042200E0002213433A6892F88A
:103F90005420012A01D1022200E000221343FA68D2
:103FA0001343FB607B681B68FA689A617B681B6837
:103FB0009B69FB600120FFF7A5FA7B681B68FA6824
:103FC0009A6100BF1037BD4680BD00BF0F8120FF42
:103FD00080B584B000AF786039607B681B6803F5FA
:103FE00080539B69FB60FA683D4B1340FB603B6864
:103FF0001B7B002B02D14FF0806200E000223B6867
:104000005B7B5B0613433A68527F002A02D14FF470
:10401000801200E000221A433B689B7B5B051A4339
:104020003B685B691A433B681B7FDB011A433B68B3
:104030009B7F9B011A433B681B6A1A433B6893F8BA
:1040400024309B001343FA681343FB607B681B68B2
:1040500003F580531A46FB6893617B681B6803F580
:1040600080539B69FB600120FFF74CFA7B681B685B
:1040700003F580531A46FB6893613B681B795A0627
:104080003B689B681A433B689B691A433B681B6902
:104090001A433B6893F82530DB011A433B689B6A5F
:1040A0009B001A433B681B6813437A68126843F409
:1040B000000302F5805213607B681B6803F5805390
:1040C0001B68FB600120FFF71DFA7B681B6803F586
:1040D00080531A46FB68136000BF1037BD4680BD91
:1040E000233FDEF880B5A6B000AF7860012387F8E3
:1040F0004430012387F845300023FB63002387F811
:104100005330012387F85230002387F850300123C1
:1041100087F83830002387F85430002387F843307D
:104120000023BB65002387F85C300023FB67002376
:1041300087F880300023C7F88430002387F88A305E
:10414000002387F888304FF48043BB644FF400634A
:10415000FB64002387F8893007F134031946786837
:10416000FFF786FE01233B7501237B75012387F84A
:1041700025300123BB750023FB61002387F8243021
:10418000002387F826300023BB62012387F82C30F8
:1041900001233B734FF480333B614FF480033B6258
:1041A0004FF40053BB61012387F82D3000233B639C
:1041B0000023BB6007F1080319467868FFF708FF82
:1041C00000BF9837BD4680BD80B487B000AFF860AF
:1041D000B9607A607B6805331B781B027A68043209
:1041E000127813437B61BA68114B13441A467B69FA
:1041F00013607B6803331B781A067B6802331B78D5
:104200001B041A437B6801331B781B0213437A6833
:10421000127813437B61BA68064B13441A467B69D4
:10422000136000BF1C37BD465DF8047B704700BFBC
:10423000408002404480024080B485B000AF786086
:104240000023FB603EE07B68D968FA6813469B0058
:104250001344DB000B44BB60BB6800221A60BB68E0
:1042600000225A60BB6800229A60BB680022DA60B4
:10427000B9687B68FA68063243F82210BB681B688D
:1042800043F48012BB681A60FB68022B0CD87B6871
:10429000D968FB685A1C13469B001344DB000B448F
:1042A0001A46BB68DA6004E07B68DB681A46BB68C4
:1042B000DA60BB681B6843F44002BB681A60FB68A5
:1042C0000133FB60FB68032BBDD97B6800229A6237
:1042D0007B68DA687B681B6803F580531A6100BF4E
:1042E0001437BD465DF8047B704780B485B000AFDD
:1042F00078600023FB6046E07B681969FA68134622
:104300009B001344DB000B44BB60BB6800221A60B7
:10431000BB6800225A60BB6800229A60BB6800221A
:10432000DA60BB6800221A62BB6800225A62BB686E
:104330004FF000421A60BB6844F2F8525A60BB6802
:104340005B6823F00042BB685A60B9687B68FA6812
:10435000123243F82210FB68022B0CD87B681969D3
:10436000FB685A1C13469B001344DB000B441A469F
:10437000BB68DA6004E07B681B691A46BB68DA60D8
:10438000FB680133FB60FB68032BB5D97B68002217
:10439000DA657B6800221A667B6800229A667B6871
:1043A0000022DA667B6800229A657B681A697B685E
:1043B0001B6803F58053DA6000BF1437BD465DF813
:1043C000047B704780B489B000AF78603960002307
:1043D0007B6100233B610023BB610023FB616BE138
:1043E0000122FB6902FA03F37B613B681B687A696F
:1043F00013403B613A697B699A4240F05A813B68BD
:104400005B6803F00303012B05D03B685B6803F096
:104410000303022B30D17B689B68BB61FB695B00A7
:10442000032202FA03F3DB43BA691340BB613B6822
:10443000DA68FB695B0002FA03F3BA691343BB61F4
:104440007B68BA699A607B685B68BB610122FB6923
:1044500002FA03F3DB43BA691340BB613B685B6854
:104460001B0903F00102FB6902FA03F3BA69134363
:10447000BB617B68BA695A603B685B6803F0030301
:10448000032B17D07B68DB68BB61FB695B000322F1
:1044900002FA03F3DB43BA691340BB613B689A68D5
:1044A000FB695B0002FA03F3BA691343BB617B68E3
:1044B000BA69DA603B685B6803F00303022B23D11F
:1044C000FB69DA087B68083253F82230BB61FB696C
:1044D00003F007039B000F2202FA03F3DB43BA69E0
:1044E0001340BB613B681A69FB6903F007039B003B
:1044F00002FA03F3BA691343BB61FB69DA087B680C
:104500000832B96943F822107B681B68BB61FB69FC
:104510005B00032202FA03F3DB43BA691340BB6179
:104520003B685B6803F00302FB695B0002FA03F37C
:10453000BA691343BB617B68BA691A603B685B6800
:1045400003F44033002B00F0B4800023FB60604B89
:104550005B6C5F4A43F4804353645D4B5B6C03F4D4
:104560008043FB60FB685B4AFB699B08023352F89F
:104570002330BB61FB6903F003039B000F2202FAA7
:1045800003F3DB43BA691340BB617B68524A934231
:104590002BD07B68514A934225D07B68504A934286
:1045A0001FD07B684F4A934219D07B684E4A934292
:1045B00013D07B684D4A93420DD07B684C4A93429E
:1045C00007D07B684B4A934201D107230EE00823B2
:1045D0000CE006230AE0052308E0042306E0032399
:1045E00004E0022302E0012300E00023FA6902F064
:1045F000030292009340BA691343BB613549FB69DA
:104600009B080233BA6941F823203B4B9B68BB618E
:104610003B69DB43BA691340BB613B685B6803F4E9
:104620008013002B03D0BA693B691343BB61324A44
:10463000BB699360304BDB68BB613B69DB43BA69A4
:104640001340BB613B685B6803F40013002B03D08D
:10465000BA693B691343BB61274ABB69D360264BE8
:104660005B68BB613B69DB43BA691340BB613B6874
:104670005B6803F40033002B03D0BA693B69134332
:10468000BB611D4ABB6953601B4B1B68BB613B6927
:10469000DB43BA691340BB613B685B6803F480335A
:1046A000002B03D0BA693B691343BB61124ABB6953
:1046B0001360FB690133FB61FB690F2B7FF690AE42
:1046C00000BF00BF2437BD465DF8047B704700BFC4
:1046D000003802400038014000000240000402405F
:1046E00000080240000C024000100240001402408A
:1046F00000180240001C0240003C014080B483B01E
:1047000000AF78600B467B8013467B707B78002B74
:1047100003D07A887B689A6103E07B881A047B68FF
:104720009A6100BF0C37BD465DF8047B704780B4CA
:1047300085B000AF78600B467B807B685B69FB606F
:104740007A88FB6813401A04FB68D9437B880B40C6
:104750001A437B689A6100BF1437BD465DF8047B3D
:104760007047000080B584B000AF78607B68002B94
:1047700001D101232BE17B6893F83D30DBB2002BA4
:1047800006D17B68002283F83C207868FCF7F8FEAD
:104790007B68242283F83D207B681B681A687B684D
:1047A0001B6822F001021A607B681B681A687B682C
:1047B0001B6842F400421A607B681B681A687B68B9
:1047C0001B6822F400421A6003F016FAF8607B6856
:1047D0005B68814A934207D8FB68804A934294BF42
:1047E00001230023DBB206E0FB687D4A934294BFBD
:1047F00001230023DBB2002B01D00123E7E0FB689B
:10480000784AA2FB03239B0CBB607B681B685B6838
:1048100023F03F017B681B68BA680A435A607B68D3
:104820001B681B6A23F03F017B685B686A4A9342FE
:1048300002D8BB68013309E0BB684FF4967202FBF3
:1048400003F3694AA2FB03239B0901337A681268C8
:104850000B4313627B681B68DB6923F44F4222F031
:10486000FF027B685B685C498B4219D8FB68591E64
:104870007B685B685B00B1FBF3F3591C40F6FC738B
:104880000B40002B0AD0FB68591E7B685B685B00FD
:10489000B1FBF3F30133C3F30B0351E004234FE007
:1048A0007B689B68002B11D1FB68581E7B68596898
:1048B0000B465B000B44B0FBF3F30133C3F30B0374
:1048C000002B0CBF01230023DBB212E0FB68581E53
:1048D0007B6859680B469B000B4499000B44B0FB66
:1048E000F3F30133C3F30B03002B0CBF01230023AD
:1048F000DBB2002B01D0012322E07B689B68002BF8
:104900000ED1FB68581E7B6859680B465B000B4450
:10491000B0FBF3F30133C3F30B0343F400430FE0A5
:10492000FB68581E7B6859680B469B000B44990036
:104930000B44B0FBF3F30133C3F30B0343F44043E5
:10494000796809681343CB617B681B681B6823F097
:10495000C0017B68DA697B681B6A1A437B681B6845
:104960000A431A607B681B689B6823F4034323F0A7
:10497000FF037A6811697A68D26811437A6812680D
:104980000B4393607B681B68DB6823F0FF017B6847
:104990005A697B689B691A437B681B680A43DA6023
:1049A0007B681B681A687B681B6842F001021A600A
:1049B0007B6800221A647B68202283F83D207B6894
:1049C00000221A637B68002283F83E2000231846E9
:1049D0001037BD4680BD00BFA08601007F841E0049
:1049E000FF083D0083DE1B43D34D621080B588B0C5
:1049F00002AFF8607A601A460B467B8113463B8112
:104A0000FEF774FD7861FB6893F83D30DBB2202B34
:104A100040F0E0807B690093192301227049F86817
:104A200002F090FA0346002B01D00223D3E0FB688A
:104A300093F83C30012B01D10223CCE0FB6801222A
:104A400083F83C20FB681B681B6803F00103012B03
:104A500007D0FB681B681A68FB681B6842F00102FC
:104A60001A60FB681B681A68FB681B6822F4006206
:104A70001A60FB68212283F83D20FB68102283F82E
:104A80003E20FB6800221A64FB687A685A62FB6861
:104A90003A895A85FB685B8D9AB2FB681A85FB6878
:104AA000504ADA6279897B693A6AF86801F0A2FFB4
:104AB0000346002B01D001238DE000233B61FB68FE
:104AC0001B685B693B61FB681B689B693B613B69D9
:104AD00066E07A69396AF86802F00AFB0346002B3F
:104AE0000DD0FB681B6C042B07D1FB681B681A6890
:104AF000FB681B6842F400721A6001236BE0FB68DC
:104B00005B6A1A78FB681B681A61FB685B6A5A1C4F
:104B1000FB685A62FB685B8D9BB2013B9AB2FB68F3
:104B20005A85FB681B8D013B9AB2FB681A85FB68AE
:104B30001B685B6903F00403042B1BD1FB681B8D0E
:104B4000002B17D0FB685B6A1A78FB681B681A6138
:104B5000FB685B6A5A1CFB685A62FB685B8D9BB200
:104B6000013B9AB2FB685A85FB681B8D013B9AB2E8
:104B7000FB681A857A69396AF86802F0FAFA03461E
:104B8000002B0DD0FB681B6C042B07D1FB681B6846
:104B90001A68FB681B6842F400721A6001231AE06D
:104BA000FB681B8D002B94D1FB681B681A68FB689F
:104BB0001B6842F400721A60FB68202283F83D20D3
:104BC000FB68002283F83E20FB68002283F83C202B
:104BD000002300E0022318461837BD4680BD00BF01
:104BE000020010000000FFFF80B588B002AFF8603F
:104BF000084611461A4603467B810B463B81134605
:104C0000FB80FEF773FC7861FB6893F83D30DBB204
:104C1000202B40F0D9807B690093192301226D4934
:104C2000F86802F08FF90346002B01D00223CCE094
:104C3000FB6893F83C30012B01D10223C5E0FB68EF
:104C4000012283F83C20FB681B681B6803F001030A
:104C5000012B07D0FB681B681A68FB681B6842F0D1
:104C600001021A60FB681B681A68FB681B6822F463
:104C700000621A60FB68212283F83D20FB68402215
:104C800083F83E20FB6800221A64FB683A6A5A6285
:104C9000FB68BA8C5A85FB685B8D9AB2FB681A85F3
:104CA000FB684D4ADA62F8883A8979897B69019311
:104CB000BB6A00930346F86801F01EFF0346002B11
:104CC00052D0012381E07A69B96AF86802F010FADB
:104CD0000346002B0DD0FB681B6C042B07D1FB682F
:104CE0001B681A68FB681B6842F400721A60012393
:104CF0006BE0FB685B6A1A78FB681B681A61FB68EB
:104D00005B6A5A1CFB685A62FB681B8D013B9AB2B6
:104D1000FB681A85FB685B8D9BB2013B9AB2FB680E
:104D20005A85FB681B685B6903F00403042B1BD1E5
:104D3000FB681B8D002B17D0FB685B6A1A78FB6839
:104D40001B681A61FB685B6A5A1CFB685A62FB6845
:104D50001B8D013B9AB2FB681A85FB685B8D9BB289
:104D6000013B9AB2FB685A85FB681B8D002BAAD1C8
:104D70007A69B96AF86802F0FCF90346002B0DD095
:104D8000FB681B6C042B07D1FB681B681A68FB6867
:104D90001B6842F400721A60012316E0FB681B686E
:104DA0001A68FB681B6842F400721A60FB682022D4
:104DB00083F83D20FB68002283F83E20FB68002238
:104DC00083F83C20002300E0022318461837BD4634
:104DD00080BD00BF020010000000FFFF80B58CB056
:104DE00002AFF860084611461A4603467B810B461F
:104DF0003B811346FB80FEF779FB7862FB6893F8F2
:104E00003D30DBB2202B40F008827B6A00931923EF
:104E100001227B49F86802F095F80346002B01D087
:104E20000223FBE1FB6893F83C30012B01D1022304
:104E3000F4E1FB68012283F83C20FB681B681B68D7
:104E400003F00103012B07D0FB681B681A68FB689D
:104E50001B6842F001021A60FB681B681A68FB6855
:104E60001B6822F400621A60FB68222283F83D204E
:104E7000FB68402283F83E20FB6800221A64FB682E
:104E80003A6B5A62FB68BA8E5A85FB685B8D9AB2A0
:104E9000FB681A85FB685B4ADA62F8883A89798987
:104EA0007B6A0193BB6B00930346F86801F0BAFE7E
:104EB0000346002B01D00123B0E1FB681B8D002BC2
:104EC00013D100233B62FB681B685B693B62FB6894
:104ED0001B689B693B623B6AFB681B681A68FB683E
:104EE0001B6842F400721A6084E1FB681B8D012B81
:104EF0001BD1FB681B681A68FB681B6822F4806280
:104F00001A600023FB61FB681B685B69FB61FB683F
:104F10001B689B69FB61FB69FB681B681A68FB687F
:104F20001B6842F400721A6064E1FB681B8D022B5F
:104F30001BD1FB681B681A68FB681B6822F480623F
:104F40001A60FB681B681A68FB681B6842F4006201
:104F50001A600023BB61FB681B685B69BB61FB686F
:104F60001B689B69BB61BB6944E100237B61FB68F3
:104F70001B685B697B61FB681B689B697B617B6964
:104F800038E1FB681B8D032B00F2F180FB681B8D61
:104F9000012B23D17A6AB96BF86802F05DF90346F8
:104FA000002B01D0012339E1FB681B681A69FB68FB
:104FB0005B6AD2B21A70FB685B6A5A1CFB685A6261
:104FC000FB681B8D013B9AB2FB681A85FB685B8D01
:104FD0009BB2013B9AB2FB685A850BE1FB681B8DC3
:104FE000022B4ED17B6A0093BB6B00220649F86806
:104FF00001F0A8FF0346002B08D001230EE100BFFB
:10500000020010000000FFFF04000100FB681B68A5
:105010001A68FB681B6842F400721A60FB681B6820
:105020001A69FB685B6AD2B21A70FB685B6A5A1C29
:10503000FB685A62FB681B8D013B9AB2FB681A85BC
:10504000FB685B8D9BB2013B9AB2FB685A85FB689B
:105050001B681A69FB685B6AD2B21A70FB685B6AEC
:105060005A1CFB685A62FB681B8D013B9AB2FB68B5
:105070001A85FB685B8D9BB2013B9AB2FB685A852F
:10508000B8E07B6A0093BB6B00226649F86801F0C8
:1050900059FF0346002B01D00123BFE0FB681B68CA
:1050A0001A68FB681B6822F480621A60FB681B6840
:1050B0001A69FB685B6AD2B21A70FB685B6A5A1C99
:1050C000FB685A62FB681B8D013B9AB2FB681A852C
:1050D000FB685B8D9BB2013B9AB2FB685A857B6A89
:1050E0000093BB6B00224F49F86801F02BFF034689
:1050F000002B01D0012391E0FB681B681A68FB6854
:105100001B6842F400721A60FB681B681A69FB682E
:105110005B6AD2B21A70FB685B6A5A1CFB685A62FF
:10512000FB681B8D013B9AB2FB681A85FB685B8D9F
:105130009BB2013B9AB2FB685A85FB681B681A69EF
:10514000FB685B6AD2B21A70FB685B6A5A1CFB6828
:105150005A62FB681B8D013B9AB2FB681A85FB689B
:105160005B8D9BB2013B9AB2FB685A8542E07A6A3A
:10517000B96BF86802F070F80346002B01D00123E8
:105180004CE0FB681B681A69FB685B6AD2B21A7054
:10519000FB685B6A5A1CFB685A62FB681B8D013B0B
:1051A0009AB2FB681A85FB685B8D9BB2013B9AB291
:1051B000FB685A85FB681B685B6903F00403042BDA
:1051C00018D1FB681B681A69FB685B6AD2B21A7057
:1051D000FB685B6A5A1CFB685A62FB681B8D013BCB
:1051E0009AB2FB681A85FB685B8D9BB2013B9AB251
:1051F000FB685A85FB681B8D002B7FF4C2AEFB68F1
:10520000202283F83D20FB68002283F83E20FB68C3
:10521000002283F83C20002300E0022318462837B0
:10522000BD4680BD0400010080B588B000AF786045
:105230000023BB617B681B685B687B617B68DB6A02
:105240003B617B6893F83E30FB737B6893F83D309D
:10525000BB73FB7B102B03D0FB7B402B40F0C1804A
:105260007B681B689B69BB617B681B685B69FB6132
:10527000FB6903F00103002B0DD13B69B3F52A0F45
:1052800003D03B69B3F12A4F01D1012300E0002391
:10529000012B00F03281FB6903F00103002B0CD0DD
:1052A0007B695B0A03F00103002B06D0786802F0EB
:1052B00058F8786800F083FD92E0FB69DB0803F0A2
:1052C0000103002B09D07B695B0A03F00103002B6B
:1052D00003D0786800F0F9FD82E0FB695B0803F019
:1052E0000103002B09D07B695B0A03F00103002B4B
:1052F00003D0786800F013FE72E0BB699B0803F0EE
:105300000103002B3BD07B681B685B6803F40063E0
:10531000B3F5006F00F0F380FB69DB0903F00103D4
:10532000002B0FD07B699B0A03F00103002B09D0EF
:10533000FB699B0803F00103002B03D1786800F0A0
:10534000F3F94DE0FB699B0803F00103002B00F02B
:10535000D6807B695B0A03F00103002B00F0CF804D
:10536000BB7B212B03D1786800F07AFAC7E0FB7B86
:10537000402B40F0C480786800F0E8FABFE07B681A
:105380001B685B6803F40063B3F5006F00F0B7803F
:10539000FB699B0903F00103002B0FD07B699B0A7B
:1053A00003F00103002B09D0FB699B0803F0010304
:1053B000002B03D1786800F05DFB11E0FB699B08CE
:1053C00003F00103002B00F09A807B695B0A03F075
:1053D0000103002B00F09380786800F006FC8EE05B
:1053E0008DE07B681B6C002B04D07B681B685B69BD
:1053F000FB6107E07B681B689B69BB617B681B687E
:105400005B69FB61FB695B0803F00103002B12D0B1
:105410007B695B0A03F00103002B0CD07B681B6CDB
:10542000002B03D07B681B689B69BB61B9697868F6
:1054300000F0C4FF66E0FB691B0903F00103002BC9
:1054400009D07B695B0A03F00103002B03D0786865
:1054500000F0FEFF56E0BB7B212B02D0BB7B292B4B
:1054600025D1FB69DB0903F00103002B0FD07B6919
:105470009B0A03F00103002B09D0FB699B0803F092
:105480000103002B03D1786800F0DAFE39E0FB69F4
:105490009B0803F00103002B33D07B695B0A03F008
:1054A0000103002B2DD0786800F007FF29E0FB698D
:1054B0009B0903F00103002B0FD07B699B0A03F0CB
:1054C0000103002B09D0FB699B0803F00103002BAB
:1054D00003D1786800F012FF14E0FB699B0803F029
:1054E0000103002B0ED07B695B0A03F00103002B44
:1054F00008D0786800F040FF04E000BF02E000BF81
:1055000000E000BF2037BD4680BD80B58AB000AF47
:1055100078607B681B685B693B627B681B685B68C3
:10552000FB6100237B627B6893F83E30FB763B6A2D
:105530001B0A03F00103002B0ED0FB691B0A03F0CA
:105540000103002B08D07B6A43F001037B627B6878
:105550001B686FF480725A613B6A5B0A03F00103B7
:10556000002B0ED0FB691B0A03F00103002B08D0AF
:105570007B6A43F002037B627B681B686FF40072F6
:105580005A613B6A9B0A03F00103002B3FD0FB6981
:105590001B0A03F00103002B39D0FB7EBB767B682E
:1055A0005B8D9BB27B617B6893F83D30FB747B68BD
:1055B0001B6BFB60BB7E202B12D17B69002B0FD1B4
:1055C000FB7C212B08D0FB7C292B05D0FB7C282BD6
:1055D00006D1FB68212B03D1786801F069F816E049
:1055E0007B681B686FF480625A617B6A43F0040336
:1055F0007B62FB7E102B02D0FB7E402B07D17B68A9
:105600001B681A687B681B6842F400721A603B6A68
:10561000DB0A03F00103002B0ED0FB691B0A03F029
:105620000103002B08D07B6A43F008037B627B6890
:105630001B686FF400625A617B6A002B08D07B689C
:105640001A6C7B6A1A437B681A64786801F0A0F8C8
:1056500000BF2837BD4680BD80B483B000AF7860FE
:1056600000BF0C37BD465DF8047B704780B483B043
:1056700000AF786000BF0C37BD465DF8047B704713
:1056800080B483B000AF786000BF0C37BD465DF8D2
:10569000047B704780B483B000AF786000BF0C37E4
:1056A000BD465DF8047B704780B483B000AF78607E
:1056B0000B46FB7013463B8000BF0C37BD465DF8C0
:1056C000047B704780B483B000AF786000BF0C37B4
:1056D000BD465DF8047B704780B483B000AF78604E
:1056E00000BF0C37BD465DF8047B704780B483B0C3
:1056F00000AF786000BF0C37BD465DF8047B704793
:1057000080B483B000AF786000BF0C37BD465DF851
:10571000047B704780B483B000AF786000BF0C3763
:10572000BD465DF8047B704780B584B000AF7860FB
:105730007B6893F83D30FB737B6893F83E30BB7316
:105740007B68DB6ABB607B681B8D002B50D1FB7BC9
:10575000212B4DD1BB68082B1DD0BB68202B1AD044
:10576000BB6813F5803F16D07B681B685A687B685E
:105770001B6822F4E0625A607B6811221A637B681E
:10578000002283F83E207B68202283F83D20786841
:10579000FFF762FF60E07B681B685A687B681B68E4
:1057A00022F4E0625A607B681B681A687B681B6899
:1057B00042F400721A607B6800221A637B68202220
:1057C00083F83D207B6893F83E30DBB2402B07D155
:1057D0007B68002283F83E207868FFF77DFF3BE07E
:1057E0007B68002283F83E207868FFF735FF33E0BE
:1057F000FB7B212B05D0BB7B402B2DD1FB7B222BB0
:105800002AD17B685B8D9BB2002B08D17B681B681B
:105810005A687B681B6822F480625A601CE07B68CF
:1058200093F83E30DBB2402B03D1786800F08EF85D
:1058300012E07B685B6A1A787B681B681A617B6878
:105840005B6A5A1C7B685A627B685B8D9BB2013B2A
:105850009AB27B685A85FFE700BF1037BD4680BD0E
:1058600080B584B000AF78607B68DB6AFB607B68E2
:1058700093F83D30DBB2212B64D17B685B8D9BB20A
:10588000002B12D07B685B6A1A787B681B681A61F0
:105890007B685B6A5A1C7B685A627B685B8D9BB233
:1058A000013B9AB27B685A854CE0FB68082B1DD0FF
:1058B000FB68202B1AD0FB6813F5803F16D07B685D
:1058C0001B685A687B681B6822F4E0625A607B6838
:1058D00011221A637B68002283F83E207B68202215
:1058E00083F83D207868FFF7B7FE2BE07B681B68E4
:1058F0005A687B681B6822F4E0625A607B681B6808
:105900001A687B681B6842F400721A607B68002288
:105910001A637B68202283F83D207B6893F83E3031
:10592000DBB2402B07D17B68002283F83E207868E9
:10593000FFF7D2FE06E07B68002283F83E207868FD
:10594000FFF78AFE00BF1037BD4680BD80B584B02A
:1059500000AF78607B6893F83D30FB737B681B6D0C
:10596000002B1DD17B68DB6C012B0BD17B689B6C02
:10597000DAB27B681B681A617B681B6D9A1C7B68B6
:105980001A6573E07B689B6C9BB21B12DAB27B6872
:105990001B681A617B681B6D5A1C7B681A6565E081
:1059A0007B681B6D012B0BD17B689B6CDAB27B682B
:1059B0001B681A617B681B6D5A1C7B681A6555E071
:1059C0007B681B6D022B51D1FB7B222B0DD17B6899
:1059D0001B681A687B681B6842F480721A607B68D7
:1059E0001B6D5A1C7B681A6540E07B685B8D9BB21F
:1059F000002B15D0FB7B212B12D17B685B6A1A78B8
:105A00007B681B681A617B685B6A5A1C7B685A62F8
:105A10007B685B8D9BB2013B9AB27B685A8525E01F
:105A20007B685B8D9BB2002B20D1FB7B212B1DD192
:105A30007B681B685A687B681B6822F4E0625A60C6
:105A40007B681B681A687B681B6842F400721A60E6
:105A50007B6800221A637B68202283F83D207B68E4
:105A6000002283F83E207868FFF736FE00BF10372B
:105A7000BD4680BD80B584B000AF78607B6893F888
:105A80003D30DBB2222B40F0AC807B685B8D9BB25B
:105A9000FB60FB68032B21D97B681B681A697B6854
:105AA0005B6AD2B21A707B685B6A5A1C7B685A6266
:105AB0007B685B8D9BB2013B9AB27B685A857B68A1
:105AC0005B8D9BB2032B40F08C807B681B685A680F
:105AD0007B681B6822F480625A6082E07B68DB6A24
