:020000040800F2
:10000000000002209D2E00086D1E0008731E0008CF
:10001000791E00087F1E0008851E000800000000F1
:100020000000000000000000000000008B1E00081F
:10003000991E000800000000A71E0008B51E000859
:10004000ED2E0008ED2E0008ED2E0008ED2E000824
:10005000ED2E0008ED2E0008ED2E0008ED2E000814
:10006000ED2E0008ED2E0008ED2E0008ED2E000804
:10007000ED2E0008ED2E0008ED2E0008ED2E0008F4
:10008000ED2E0008ED2E0008ED2E0008ED2E0008E4
:10009000ED2E0008ED2E0008ED2E0008ED2E0008D4
:1000A000ED2E0008ED2E0008ED2E0008ED2E0008C4
:1000B000ED2E0008ED2E0008C11E0008ED2E0008F0
:1000C000ED2E0008ED2E0008ED2E0008ED2E0008A4
:1000D000ED2E0008D51E0008ED2E0008ED2E0008BC
:1000E000ED2E0008ED2E0008ED2E0008ED2E000884
:1000F000ED2E0008ED2E0008ED2E0008ED2E000874
:10010000ED2E0008ED2E0008E91E0008ED2E000877
:10011000ED2E0008ED2E0008ED2E0008ED2E000853
:10012000ED2E0008ED2E0008ED2E0008ED2E000843
:10013000ED2E0008ED2E0008ED2E0008ED2E000833
:10014000ED2E0008ED2E0008ED2E0008ED2E000823
:10015000ED2E0008ED2E0008ED2E0008ED2E000813
:10016000FD1E0008111F0008ED2E0008ED2E0008EE
:10017000ED2E0008ED2E0008ED2E00080000000016
:08018000ED2E0008ED2E000831
:1001900010B5054C237833B9044B13B10448AFF3C1
:1001A00000800123237010BD940200200000000095
:1001B00088E9000808B5034B1BB103490348AFF3B6
:1001C000008008BD000000009802002088E90008B7
:1001D000034613F8012B002AFBD1181A0138704787
:1001E00001F0FF01102A2BDB10F0070F08D010F8E8
:1001F000013B013A8B422DD010F0070F42B3F6D1EC
:10020000F0B441EA012141EA014122F007047FF004
:1002100000070023F0E80256083C85EA010586EA5B
:10022000010685FA47F5A3FA87F586FA47F6A5FA97
:1002300087F68EB9EED1F0BC01F0FF0102F00702A3
:1002400032B110F8013B013A83EA010313B1F8D14E
:100250000020704701387047002D06BF354603382F
:10026000073815F0010F07D1013015F4807F02BF68
:10027000013015F4C03F0130F0BC0138704700BFB9
:1002800081F0004102E000BF83F0004330B54FEA47
:1002900041044FEA430594EA050F08BF90EA020FB4
:1002A0001FBF54EA000C55EA020C7FEA645C7FEA47
:1002B000655C00F0E2804FEA5454D4EB5555B8BF6A
:1002C0006D420CDD2C4480EA020281EA030382EADB
:1002D000000083EA010180EA020281EA0303362D6D
:1002E00088BF30BD11F0004F4FEA01314FF4801C40
:1002F0004CEA113102D0404261EB410113F0004F52
:100300004FEA03334CEA133302D0524263EB430308
:1003100094EA050F00F0A780A4F10104D5F1200EA6
:100320000DDB02FA0EFC22FA05F2801841F1000101
:1003300003FA0EF2801843FA05F359410EE0A5F1D5
:1003400020050EF1200E012A03FA0EFC28BF4CF006
:10035000020C43FA05F3C01851EBE37101F00045BC
:1003600007D54FF0000EDCF1000C7EEB00006EEBC9
:100370000101B1F5801F1BD3B1F5001F0CD3490853
:100380005FEA30004FEA3C0C04F101044FEA4452AA
:1003900012F5800F80F09A80BCF1004F08BF5FEA31
:1003A000500C50F1000041EB045141EA050130BD11
:1003B0005FEA4C0C404141EB0101013C28BFB1F523
:1003C000801FE9D291F0000F04BF01460020B1FA6E
:1003D00081F308BF2033A3F10B03B3F120020CDA41
:1003E0000C3208DD02F1140CC2F10C0201FA0CF01F
:1003F00021FA02F10CE002F11402D8BFC2F1200C84
:1004000001FA02F120FA0CFCDCBF41EA0C01904039
:10041000E41AA2BF01EB0451294330BD6FEA040482
:100420001F3C1CDA0C340EDC04F11404C4F120026D
:1004300020FA04F001FA02F340EA030021FA04F37F
:1004400045EA030130BDC4F10C04C4F1200220FAD6
:1004500002F001FA04F340EA0300294630BD21FA14
:1004600004F0294630BD94F0000F83F4801306BFDA
:1004700081F480110134013D4EE77FEA645C18BFCE
:100480007FEA655C29D094EA050F08BF90EA020F65
:1004900005D054EA000C04BF1946104630BD91EA5D
:1004A000030F1EBF0021002030BD5FEA545C05D160
:1004B0004000494128BF41F0004130BD14F580049F
:1004C0003CBF01F5801130BD01F0004545F0FE4113
:1004D00041F470014FF0000030BD7FEA645C1ABF48
:1004E000194610467FEA655C1CBF0B46024650EA7F
:1004F000013406BF52EA033591EA030F41F40021AB
:1005000030BD00BF90F0000F04BF0021704730B530
:100510004FF4806404F132044FF000054FF0000105
:1005200050E700BF90F0000F04BF0021704730B5C6
:100530004FF4806404F1320410F0004548BF40429B
:100540004FF000013EE700BF42004FEAE2014FEAF0
:1005500031014FEA02701FBF12F07F4393F07F4FCB
:1005600081F06051704732F07F4208BF704793F0CE
:100570007F4F04BF41F40021704730B54FF46074E1
:1005800001F0004521F000411CE700BF50EA0102E4
:1005900008BF704730B54FF000050AE050EA01028D
:1005A00008BF704730B511F0004502D5404261EBFD
:1005B00041014FF4806404F132045FEA915C3FF43E
:1005C000D8AE4FF003025FEADC0C18BF03325FEADB
:1005D000DC0C18BF033202EBDC02C2F1200300FA8C
:1005E00003FC20FA02F001FA03FE40EA0E0021FAB1
:1005F00002F11444BDE600BF70B54FF0FF0C4CF49F
:10060000E06C1CEA11541DBF1CEA135594EA0C0F50
:1006100095EA0C0F00F0DEF82C4481EA030621EA8B
:100620004C5123EA4C5350EA013518BF52EA0335C6
:1006300041F4801143F4801338D0A0FB02CE4FF078
:100640000005E1FB02E506F00042E0FB03E54FF0A8
:100650000006E1FB03569CF0000F18BF4EF0010EA0
:10066000A4F1FF04B6F5007F64F5407404D25FEA9C
:100670004E0E6D4146EB060642EAC62141EA55514F
:100680004FEAC52040EA5E504FEACE2EB4F1FD0C91
:1006900088BFBCF5E06F1ED8BEF1004F08BF5FEA0F
:1006A000500E50F1000041EB045170BD06F00046C1
:1006B00046EA010140EA020081EA0301B4EB5C046E
:1006C000C2BFD4EB0C0541EA045170BD41F4801166
:1006D0004FF0000E013C00F3AB8014F1360FDEBF8B
:1006E000002001F0004170BDC4F10004203C35DA67
:1006F0000C341BDC04F11404C4F1200500FA05F3EA
:1007000020FA04F001FA05F240EA020001F000428A
:1007100021F0004110EBD37021FA04F642EB060100
:100720005EEA430E08BF20EAD37070BDC4F10C042A
:10073000C4F1200500FA04F320FA05F001FA04F2EE
:1007400040EA020001F0004110EBD37041F10001DA
:100750005EEA430E08BF20EAD37070BDC4F12005E5
:1007600000FA05F24EEA020E20FA04F301FA05F24D
:1007700043EA020321FA04F001F0004121FA04F2F5
:1007800020EA020000EBD3705EEA430E08BF20EAC5
:10079000D37070BD94F0000F0FD101F000464000FF
:1007A00041EB010111F4801F08BF013CF7D041EA81
:1007B000060195F0000F18BF704703F00046520085
:1007C00043EB030313F4801F08BF013DF7D043EA56
:1007D0000603704794EA0C0F0CEA135518BF95EA0C
:1007E0000C0F0CD050EA410618BF52EA4306D1D193
:1007F00081EA030101F000414FF0000070BD50EAB2
:10080000410606BF1046194652EA430619D094EA3B
:100810000C0F02D150EA013613D195EA0C0F05D125
:1008200052EA03361CBF104619460AD181EA030179
:1008300001F0004141F0FE4141F470014FF0000031
:1008400070BD41F0FE4141F4780170BD70B54FF0CC
:10085000FF0C4CF4E06C1CEA11541DBF1CEA13554C
:1008600094EA0C0F95EA0C0F00F0A7F8A4EB05042E
:1008700081EA030E52EA03354FEA013100F0888025
:100880004FEA03334FF0805545EA131343EA1263EE
:100890004FEA022245EA111545EA10654FEA0026A3
:1008A0000EF000419D4208BF964244F1FD0404F55C
:1008B000407402D25B084FEA3202B61A65EB0305B8
:1008C0005B084FEA32024FF480104FF4002CB6EB75
:1008D000020E75EB030E22BFB61A754640EA0C00F5
:1008E0005B084FEA3202B6EB020E75EB030E22BF35
:1008F000B61A754640EA5C005B084FEA3202B6EB76
:10090000020E75EB030E22BFB61A754640EA9C0034
:100910005B084FEA3202B6EB020E75EB030E22BF04
:10092000B61A754640EADC0055EA060E18D04FEAC2
:10093000051545EA16754FEA06164FEAC30343EA62
:1009400052734FEAC2025FEA1C1CC0D111F4801F2F
:100950000BD141EA00014FF000004FF0004CB6E728
:1009600011F4801F04BF01430020B4F1FD0C88BFC7
:10097000BCF5E06F3FF6AFAEB5EB030C04BFB6EBD2
:10098000020C5FEA500C50F1000041EB045170BDC5
:100990000EF0004E4EEA113114EB5C04C2BFD4EBF2
:1009A0000C0541EA045170BD41F480114FF0000E76
:1009B000013C90E645EA060E8DE60CEA135594EAF2
:1009C0000C0F08BF95EA0C0F3FF43BAF94EA0C0FF5
:1009D0000AD150EA01347FF434AF95EA0C0F7FF46A
:1009E00025AF104619462CE795EA0C0F06D152EABE
:1009F00003353FF4FDAE1046194622E750EA4106A2
:100A000018BF52EA43067FF4C5AE50EA41047FF4B2
:100A10000DAF52EA43057FF4EBAE12E74FF0FF3C17
:100A200006E000BF4FF0010C02E000BF4FF0010CE8
:100A30004DF804CD4FEA410C7FEA6C5C4FEA430C61
:100A400018BF7FEA6C5C1BD001B050EA410C0CBFB0
:100A500052EA430C91EA030F02BF90EA020F002012
:100A6000704710F1000F91EA030F58BF994208BF79
:100A700090422CBFD8176FEAE37040F00100704736
:100A80004FEA410C7FEA6C5C02D150EA013C07D18D
:100A90004FEA430C7FEA6C5CD6D152EA033CD3D0D8
:100AA0005DF8040B704700BF8446104662468C46D2
:100AB0001946634600E000BF01B5FFF7B7FF002805
:100AC00048BF10F1000F01BD4DF808EDFFF7F4FF2E
:100AD0000CBF012000205DF808FB00BF4DF808EDB9
:100AE000FFF7EAFF34BF012000205DF808FB00BFDC
:100AF0004DF808EDFFF7E0FF94BF012000205DF8FE
:100B000008FB00BF4DF808EDFFF7CEFF94BF0120B2
:100B100000205DF808FB00BF4DF808EDFFF7C4FFAB
:100B200034BF012000205DF808FB00BF4FEA410CF4
:100B30007FEA6C5C02D150EA013C0AD14FEA430CD7
:100B40007FEA6C5C02D152EA033C02D14FF0000014
:100B500070474FF0010070474FEA410212F5001252
:100B600015D211D56FF47873B3EB625212D94FEAF4
:100B7000C12343F0004343EA505311F0004F23FADE
:100B800002F018BF404270474FF00000704750EA33
:100B9000013005D111F0004008BF6FF000407047F0
:100BA0004FF00000704700BF4A0011D212F500124A
:100BB00011D20DD56FF47873B3EB62520ED44FEAB5
:100BC000C12343F0004343EA505323FA02F0704735
:100BD0004FF00000704750EA013002D14FF0FF3073
:100BE00070474FF0000070474FEA4102B2F1E04316
:100BF00024BFB3F5001CDCF1FE5C0DD901F0004C04
:100C00004FEAC0024CEA5070B2F1004F40EB830053
:100C100008BF20F00100704711F0804F21D113F17F
:100C20003872BCBF01F00040704741F480114FEAB8
:100C30005252C2F11802C2F1200C10FA0CF320FA41
:100C400002F018BF40F001004FEAC1234FEAD3235E
:100C500003FA0CFC40EA0C0023FA02F34FEA4303C8
:100C6000CCE77FEA625307D150EA01331EBF4FF051
:100C7000FE4040F44000704701F0004040F0FE406C
:100C800040F40000704700BF53B94AB9002908BFBB
:100C900000281CBF4FF0FF314FF0FF3000F0AAB921
:100CA000ADF1080C6DE904CE00F03CF8DDF804E08D
:100CB000DDE9022304B0704738B500220023044662
:100CC0000D46FFF70BFF28B920462946BDE83840FE
:100CD00000F00AB8204605F1004100F005F8404256
:100CE00061EB410138BD00BFD0B50C4B0022064678
:100CF0000F46FFF781FCFFF757FF0446FFF702FCA2
:100D0000074B0022FFF778FC02460B463046394677
:100D1000FFF7BAFAFFF748FF2146D0BD0000F03DCB
:100D20000000F0412DE9F047089D04468E46002B57
:100D30004DD18A42944669D9B2FA82F252B101FA8F
:100D400002F3C2F1200120FA01F10CFA02FC41EA9F
:100D5000030E94404FEA1C48210CBEFBF8F61FFA24
:100D60008CF708FB16E341EA034306FB07F19942BF
:100D70000AD91CEB030306F1FF3080F01F81994272
:100D800040F21C81023E63445B1AA4B2B3FBF8F04C
:100D900008FB103344EA034400FB07F7A7420AD9D3
:100DA0001CEB040400F1FF3380F00A81A74240F2FB
:100DB00007816444023840EA0640E41B00261DB166
:100DC000D4400023C5E900433146BDE8F0878B429B
:100DD00009D9002D00F0EF800026C5E9000130465A
:100DE0003146BDE8F087B3FA83F6002E4AD18B4234
:100DF00002D3824200F2F980841A61EB03030120DE
:100E00009E46002DE0D0C5E9004EDDE702B9FFDEC9
:100E1000B2FA82F2002A40F09280A1EB0C014FEA74
:100E20001C471FFA8CFE0126200CB1FBF7F307FBD1
:100E3000131140EA01410EFB03F0884208D91CEB74
:100E4000010103F1FF3802D2884200F2CB80434611
:100E5000091AA4B2B1FBF7F007FB101144EA0144F0
:100E60000EFB00FEA64508D91CEB040400F1FF317F
:100E700002D2A64500F2BB800846A4EB0E0440EA6D
:100E800003409CE7C6F12007B34022FA07FC4CEA76
:100E9000030C20FA07F401FA06F31C43F9404FEA69
:100EA0001C4900FA06F3B1FBF9F8200C1FFA8CFE7E
:100EB00009FB181140EA014108FB0EF0884202FAD2
:100EC00006F20BD91CEB010108F1FF3A80F0888093
:100ED000884240F28580A8F102086144091AA4B250
:100EE000B1FBF9F009FB101144EA014100FB0EFED1
:100EF0008E4508D91CEB010100F1FF346CD28E4500
:100F00006AD90238614440EA0840A0FB0294A1EB90
:100F10000E01A142C846A64656D353D05DB1B3EBED
:100F2000080261EB0E0101FA07F722FA06F3F1401D
:100F30001F43C5E9007100263146BDE8F087C2F1C4
:100F40002003D8400CFA02FC21FA03F3914001433C
:100F50004FEA1C471FFA8CFEB3FBF7F007FB103675
:100F60000B0C43EA064300FB0EF69E4204FA02F421
:100F700008D91CEB030300F1FF382FD29E422DD974
:100F8000023863449B1B89B2B3FBF7F607FB1633A9
:100F900041EA034106FB0EF38B4208D91CEB010129
:100FA00006F1FF3816D28B4214D9023E6144C91AA9
:100FB00046EA004638E72E46284605E70646E3E6B9
:100FC0001846F8E64B45A9D2B9EB020864EB0C0EC3
:100FD0000138A3E74646EAE7204694E74046D1E7D2
:100FE000D0467BE7023B614432E7304609E7644480
:100FF000023842E7704700BF80B584B000AF3B467F
:1010000000221A605A609A60DA60214B214A1A6005
:101010001F4B4FF480325A601D4B00229A601C4BCC
:1010200000221A611A4B00221A76194B002283F80B
:101030002020174B0022DA62154B174A9A62144B94
:101040000022DA60124B0122DA61114B002283F890
:1010500030200F4B01225A610D4801F0DFFF03469B
:10106000002B01D000F0B2FC05233B6001237B6024
:101070000023BB603B461946054802F013F80346BF
:10108000002B01D000F0A2FC00BF1037BD4680BD90
:10109000B0020020002001400100000F80B58AB09E
:1010A00000AF786007F1140300221A605A609A605A
:1010B000DA601A617B681B68174A934227D10023C4
:1010C0003B61164B5B6C154A43F480735364134BBE
:1010D0005B6C03F480733B613B690023FB600F4B47
:1010E0001B6B0E4A43F0010313630C4B1B6B03F0A5
:1010F0000103FB60FB6820237B610323BB610023AA
:10110000FB6107F114031946054802F0C3FE00BF56
:101110002837BD4680BD00BF002001400038024096
:101120000000024080B500AF1F4B204A1A60204BE0
:1011300000221A701E4B80225A701D4BE1229A70B9
:101140001B4B0022DA701A4B00221A71184B002236
:101150005A71154B164A5A60134B4FF400029A60AD
:10116000114B144ADA60104B134A1A610E4B40F2CD
:10117000F4525A610C4802F065FB0346002B01D083
:1011800000F024FC382200210C4808F085FF0B4BAE
:1011900021221A60094B4FF440025A61074B00228A
:1011A0001A6100BF80BD00BF7004002000800240B3
:1011B0002005002098030020F802002038040020B9
:1011C00080B58EB000AF786007F1240300221A606A
:1011D0005A609A60DA601A617B681B68464A9342DB
:1011E00040F0858000233B62444B1B6B434A43F035
:1011F00000731363414B1B6B03F000733B623B6A4C
:101200000023FB613D4B1B6B3C4A43F0806313633F
:101210003A4B1B6B03F08063FB61FB690023BB61EE
:10122000364B1B6B354A43F000631363334B1B6B28
:1012300003F00063BB61BB6900237B612F4B1B6B19
:101240002E4A43F0040313632C4B1B6B03F004037F
:101250007B617B6900233B61284B1B6B274A43F072
:1012600001031363254B1B6B03F001033B613B69D7
:101270000023FB60214B1B6B204A43F002031363E6
:101280001E4B1B6B03F00203FB60FB6832237B6287
:101290000223BB620023FB6203233B630B237B63BC
:1012A00007F124031946164802F0F4FD86237B62F9
:1012B0000223BB620023FB6203233B630B237B639C
:1012C00007F1240319460F4802F0E4FD4FF4605380
:1012D0007B620223BB620023FB6203233B630B237D
:1012E0007B6307F124031946074802F0D3FD00BFD2
:1012F0003837BD4680BD00BF008002400038024044
:1013000000080240000002400004024080B58CB09A
:1013100000AF07F11C0300221A605A609A60DA607D
:101320001A610023BB61634B1B6B624A43F01003DD
:101330001363604B1B6B03F01003BB61BB6900239D
:101340007B615C4B1B6B5B4A43F080031363594B1F
:101350001B6B03F080037B617B6900233B61554B72
:101360001B6B544A43F004031363524B1B6B03F093
:1013700004033B613B690023FB604E4B1B6B4D4AF2
:1013800043F0010313634B4B1B6B03F00103FB6042
:10139000FB680023BB60474B1B6B464A43F00203CC
:1013A0001363444B1B6B03F00203BB60BB68002359
:1013B0007B60404B1B6B3F4A43F0080313633D4B7C
:1013C0001B6B03F008037B607B6800224FF69B7168
:1013D000394802F0FBFE00224FF40161374802F069
:1013E000F5FE00224CF20301354802F0EFFE002228
:1013F00043F61B71334802F0E9FE4FF69B73FB6125
:1014000001233B6200237B620023BB6207F11C03C4
:101410001946294802F03EFD1023FB6101233B627F
:1014200002237B620023BB6207F11C031946234899
:1014300002F030FD4CF20303FB6101233B62002309
:101440007B620023BB6207F11C0319461C4802F0B3
:1014500021FD43F61B73FB6101233B6200237B628A
:101460000023BB6207F11C031946164802F012FD67
:101470004FF44043FB614FF488133B6200237B62CF
:1014800007F11C0319460F4802F004FD4FF40063F6
:10149000FB6101233B6200237B620023BB6207F1F7
:1014A0001C031946054802F0F5FC00BF3037BD4665
:1014B00080BD00BF00380240001002400000024022
:1014C00000040240000C024080B500AF124B134AEA
:1014D0001A60114B124A5A600F4B00229A600E4B51
:1014E0000022DA600C4B4FF480421A610A4B002252
:1014F0005A61094B00229A61074B0022DA61064BC0
:1015000000221A62044802F07BFE0346002B01D041
:1015100000F05CFA00BF80BD2805002000540040A8
:10152000A086010080B500AF124B134A1A60114B20
:10153000124A5A600F4B00229A600E4B0022DA606A
:101540000C4B4FF480421A610A4B00225A61094B3E
:1015500000229A61074B0022DA61064B00221A62D0
:10156000044802F04DFE0346002B01D000F02EFA95
:1015700000BF80BD7C050020005C0040A08601000B
:1015800080B58CB000AF786007F11C0300221A60B0
:101590005A609A60DA601A617B681B684A4A934213
:1015A0002CD10023BB61494B1B6B484A43F002031B
:1015B0001363464B1B6B03F00203BB61BB69C02383
:1015C000FB6112233B6200237B620323BB62042383
:1015D000FB6207F11C0319463D4802F05BFC002347
:1015E0007B613A4B1B6C394A43F400131364374B4D
:1015F0001B6C03F400137B617B6960E07B681B68F4
:10160000344A93425BD100233B61304B1B6B2F4A22
:1016100043F0040313632D4B1B6B03F004033B6186
:101620003B690023FB60294B1B6B284A43F00103F5
:101630001363264B1B6B03F00103FB60FB684FF445
:101640000073FB6112233B6200237B620323BB62B6
:101650000423FB6207F11C0319461F4802F01AFC21
:101660004FF48073FB6112233B6200237B620323F0
:10167000BB620423FB6207F11C031946174802F002
:1016800009FC0023BB60114B1B6C104A43F40003A0
:1016900013640E4B1B6C03F40003BB60BB68002299
:1016A0000021482001F0F7FF482002F010F8002246
:1016B0000021492001F0EFFF492002F008F800BFA7
:1016C0003037BD4680BD00BF0054004000380240A6
:1016D00000040240005C004000080240000002409C
:1016E00080B582B000AF7860391D4FF6FF730122DC
:1016F000034807F07CFC7B6818460837BD4680BD70
:101700002809002090B585B004AF01F0F1FB00F08E
:101710009BF8FFF7FBFDFFF76FFCFFF703FDFFF7FB
:10172000D3FEFFF7FFFE00F06FFA00F0A3FA00F01F
:1017300021FD00F073FD00F0C5FD00F08DFE00F00E
:1017400037FF01F077FA01F09FFA00F0C3FC00F0D8
:1017500035FE01F049FB2E4B6C4603F1100207CA1F
:1017600084E807000FCB01F023F90021294805F098
:10177000D1FF0421274805F0CDFF3C21264806F083
:10178000AFFA3C21254806F0ABFA254805F0F8FEF3
:10179000244802F035FD4FF0804300225A62224B6C
:1017A00000225A624FF080435B6A9AB21F4B1A8044
:1017B0001D4B5B6A9AB21D4B5A8001211C4800F0F8
:1017C00003FA01211B4800F0FFF900211A4800F03C
:1017D000BDF9194800F000F9174800F05BF9164B05
:1017E000B3F928301A46144BB3F92A301946124B74
:1017F000B3F92C3000930B461049114809F0D4FA84
:10180000642380220E490F4807F0F1FBE4E700BF94
:10181000C4E9000880080020A80700206007002015
:10182000380800207C0500200004004054060020F9
:10183000540000208400002000000020A0E90008DF
:10184000D00500202809002080B594B000AF07F132
:10185000200330220021184608F01EFC07F10C037B
:1018600000221A605A609A60DA601A610023BB6035
:10187000284B1B6C274A43F080531364254B1B6C89
:1018800003F08053BB60BB6800237B60224B1B6866
:10189000214A43F4804313601F4B1B6803F48043C9
:1018A0007B607B6801233B624FF480337B620223C1
:1018B000BB634FF48003FB6319233B644FF4A873AD
:1018C0007B640223BB640423FB6407F120031846F6
:1018D00005F026F90346002B01D000F077F80F231E
:1018E000FB6002233B6100237B614FF4A053BB618B
:1018F0004FF48053FB6107F10C030521184605F0F6
:1019000087FB0346002B01D000F060F800BF503782
:10191000BD4680BD0038024000700040B0B586B0C2
:1019200004AF7860074C6D4604F10C030FCB85E8DB
:101930000F0094E80E00786801F052F800BF0837F5
:10194000BD46B0BDC4E9000880B582B000AF786084
:1019500001220549054807F0DCFB054B01221A70FE
:1019600000BF0837BD4680BD500600202809002072
:101970005806002080B483B000AF78607B68064AC8
:10198000934202D1054B01221A7000BF0C37BD46AD
:101990005DF8047B704700BF38080020590600201E
:1019A00080B582B000AF78607B68064A934205D16B
:1019B00001224FF48061044802F008FC00BF0837A0
:1019C000BD4680BD7C050020000C024080B400AF05
:1019D00072B600BFFEE7000080B586B004AF786045
:1019E0007B6818680A23029301230193274B009315
:1019F00001237522D02102F041FE244B1B78682B75
:101A00003FD1234B00221A707B6818680A23029387
:101A1000012301931E4B009301236B22D02102F07E
:101A200033FD1B4B07221A707B6818680A23029348
:101A300001230193164B009301231922D02102F0B8
:101A400023FD134B00221A707B6818680A23029347
:101A5000012301930E4B009301231C22D02102F09D
:101A600013FD0B4B00221A707B6818680A2302933F
:101A700001230193064B009301231B22D02102F086
:101A800003FD00BF0837BD4680BD00BF5B060020D8
:101A90005A06002080B586B004AF78607B6818686D
:101AA0000A23029306230193264B009301233B2232
:101AB000D02102F0E3FD234B1B781B021AB2214B0D
:101AC0005B781BB213431AB27B681A851D4B9B7857
:101AD0001B021AB21B4BDB781BB213431AB27B6892
:101AE0005A85184B1B791B021AB2164B5B791BB235
:101AF00013431AB27B689A857B68B3F92830002BB0
:101B000000DA0F331B111AB27B681A857B68B3F9B0
:101B10002A30002B00DA0F331B111AB27B685A856A
:101B20007B68B3F92C30084A82FB03121A44D210A6
:101B3000DB17D31A1AB27B689A8500BF0837BD46F7
:101B400080BD00BF5C0600209324499280B586B01A
:101B500004AF78600B46FB701A4B00221A707B684A
:101B600018680A23029301230193164B0093012363
:101B70006A22D02102F088FCFB785B00DAB2114BBC
:101B80001A707B6818680A230293012301930D4B96
:101B9000009301233722D02102F076FC094B00226A
:101BA0001A707B6818680A23029301230193054B7E
:101BB000009301236B22D02102F066FC00BF08379E
:101BC000BD4680BD5A06002080B483B000AF786067
:101BD0000B46FB707B68FA7883F825207B684FF012
:101BE0000002DA617B684FF000025A617B684FF0B7
:101BF00000021A627B68002283F8242000BF0C37A1
:101C0000BD465DF8047B704780B500AF174B184A9E
:101C10001A60164B4FF482725A60144B00229A607D
:101C2000124B0022DA60114B00221A610F4B002286
:101C30005A610E4B4FF400729A610C4B0022DA612C
:101C40000A4B00221A62094B00225A62074B0022FB
:101C50009A62064B0A22DA62044805F0B9FB034691
:101C6000002B01D0FFF7B2FE00BF80BD640600204C
:101C70000038004080B500AF174B184A1A60164B69
:101C80004FF482725A60144B00229A60124B002269
:101C9000DA60114B00221A610F4B00225A610E4B81
:101CA0004FF400729A610C4B0022DA610A4B002259
:101CB0001A62094B00225A62074B00229A62064BB5
:101CC0000A22DA62044805F083FB0346002B01D0A8
:101CD000FFF77CFE00BF80BDBC060020003C00403A
:101CE00080B58CB000AF786007F11C0300221A6049
:101CF0005A609A60DA601A617B681B68424A9342B4
:101D00004BD10023BB61414B1B6C404A43F48043E1
:101D100013643E4B1B6C03F48043BB61BB6900231F
:101D20007B613A4B1B6B394A43F004031363374B17
:101D30001B6B03F004037B617B6900233B61334B26
:101D40001B6B324A43F002031363304B1B6B03F0EF
:101D500002033B613B690C23FB6102233B620023CE
:101D60007B620323BB620523FB6207F11C03194658
:101D7000274802F08FF84FF48063FB6102233B6237
:101D800000237B620323BB620523FB6207F11C0374
:101D90001946204802F07EF831E07B681B681E4A35
:101DA00093422CD10023FB60184B1B6C174A43F461
:101DB00000431364154B1B6C03F40043FB60FB688A
:101DC0000023BB60114B1B6B104A43F004031363E9
:101DD0000E4B1B6B03F00403BB60BB684FF4E05376
:101DE000FB6102233B6200237B620323BB62062369
:101DF000FB6207F11C031946054802F04BF800BFCF
:101E00003037BD4680BD00BF00380040003802407A
:101E10000008024000040240003C004080B483B04F
:101E200000AF00237B60104B5B6C0F4A43F4804390
:101E300053640D4B5B6C03F480437B607B68002331
:101E40003B60094B1B6C084A43F080531364064BFC
:101E50001B6C03F080533B603B6800BF0C37BD46F2
:101E60005DF8047B704700BF0038024080B400AFCB
:101E7000FEE780B400AFFEE780B400AFFEE780B4B9
:101E800000AFFEE780B400AFFEE780B400AF00BF54
:101E9000BD465DF8047B704780B400AF00BFBD460F
:101EA0005DF8047B704780B400AF00BFBD465DF8AD
:101EB000047B704780B500AF01F06CF800BF80BDB7
:101EC00080B500AF024805F099FF00BF80BD00BF9C
:101ED000F007002080B500AF024807F04BF900BFC3
:101EE00080BD00BF2809002080B500AF024805F082
:101EF00085FF00BF80BD00BF3808002080B500AF5F
:101F0000024802F0E1FD00BF80BD00BF7C0500205B
:101F100080B500AF024802F048FF00BF80BD00BF9F
:101F20007C05002080B400AF01231846BD465DF853
:101F3000047B704780B582B000AF7860396008F0EC
:101F400081F8034616221A604FF0FF33184608370F
:101F5000BD4680BD80B582B000AF78604FF0FF31E4
:101F60007868FFF7E7FFFEE780B586B000AFF8605E
:101F7000B9607A6000237B610AE0AFF3008001461C
:101F8000BB685A1CBA60CAB21A707B6901337B61A4
:101F90007A697B689A42F0DB7B6818461837BD4641
:101FA00080BD80B586B000AFF860B9607A6000236C
:101FB0007B6109E0BB685A1CBA601B781846FFF7C2
:101FC0008FFB7B6901337B617A697B689A42F1DB25
:101FD0007B6818461837BD4680BD80B483B000AF1B
:101FE00078604FF0FF3318460C37BD465DF8047B30
:101FF000704780B483B000AF786039603B684FF4BD
:1020000000525A60002318460C37BD465DF8047B29
:10201000704780B483B000AF7860012318460C3756
:10202000BD465DF8047B704780B485B000AFF860B2
:10203000B9607A60002318461437BD465DF8047B0A
:102040007047000080B586B000AF7860144A154B29
:10205000D31A7B617B693B61134B1B68002B02D158
:10206000114B124A1A60104B1A687B6813443A6984
:102070009A4207D207F0E6FF03460C221A604FF09F
:10208000FF3309E0084B1B68FB60074B1A687B684D
:102090001344054A1360FB6818461837BD4680BDD7
:1020A000000002200004000014070020C8090020DE
:1020B00080B400AF064BD3F88830054A43F4700370
:1020C000C2F8883000BFBD465DF8047B704700BF92
:1020D00000ED00E080B586B000AF07F108030022F4
:1020E0001A605A609A60DA603B4600221A605A60B1
:1020F0001E4B1F4A1A601D4BA7225A601B4B002221
:102100009A601A4B4FF6FF72DA60184B00221A6180
:10211000164B00225A61154B00229A61134805F0B4
:10212000E0F90346002B01D0FFF750FC4FF4805339
:10213000BB6007F1080319460C4806F0C5F80346D2
:10214000002B01D0FFF742FC00233B6000237B60A3
:102150003B461946054806F01BFE0346002B01D0FE
:10216000FFF734FC00BF1837BD4680BD18070020BC
:102170000000014080B58CB000AF07F10C032422B1
:102180000021184607F088FF3B1D00221A605A60A4
:10219000214B4FF080421A601F4B00225A601E4BA9
:1021A00000229A601C4B4BF64072DA601A4B0022F8
:1021B0001A61194B80229A610323FB6002233B6161
:1021C00001237B610023BB610A23FB6100233B6287
:1021D00001237B620023BB620A23FB6207F10C032D
:1021E00019460D4805F0D6FC0346002B01D0FFF739
:1021F000EDFB00237B600023BB603B1D19460648B6
:1022000006F0C6FD0346002B01D0FFF7DFFB00BF41
:102210003037BD4680BD00BF6007002080B58CB060
:1022200000AF07F10C0324220021184607F034FF09
:102230003B1D00221A605A60204B214A1A601F4B36
:1022400000225A601D4B00229A601C4B4BF64072D4
:10225000DA601A4B00221A61184B80229A6103231C
:10226000FB6000233B6101237B610023BB610A23E8
:10227000FB6100233B6201237B620023BB620A23D4
:10228000FB6207F10C0319460C4805F083FC03467A
:10229000002B01D0FFF79AFB00237B600023BB607B
:1022A0003B1D1946054806F073FD0346002B01D07F
:1022B000FFF78CFB00BF3037BD4680BDA80700206C
:1022C0000004004080B58AB000AF07F11803002277
:1022D0001A605A609A60DA6007F1100300221A60EF
:1022E0005A603B4600221A605A609A60DA60314BAD
:1022F000314A1A602F4B00225A602E4B00229A60FE
:102300002C4B4FF6FF72DA602A4B00221A61294BE0
:1023100000229A61274805F0E4F80346002B01D01B
:10232000FFF754FB4FF48053BB6107F118031946C4
:10233000204805F0C9FF0346002B01D0FFF746FBFC
:102340001C4805F0AFFA0346002B01D0FFF73EFB17
:1023500000233B6100237B6107F1100319461548F8
:1023600006F016FD0346002B01D0FFF72FFB0023DC
:102370003B6001237B600023BB600023FB603B4686
:10238000082219460B4805F041FE0346002B01D0F8
:10239000FFF71CFB3B460C221946064805F036FEAB
:1023A0000346002B01D0FFF711FB00BF2837BD46C5
:1023B00080BD00BFF00700200008004080B586B057
:1023C00000AF07F1080300221A605A609A60DA60D1
:1023D0003B4600221A605A601D4B1E4A1A601C4B75
:1023E00042F210725A601A4B00229A60184B532224
:1023F000DA60174B00221A61154B00229A611448CB
:1024000005F06FF80346002B01D0FFF7DFFA4FF419
:102410008053BB6007F1080319460D4805F054FFCF
:102420000346002B01D0FFF7D1FA00233B600023C5
:102430007B603B461946064806F0AAFC0346002B83
:1024400001D0FFF7C3FA00BF1837BD4680BD00BFFB
:1024500038080020000C004080B596B000AF07F1AE
:10246000480300221A605A609A60DA6007F140035C
:1024700000221A605A6007F1240300221A605A6091
:102480009A60DA601A615A619A613B1D202200212C
:10249000184607F001FE444B444A1A60424B07229B
:1024A0005A60414B00229A603F4B4FF47A72DA60D7
:1024B0003D4B00221A613C4B00225A613A4B80226C
:1024C0009A61394805F00DF80346002B01D0FFF75B
:1024D0007DFA4FF48053BB6407F148031946324834
:1024E00005F0F2FE0346002B01D0FFF76FFA2E48ED
:1024F00005F0B6F80346002B01D0FFF767FA00237A
:102500003B6400237B6407F140031946264806F02C
:102510003FFC0346002B01D0FFF758FA60237B6293
:102520000023BB620023FB6200233B6300237B6329
:102530000023BB630023FB6307F124030022194639
:10254000194805F0FFFD0346002B01D0FFF73EFAC6
:1025500007F1240304221946134805F0F3FD03464E
:10256000002B01D0FFF732FA00237B600023BB6011
:102570000023FB6000233B6100237B614FF4005389
:10258000BB6100233B623B1D1946074806F07CFCFB
:102590000346002B01D0FFF719FA034800F0CEF9EB
:1025A00000BF5837BD4680BD8008002000040140B0
:1025B00080B584B000AF3B4600221A605A609A6032
:1025C000DA601E4B1E4A1A601C4B00225A601B4BDD
:1025D00000229A60194B4FF6FF72DA60174B002207
:1025E0001A61164B00229A61144805F05BF9034604
:1025F000002B01D0FFF7EAF900233B6001237B6049
:102600000023BB600023FB603B46002219460B48B9
:1026100005F0FCFC0346002B01D0FFF7D7F93B4641
:1026200004221946054805F0F1FC0346002B01D0B1
:10263000FFF7CCF900BF1037BD4680BDC8080020A9
:102640000040014080B58CB000AF786007F11C03FA
:1026500000221A605A609A60DA601A617B681B680F
:102660003F4A93420ED10023BB613E4B5B6C3D4A17
:1026700043F0010353643B4B5B6C03F00103BB610C
:10268000BB6969E07B681B68374A934235D10023F8
:102690007B61344B1B6C334A43F004031364314BAE
:1026A0001B6C03F004037B617B6900233B612D4BB2
:1026B0001B6B2C4A43F0020313632A4B1B6B03F082
:1026C00002033B613B694FF44073FB6102233B62B1
:1026D00000237B620023BB620223FB6207F11C0321
:1026E0001946224801F0D6FB002200211E2000F0EE
:1026F000D2FF1E2000F0EBFF2EE07B681B681C4A17
:10270000934216D10023FB60164B1B6C154A43F015
:1027100008031364134B1B6C03F00803FB60FB6896
:1027200000220021322000F0B6FF322000F0CFFF5F
:1027300012E07B681B680F4A93420DD10023BB60F7
:10274000084B5B6C074A43F002035364054B5B6C18
:1027500003F00203BB60BB6800BF3037BD4680BDDD
:102760000000014000380240000800400004024020
:10277000000C00400004014080B58CB000AF7860D0
:1027800007F11C0300221A605A609A60DA601A612D
:102790007B681B68B3F1804F4BD10023BB613F4B7B
:1027A0001B6C3E4A43F0010313643C4B1B6C03F06B
:1027B0000103BB61BB6900237B61384B1B6B374A4C
:1027C00043F001031363354B1B6B03F001037B6183
:1027D0007B6900233B61314B1B6B304A43F00203A2
:1027E00013632E4B1B6B03F002033B613B694FF4F9
:1027F0000043FB6102233B6200237B620023BB6238
:102800000123FB6207F11C031946254801F042FB36
:102810000823FB6102233B6200237B620023BB622F
:102820000123FB6207F11C0319461E4801F032FB2D
:1028300030E07B681B681C4A93422BD10023FB606D
:10284000164B1B6C154A43F002031364134B1B6CAD
:1028500003F00203FB60FB680023BB600F4B1B6BA4
:102860000E4A43F0020313630C4B1B6B03F002038D
:10287000BB60BB683023FB6102233B6200237B62A9
:102880000023BB620223FB6207F11C0319460548C3
:1028900001F000FB00BF3037BD4680BD003802406C
:1028A00000000240000402400004004080B58AB0ED
:1028B00000AF786007F1140300221A605A609A6032
:1028C000DA601A617B681B68194A93422BD1002396
:1028D0003B61184B5B6C174A43F480335364154BD0
:1028E0005B6C03F480333B613B690023FB60114B5D
:1028F0001B6B104A43F0100313630E4B1B6B03F06A
:102900001003FB60FB6860237B610223BB61002333
:10291000FB6100233B6203237B6207F1140319462A
:10292000054801F0B7FA00BF2837BD4680BD00BF9B
:1029300000400140003802400010024080B588B0DD
:1029400000AF786007F10C0300221A605A609A60A9
:10295000DA601A617B681B68124A93421DD100231A
:10296000BB60114B1B6B104A43F0040313630E4B07
:102970001B6B03F00403BB60BB68C023FB60022336
:102980003B6100237B610023BB610323FB6107F1F3
:102990000C031946054801F07DFA00BF2037BD46FB
:1029A00080BD00BF00040140003802400008024022
:1029B00084B080B500AF07F1080C8CE80F003B69CC
:1029C000184604F0DDFD3B69BA691146184604F06B
:1029D000B9FF00BFBD46BDE8804004B070470000AD
:1029E00084B0B0B582B000AF786007F11C0080E819
:1029F0000E007B681A68BB6A9A4240F00D817B68C2
:102A00001B7F1A46FB6A9A4240F00681884B1B786E
:102A100083F00103DBB2002B66D0FB6A19467868AD
:102A200005F01AFD0346824A9360814B01221A7019
:102A30007F4B00225A80FB6A002B08D17B681B6801
:102A40001A6A7B681B6822F00A021A621FE0FB6A9E
:102A5000042B08D17B681B681B6A7A68126823F014
:102A6000A003136213E0FB6A082B08D17B681B6884
:102A70001B6A7A68126823F42063136207E07B689C
:102A80001B681B6A7A68126823F420431362FB6A8E
:102A9000002B08D17B681B681A6A7B681B6842F0B0
:102AA00002021A62B8E0FB6A042B08D17B681B683B
:102AB0001B6A7A68126843F020031362ACE0FB6A79
:102AC000082B08D17B681B681B6A7A68126843F47C
:102AD00000731362A0E07B681B681B6A7A68126847
:102AE00043F40053136297E0FB6A1946786805F0D7
:102AF000B3FC03464E4AD360BB6ADB6A4C4A536060
:102B00004B4BDA684A4B5B881946494B5B6801338B
:102B100001FB03F31344464AD360454BDA68444B48
:102B20009B68D31A424A1361414B1B691846FDF753
:102B3000E9FC3DA3D3E90023FDF75EFD02460B4609
:102B400014461D463A6B7B6BB2FBF3F31846FDF758
:102B5000D9FC02460B4620462946FDF777FE024681
:102B60000B4610461946FEF73FF80346304A5361BC
:102B70002F4B00221A70FB6A002B08D17B681B6860
:102B80001A6A7B681B6822F00A021A621FE0FB6A5D
:102B9000042B08D17B681B681B6A7A68126823F0D3
:102BA000A003136213E0FB6A082B08D17B681B6843
:102BB0001B6A7A68126823F42063136207E07B685B
:102BC0001B681B6A7A68126823F420431362FB6A4D
:102BD000002B06D17B681A687B681B68126A1A6230
:102BE0001AE0FB6A042B06D17B681B687A681268BE
:102BF0001B6A136210E0FB6A082B06D17B681B6816
:102C00007A6812681B6A136206E07B681B687A6840
:102C100012681B6A1362FFE700BF0837BD46BDE8B4
:102C2000B04004B0704700BF9CC420B07268913FB0
:102C30001009002080B500AF114B124A1A60104BEA
:102C40004FF4E1325A600E4B00229A600C4B002286
:102C5000DA600B4B00221A61094B0C225A61084BB7
:102C600000229A61064B0022DA61054806F072F9EB
:102C70000346002B01D0FEF7A9FE00BF80BD00BFB8
:102C8000280900200010014080B500AF114B124A06
:102C90001A60104B4FF4E1325A600E4B00229A60DA
:102CA0000C4B0022DA600B4B00221A61094B0C22FC
:102CB0005A61084B00229A61064B0022DA610548EE
:102CC00006F048F90346002B01D0FEF77FFE00BF57
:102CD00080BD00BF6C0900200044004080B58CB06E
:102CE00000AF786007F11C0300221A605A609A60F6
:102CF000DA601A617B681B68364A934235D100233B
:102D0000BB61354B5B6C344A43F010035364324B68
:102D10005B6C03F01003BB61BB6900237B612E4B2E
:102D20001B6B2D4A43F0010313632B4B1B6B03F00A
:102D300001037B617B694FF4C063FB6102233B624B
:102D400000237B620323BB620723FB6207F11C03A2
:102D50001946224801F09EF800220021252000F0AB
:102D60009AFC252000F0B3FC30E07B681B681C4A0D
:102D700093422BD100233B61174B1B6C164A43F443
:102D800000331364144B1B6C03F400333B613B6949
:102D90000023FB60104B1B6B0F4A43F008031363C7
:102DA0000D4B1B6B03F00803FB60FB686023FB61AA
:102DB00002233B6200237B620323BB620723FB6287
:102DC00007F11C031946074801F064F800BF3037CB
:102DD000BD4680BD001001400038024000000240A6
:102DE00000440040000C024080B586B000AF07F1FF
:102DF000080300221A605A609A60DA603B4600229B
:102E00001A605A60224B234A1A6004F0ADFA034656
:102E1000214AA2FB03239B0C013B1D4A53601C4B20
:102E200000229A601A4B4FF6FF72DA60184B0022AC
:102E30001A61174B00225A61154B00229A611448FF
:102E400004F04FFB0346002B01D0FEF7BFFD4FF40B
:102E50008053BB6007F1080319460D4805F034FAAA
:102E60000346002B01D0FEF7B1FD00233B60002399
:102E70007B603B461946064805F08AFF0346002B57
:102E800001D0FEF7A3FD00BF1837BD4680BD00BFCF
:102E9000180700200000014083DE1B43DFF834D018
:102EA0000D480E490E4A002302E0D458C4500433A2
:102EB000C4188C42F9D30B4A0B4C002301E0136079
:102EC0000432A242FBD3FFF7F3F807F0C1F8FEF794
:102ED00019FC70470000022000000020940200202E
:102EE000ACEE000894020020C4090020FEE70000B8
:102EF00080B500AF0E4B1B680D4A43F4007313609E
:102F00000B4B1B680A4A43F480631360084B1B6831
:102F1000074A43F480731360032000F0B1FB0F20D5
:102F200000F008F8FEF77AFF0023184680BD00BFC6
:102F3000003C024080B582B000AF7860124B1A6846
:102F4000124B1B7819464FF47A73B3FBF1F3B2FBC3
:102F5000F3F3184600F0C9FB0346002B01D0012310
:102F60000EE07B680F2B0AD8002279684FF0FF3003
:102F700000F091FB064A7B681360002300E0012308
:102F800018460837BD4680BDB4000020BC000020B4
:102F9000B800002080B400AF064B1B781A46064BE1
:102FA0001B681344044A136000BFBD465DF8047BF0
:102FB000704700BFBC000020B009002080B400AF03
:102FC000034B1B681846BD465DF8047B704700BF85
:102FD000B009002080B584B000AF7860FFF7EEFF45
:102FE000B8607B68FB60FB68B3F1FF3F05D00A4B1C
:102FF0001B781A46FB681344FB6000BFFFF7DEFF37
:103000000246BB68D31AFA689A42F7D800BF00BFDD
:103010001037BD4680BD00BFBC00002080B584B025
:1030200000AF78600023FB737B68002B01D1012384
:1030300033E07B681B6C002B09D17868FEF72EF813
:103040007B6800225A647B68002283F83C207B68FE
:103050001B6C03F01003002B18D17B681B6C23F44E
:10306000885323F0020343F002027B681A647868F5
:1030700000F03AF97B6800225A647B681B6C23F0ED
:10308000030343F001027B681A6401E00123FB7330
:103090007B68002283F83C20FB7B18461037BD4636
:1030A00080BD000080B485B000AF78603960002337
:1030B000BB607B6893F83C30012B01D1022305E112
:1030C0007B68012283F83C203B681B68092B25D9CB
:1030D0007B681B68D9683B681B689BB21A4613461D
:1030E0005B0013441E3B072202FA03F3DA437B68BA
:1030F0001B680A40DA607B681B68D9683B689A687D
:103100003B681B689BB2184603465B0003441E3BAA
:103110009A407B681B680A43DA6022E07B681B6880
:1031200019693B681B689BB21A4613465B0013443F
:10313000072202FA03F3DA437B681B680A401A612C
:103140007B681B6819693B689A683B681B689BB27F
:10315000184603465B0003449A407B681B680A4399
:103160001A613B685B68062B24D87B681B68596B27
:103170003B685A6813469B001344053B1F2202FA22
:1031800003F3DA437B681B680A405A637B681B6859
:10319000596B3B681B689BB218463B685A681346DC
:1031A0009B001344053B00FA03F27B681B680A434B
:1031B0005A634CE03B685B680C2B24D87B681B6827
:1031C000196B3B685A6813469B001344233B1F222C
:1031D00002FA03F3DA437B681B680A401A637B68D0
:1031E0001B68196B3B681B689BB218463B685A68A2
:1031F00013469B001344233B00FA03F27B681B68D1
:103200000A431A6323E07B681B68D96A3B685A68E3
:1032100013469B001344413B1F2202FA03F3DA4397
:103220007B681B680A40DA627B681B68D96A3B6866
:103230001B689BB218463B685A6813469B001344B0
:10324000413B00FA03F27B681B680A43DA62224BB7
:10325000FB607B681B68214A934209D13B681B686D
:10326000122B05D1FB685B6843F48002FB685A604F
:103270007B681B68194A934223D13B681B68102B5B
:1032800003D03B681B68112B1BD1FB685B6843F4C0
:103290000002FB685A603B681B68102B11D1104B71
:1032A0001B68104AA2FB03239A0C13469B0013448D
:1032B0005B00BB6002E0BB68013BBB60BB68002BEE
:1032C000F9D17B68002283F83C200023184614378C
:1032D000BD465DF8047B704700230140002001409B
:1032E000B400002083DE1B4380B485B000AF78605B
:1032F000794BFB60FB685B6823F44032FB685A60E3
:10330000FB685A687B685B681A43FB685A607B6895
:103310001B685A687B681B6822F480725A607B685D
:103320001B6859687B681B691A027B681B680A4323
:103330005A607B681B685A687B681B6822F0407281
:103340005A607B681B6859687B689A687B681B6851
:103350000A435A607B681B689A687B681B6822F482
:1033600000629A607B681B6899687B68DA687B6892
:103370001B680A439A607B689B6A584A934222D032
:103380007B681B689A687B681B6822F070629A6091
:103390007B681B6899687B689A6A7B681B680A432C
:1033A0009A607B681B689A687B681B6822F04052B1
:1033B0009A607B681B6899687B68DA6A7B681B681F
:1033C0000A439A600FE07B681B689A687B681B68F9
:1033D00022F070629A607B681B689A687B681B6841
:1033E00022F040529A607B681B689A687B681B6871
:1033F00022F002029A607B681B6899687B681B7EDA
:103400005A007B681B680A439A607B6893F82030F7
:10341000002B1BD07B681B685A687B681B6842F4D2
:1034200000625A607B681B685A687B681B6822F4DC
:1034300060425A607B681B6859687B685B6A013B25
:103440005A037B681B680A435A6007E07B681B6865
:103450005A687B681B6822F400625A607B681B68AC
:10346000DA6A7B681B6822F47002DA627B681B6888
:10347000D96A7B68DB69013B1A057B681B680A43D4
:10348000DA627B681B689A687B681B6822F40072AA
:103490009A607B681B6899687B6893F830305A02A1
:1034A0007B681B680A439A607B681B689A687B6824
:1034B0001B6822F480629A607B681B6899687B684D
:1034C0005B699A027B681B680A439A6000BF1437E5
:1034D000BD465DF8047B7047002301400100000FEA
:1034E00080B485B000AF78607B6803F00703FB60B1
:1034F0000C4BDB68BB60BA684FF6FF031340BB6040
:10350000FB681A02BB68134343F0BF6343F4003304
:10351000BB60044ABB68D36000BF1437BD465DF88A
:10352000047B704700ED00E080B400AF044BDB6823
:103530001B0A03F007031846BD465DF8047B70477D
:1035400000ED00E080B483B000AF0346FB7197F953
:103550000730002B0BDBFB7903F01F02074997F9BB
:1035600007305B09012000FA02F241F8232000BF76
:103570000C37BD465DF8047B704700BF00E100E0FA
:1035800080B483B000AF03463960FB7197F9073010
:10359000002B0ADB3B68DAB20C4997F907301201BD
:1035A000D2B20B4483F800230AE03B68DAB2084940
:1035B000FB7903F00F03043B1201D2B20B441A76DD
:1035C00000BF0C37BD465DF8047B704700E100E0AA
:1035D00000ED00E080B489B000AFF860B9607A60B7
:1035E000FB6803F00703FB61FB69C3F10703042BCE
:1035F00028BF0423BB61FB690433062B02D9FB6996
:10360000033B00E000237B614FF0FF32BB6902FA0D
:1036100003F3DA43BB681A407B699A404FF0FF31ED
:103620007B6901FA03F3D9437B680B4013431846C7
:103630002437BD465DF8047B7047000080B582B03A
:1036400000AF78607B68013BB3F1807F01D3012339
:103650000FE00A4A7B68013B53600F214FF0FF30B7
:10366000FFF78EFF054B00229A60044B07221A6079
:10367000002318460837BD4680BD00BF10E000E0BB
:1036800080B582B000AF78607868FFF729FF00BF8F
:103690000837BD4680BD80B586B000AF0346B9602F
:1036A0007A60FB7300237B61FFF73EFF78617A68E5
:1036B000B9687869FFF78EFF024697F90F30114617
:1036C0001846FFF75DFF00BF1837BD4680BD80B5C7
:1036D00082B000AF0346FB7197F907301846FFF739
:1036E00031FF00BF0837BD4680BD80B582B000AF56
:1036F00078607868FFF7A2FF034618460837BD4692
:1037000080BD80B584B000AF78607B689B6DFB6046
:10371000FFF754FCB8607B6893F83530DBB2022BBE
:1037200008D07B6880225A657B68002283F83420A9
:10373000012352E07B681B681A687B681B6822F0D3
:1037400016021A607B681B685A697B681B6822F046
:1037500080025A617B681B6C002B03D17B689B6CD9
:10376000002B07D07B681B681A687B681B6822F0F7
:1037700008021A607B681B681A687B681B6822F065
:1037800001021A6013E0FFF719FC0246BB68D31A66
:10379000052B0CD97B6820225A657B68032283F8AD
:1037A00035207B68002283F83420032315E07B68F2
:1037B0001B681B6803F00103002BE4D17B68DB6D01
:1037C0003F229A40FB689A607B68012283F835208B
:1037D0007B68002283F83420002318461037BD464A
:1037E00080BD80B483B000AF78607B6893F83530DB
:1037F000DBB2022B04D07B6880225A6501230CE0E7
:103800007B68052283F835207B681B681A687B6813
:103810001B6822F001021A60002318460C37BD46CF
:103820005DF8047B704780B483B000AF78607B683C
:1038300093F83530DBB218460C37BD465DF8047B93
:103840007047000080B584B000AF78607B68002BC3
:1038500001D101236CE07B68D3F88430002B06D1C2
:103860007B682322C3F884207868FDF7A9FC002335
:10387000BB60314B5B6C304A43F4804353642E4B46
:103880005B6C03F48043BB60BB682C4B5B682B4ACA
:1038900023F400035360294B5A687B689B682749CF
:1038A00013434B60254B5B687B681B6803F58053B3
:1038B0001B687A68126843F0010302F580521360B6
:1038C000FFF77CFBF86011E0FFF778FB0246FB682E
:1038D000D31AB3F5FA7F09D97B680422C3F888208C
:1038E0007B68E022C3F88420012321E07B681B6809
:1038F00003F580531B6803F00103002BE4D17868C3
:1039000000F058F9786800F0FFF9786800F055FA8F
:103910007B685B681A460021786800F0BDF97B6817
:103920000022C3F888207B681022C3F8842000237B
:1039300018461037BD4680BD0038024000380140AF
:1039400080B584B000AF786039607B681B681B6805
:10395000FB60FA68514B1340FB603B681B7C002BFB
:1039600002D14FF4000200E000223B685B7C002B98
:1039700002D14FF4800300E000231A433B689B68A8
:103980001A433B68DB7F1B041A433B685B691343A4
:103990003A68927F002A02D14FF4005200E00022E0
:1039A0001A433B681B7F1B031A433B689B691A43FE
:1039B0003B681B799B0213433A6892F82020002A47
:1039C00002D14FF4007200E000221A433B68DB7B17
:1039D000DB011A433B685B6A1A433B6893F8283063
:1039E0001B011343FA681343FB607B681B68FA688A
:1039F0001A607B681B681B68FB600120FFF7EAFA0E
:103A00007B681B68FA681A607B681B689B69FB60AF
:103A1000FA684FF641731340FB603B689B6C1B04D4
:103A20003A6892F84C20002A01D1802200E000225E
:103A30001A433B681B6D13433A6892F85520012ADC
:103A400001D1082200E0002213433A6892F8562080
:103A5000012A01D1042200E0002213433A6892F8BF
:103A60005420012A01D1022200E000221343FA6807
:103A70001343FB607B681B68FA689A617B681B686C
:103A80009B69FB600120FFF7A5FA7B681B68FA6859
:103A90009A6100BF1037BD4680BD00BF0F8120FF77
:103AA00080B584B000AF786039607B681B6803F52F
:103AB00080539B69FB60FA683D4B1340FB603B6899
:103AC0001B7B002B02D14FF0806200E000223B689C
:103AD0005B7B5B0613433A68527F002A02D14FF4A6
:103AE000801200E000221A433B689B7B5B051A436F
:103AF0003B685B691A433B681B7FDB011A433B68E9
:103B00009B7F9B011A433B681B6A1A433B6893F8EF
:103B100024309B001343FA681343FB607B681B68E7
:103B200003F580531A46FB6893617B681B6803F5B5
:103B300080539B69FB600120FFF74CFA7B681B6890
:103B400003F580531A46FB6893613B681B795A065C
:103B50003B689B681A433B689B691A433B681B6937
:103B60001A433B6893F82530DB011A433B689B6A94
:103B70009B001A433B681B6813437A68126843F43E
:103B8000000302F5805213607B681B6803F58053C5
:103B90001B68FB600120FFF71DFA7B681B6803F5BB
:103BA00080531A46FB68136000BF1037BD4680BDC6
:103BB000233FDEF880B5A6B000AF7860012387F818
:103BC0004430012387F845300023FB63002387F846
:103BD0005330012387F85230002387F850300123F7
:103BE00087F83830002387F85430002387F84330B3
:103BF0000023BB65002387F85C300023FB670023AC
:103C000087F880300023C7F88430002387F88A3093
:103C1000002387F888304FF48043BB644FF400637F
:103C2000FB64002387F8893007F13403194678686C
:103C3000FFF786FE01233B7501237B75012387F87F
:103C400025300123BB750023FB61002387F8243056
:103C5000002387F826300023BB62012387F82C302D
:103C600001233B734FF480333B614FF480033B628D
:103C70004FF40053BB61012387F82D3000233B63D1
:103C80000023BB6007F1080319467868FFF708FFB7
:103C900000BF9837BD4680BD80B487B000AFF860E4
:103CA000B9607A607B6805331B781B027A6804323E
:103CB000127813437B61BA68114B13441A467B692F
:103CC00013607B6803331B781A067B6802331B780A
:103CD0001B041A437B6801331B781B0213437A6869
:103CE000127813437B61BA68064B13441A467B690A
:103CF000136000BF1C37BD465DF8047B704700BFF2
:103D0000408002404480024080B485B000AF7860BB
:103D10000023FB603EE07B68D968FA6813469B008D
:103D20001344DB000B44BB60BB6800221A60BB6815
:103D300000225A60BB6800229A60BB680022DA60E9
:103D4000B9687B68FA68063243F82210BB681B68C2
:103D500043F48012BB681A60FB68022B0CD87B68A6
:103D6000D968FB685A1C13469B001344DB000B44C4
:103D70001A46BB68DA6004E07B68DB681A46BB68F9
:103D8000DA60BB681B6843F44002BB681A60FB68DA
:103D90000133FB60FB68032BBDD97B6800229A626C
:103DA0007B68DA687B681B6803F580531A6100BF83
:103DB0001437BD465DF8047B704780B485B000AF12
:103DC00078600023FB6046E07B681969FA68134657
:103DD0009B001344DB000B44BB60BB6800221A60ED
:103DE000BB6800225A60BB6800229A60BB68002250
:103DF000DA60BB6800221A62BB6800225A62BB68A4
:103E00004FF000421A60BB6844F2F8525A60BB6837
:103E10005B6823F00042BB685A60B9687B68FA6847
:103E2000123243F82210FB68022B0CD87B68196908
:103E3000FB685A1C13469B001344DB000B441A46D4
:103E4000BB68DA6004E07B681B691A46BB68DA600D
:103E5000FB680133FB60FB68032BB5D97B6800224C
:103E6000DA657B6800221A667B6800229A667B68A6
:103E70000022DA667B6800229A657B681A697B6893
:103E80001B6803F58053DA6000BF1437BD465DF848
:103E9000047B704780B489B000AF7860396000233C
:103EA0007B6100233B610023BB610023FB616BE16D
:103EB0000122FB6902FA03F37B613B681B687A69A4
:103EC00013403B613A697B699A4240F05A813B68F2
:103ED0005B6803F00303012B05D03B685B6803F0CC
:103EE0000303022B30D17B689B68BB61FB695B00DD
:103EF000032202FA03F3DB43BA691340BB613B6858
:103F0000DA68FB695B0002FA03F3BA691343BB6129
:103F10007B68BA699A607B685B68BB610122FB6958
:103F200002FA03F3DB43BA691340BB613B685B6889
:103F30001B0903F00102FB6902FA03F3BA69134398
:103F4000BB617B68BA695A603B685B6803F0030336
:103F5000032B17D07B68DB68BB61FB695B00032226
:103F600002FA03F3DB43BA691340BB613B689A680A
:103F7000FB695B0002FA03F3BA691343BB617B6818
:103F8000BA69DA603B685B6803F00303022B23D154
:103F9000FB69DA087B68083253F82230BB61FB69A1
:103FA00003F007039B000F2202FA03F3DB43BA6915
:103FB0001340BB613B681A69FB6903F007039B0070
:103FC00002FA03F3BA691343BB61FB69DA087B6841
:103FD0000832B96943F822107B681B68BB61FB6932
:103FE0005B00032202FA03F3DB43BA691340BB61AF
:103FF0003B685B6803F00302FB695B0002FA03F3B2
:10400000BA691343BB617B68BA691A603B685B6835
:1040100003F44033002B00F0B4800023FB60604BBE
:104020005B6C5F4A43F4804353645D4B5B6C03F409
:104030008043FB60FB685B4AFB699B08023352F8D4
:104040002330BB61FB6903F003039B000F2202FADC
:1040500003F3DB43BA691340BB617B68524A934266
:104060002BD07B68514A934225D07B68504A9342BB
:104070001FD07B684F4A934219D07B684E4A9342C7
:1040800013D07B684D4A93420DD07B684C4A9342D3
:1040900007D07B684B4A934201D107230EE00823E7
:1040A0000CE006230AE0052308E0042306E00323CE
:1040B00004E0022302E0012300E00023FA6902F099
:1040C000030292009340BA691343BB613549FB690F
:1040D0009B080233BA6941F823203B4B9B68BB61C4
:1040E0003B69DB43BA691340BB613B685B6803F41F
:1040F0008013002B03D0BA693B691343BB61324A7A
:10410000BB699360304BDB68BB613B69DB43BA69D9
:104110001340BB613B685B6803F40013002B03D0C2
:10412000BA693B691343BB61274ABB69D360264B1D
:104130005B68BB613B69DB43BA691340BB613B68A9
:104140005B6803F40033002B03D0BA693B69134367
:10415000BB611D4ABB6953601B4B1B68BB613B695C
:10416000DB43BA691340BB613B685B6803F480338F
:10417000002B03D0BA693B691343BB61124ABB6988
:104180001360FB690133FB61FB690F2B7FF690AE77
:1041900000BF00BF2437BD465DF8047B704700BFF9
:1041A0000038024000380140000002400004024094
:1041B00000080240000C02400010024000140240BF
:1041C00000180240001C0240003C014080B483B053
:1041D00000AF78600B467B8013467B707B78002BAA
:1041E00003D07A887B689A6103E07B881A047B6835
:1041F0009A6100BF0C37BD465DF8047B7047000034
:1042000080B584B000AF78607B68002B01D10123BA
:104210002BE17B6893F83D30DBB2002B06D17B6845
:10422000002283F83C207868FDF7AAF97B682422F5
:1042300083F83D207B681B681A687B681B6822F046
:1042400001021A607B681B681A687B681B6842F46D
:1042500000421A607B681B681A687B681B6822F43E
:1042600000421A6003F08CF8F8607B685B68814A52
:10427000934207D8FB68804A934294BF01230023EE
:10428000DBB206E0FB687D4A934294BF0123002322
:10429000DBB2002B01D00123E7E0FB68784AA2FBE8
:1042A00003239B0CBB607B681B685B6823F03F01AA
:1042B0007B681B68BA680A435A607B681B681B6A84
:1042C00023F03F017B685B686A4A934202D8BB686F
:1042D000013309E0BB684FF4967202FB03F3694AAD
:1042E000A2FB03239B0901337A6812680B43136214
:1042F0007B681B68DB6923F44F4222F0FF027B6876
:104300005B685C498B4219D8FB68591E7B685B6807
:104310005B00B1FBF3F3591C40F6FC730B40002B20
:104320000AD0FB68591E7B685B685B00B1FBF3F346
:104330000133C3F30B0351E004234FE07B689B6818
:10434000002B11D1FB68581E7B6859680B465B0037
:104350000B44B0FBF3F30133C3F30B03002B0CBF8F
:1043600001230023DBB212E0FB68581E7B6859680A
:104370000B469B000B4499000B44B0FBF3F3013355
:10438000C3F30B03002B0CBF01230023DBB2002B74
:1043900001D0012322E07B689B68002B0ED1FB68D3
:1043A000581E7B6859680B465B000B44B0FBF3F367
:1043B0000133C3F30B0343F400430FE0FB68581EC3
:1043C0007B6859680B469B000B4499000B44B0FB7B
:1043D000F3F30133C3F30B0343F4404379680968F3
:1043E0001343CB617B681B681B6823F0C0017B68AB
:1043F000DA697B681B6A1A437B681B680A431A6088
:104400007B681B689B6823F4034323F0FF037A68EF
:1044100011697A68D26811437A6812680B43936015
:104420007B681B68DB6823F0FF017B685A697B6847
:104430009B691A437B681B680A43DA607B681B68C8
:104440001A687B681B6842F001021A607B680022D0
:104450001A647B68202283F83D207B6800221A635F
:104460007B68002283F83E20002318461037BD46A3
:1044700080BD00BFA08601007F841E00FF083D00B4
:1044800083DE1B43D34D621080B588B002AFF86065
:10449000084611461A4603467B810B463B8113466C
:1044A000FB80FEF78BFD7861FB6893F83D30DBB253
:1044B000202B40F0D9807B690093192301226D499C
:1044C000F86802F003F90346002B01D00223CCE088
:1044D000FB6893F83C30012B01D10223C5E0FB6857
:1044E000012283F83C20FB681B681B6803F0010372
:1044F000012B07D0FB681B681A68FB681B6842F039
:1045000001021A60FB681B681A68FB681B6822F4CA
:1045100000621A60FB68212283F83D20FB6840227C
:1045200083F83E20FB6800221A64FB683A6A5A62EC
:10453000FB68BA8C5A85FB685B8D9AB2FB681A855A
:10454000FB684D4ADA62F8883A8979897B69019378
:10455000BB6A00930346F86801F092FE0346002B05
:1045600052D0012381E07A69B96AF86802F084F9CF
:104570000346002B0DD0FB681B6C042B07D1FB6896
:104580001B681A68FB681B6842F400721A600123FA
:104590006BE0FB685B6A1A78FB681B681A61FB6852
:1045A0005B6A5A1CFB685A62FB681B8D013B9AB21E
:1045B000FB681A85FB685B8D9BB2013B9AB2FB6876
:1045C0005A85FB681B685B6903F00403042B1BD14D
:1045D000FB681B8D002B17D0FB685B6A1A78FB68A1
:1045E0001B681A61FB685B6A5A1CFB685A62FB68AD
:1045F0001B8D013B9AB2FB681A85FB685B8D9BB2F1
:10460000013B9AB2FB685A85FB681B8D002BAAD12F
:104610007A69B96AF86802F070F90346002B0DD088
:10462000FB681B6C042B07D1FB681B681A68FB68CE
:104630001B6842F400721A60012316E0FB681B68D5
:104640001A68FB681B6842F400721A60FB6820223B
:1046500083F83D20FB68002283F83E20FB6800229F
:1046600083F83C20002300E0022318461837BD469B
:1046700080BD00BF020010000000FFFF80B58CB0BD
:1046800002AFF860084611461A4603467B810B4686
:104690003B811346FB80FEF791FC7862FB6893F840
:1046A0003D30DBB2202B40F008827B6A0093192357
:1046B00001227B49F86802F009F80346002B01D07B
:1046C0000223FBE1FB6893F83C30012B01D102236C
:1046D000F4E1FB68012283F83C20FB681B681B683F
:1046E00003F00103012B07D0FB681B681A68FB6805
:1046F0001B6842F001021A60FB681B681A68FB68BD
:104700001B6822F400621A60FB68222283F83D20B5
:10471000FB68402283F83E20FB6800221A64FB6895
:104720003A6B5A62FB68BA8E5A85FB685B8D9AB207
:10473000FB681A85FB685B4ADA62F8883A897989EE
:104740007B6A0193BB6B00930346F86801F02EFE71
:104750000346002B01D00123B0E1FB681B8D002B29
:1047600013D100233B62FB681B685B693B62FB68FB
:104770001B689B693B623B6AFB681B681A68FB68A5
:104780001B6842F400721A6084E1FB681B8D012BE8
:104790001BD1FB681B681A68FB681B6822F48062E7
:1047A0001A600023FB61FB681B685B69FB61FB68A7
:1047B0001B689B69FB61FB69FB681B681A68FB68E7
:1047C0001B6842F400721A6064E1FB681B8D022BC7
:1047D0001BD1FB681B681A68FB681B6822F48062A7
:1047E0001A60FB681B681A68FB681B6842F4006269
:1047F0001A600023BB61FB681B685B69BB61FB68D7
:104800001B689B69BB61BB6944E100237B61FB685A
:104810001B685B697B61FB681B689B697B617B69CB
:1048200038E1FB681B8D032B00F2F180FB681B8DC8
:10483000012B23D17A6AB96BF86802F0D1F80346EC
:10484000002B01D0012339E1FB681B681A69FB6862
:104850005B6AD2B21A70FB685B6A5A1CFB685A62C8
:10486000FB681B8D013B9AB2FB681A85FB685B8D68
:104870009BB2013B9AB2FB685A850BE1FB681B8D2A
:10488000022B4ED17B6A0093BB6B00220649F8686D
:1048900001F01CFF0346002B08D001230EE100BFEE
:1048A000020010000000FFFF04000100FB681B680D
:1048B0001A68FB681B6842F400721A60FB681B6888
:1048C0001A69FB685B6AD2B21A70FB685B6A5A1C91
:1048D000FB685A62FB681B8D013B9AB2FB681A8524
:1048E000FB685B8D9BB2013B9AB2FB685A85FB6803
:1048F0001B681A69FB685B6AD2B21A70FB685B6A54
:104900005A1CFB685A62FB681B8D013B9AB2FB681C
:104910001A85FB685B8D9BB2013B9AB2FB685A8596
:10492000B8E07B6A0093BB6B00226649F86801F02F
:10493000CDFE0346002B01D00123BFE0FB681B68BE
:104940001A68FB681B6822F480621A60FB681B68A7
:104950001A69FB685B6AD2B21A70FB685B6A5A1C00
:10496000FB685A62FB681B8D013B9AB2FB681A8593
:10497000FB685B8D9BB2013B9AB2FB685A857B6AF0
:104980000093BB6B00224F49F86801F09FFE03467D
:10499000002B01D0012391E0FB681B681A68FB68BB
:1049A0001B6842F400721A60FB681B681A69FB6896
:1049B0005B6AD2B21A70FB685B6A5A1CFB685A6267
:1049C000FB681B8D013B9AB2FB681A85FB685B8D07
:1049D0009BB2013B9AB2FB685A85FB681B681A6957
:1049E000FB685B6AD2B21A70FB685B6A5A1CFB6890
:1049F0005A62FB681B8D013B9AB2FB681A85FB6803
:104A00005B8D9BB2013B9AB2FB685A8542E07A6AA1
:104A1000B96BF86801F0E4FF0346002B01D00123D5
:104A20004CE0FB681B681A69FB685B6AD2B21A70BB
:104A3000FB685B6A5A1CFB685A62FB681B8D013B72
:104A40009AB2FB681A85FB685B8D9BB2013B9AB2F8
:104A5000FB685A85FB681B685B6903F00403042B41
:104A600018D1FB681B681A69FB685B6AD2B21A70BE
:104A7000FB685B6A5A1CFB685A62FB681B8D013B32
:104A80009AB2FB681A85FB685B8D9BB2013B9AB2B8
:104A9000FB685A85FB681B8D002B7FF4C2AEFB6858
:104AA000202283F83D20FB68002283F83E20FB682B
:104AB000002283F83C20002300E002231846283718
:104AC000BD4680BD0400010080B588B000AF7860AD
:104AD0000023BB617B681B685B687B617B68DB6A6A
:104AE0003B617B6893F83E30FB737B6893F83D3005
:104AF000BB73FB7B102B03D0FB7B402B40F0C180B2
:104B00007B681B689B69BB617B681B685B69FB6199
:104B1000FB6903F00103002B0DD13B69B3F52A0FAC
:104B200003D03B69B3F12A4F01D1012300E00023F8
:104B3000012B00F03281FB6903F00103002B0CD044
:104B40007B695B0A03F00103002B06D0786801F053
:104B5000CCFF786800F079FD92E0FB69DB0803F098
:104B60000103002B09D07B695B0A03F00103002BD2
:104B700003D0786800F0EFFD82E0FB695B0803F08A
:104B80000103002B09D07B695B0A03F00103002BB2
:104B900003D0786800F009FE72E0BB699B0803F05F
:104BA0000103002B3BD07B681B685B6803F4006348
:104BB000B3F5006F00F0F380FB69DB0903F001033C
:104BC000002B0FD07B699B0A03F00103002B09D057
:104BD000FB699B0803F00103002B03D1786800F008
:104BE000E9F94DE0FB699B0803F00103002B00F09D
:104BF000D6807B695B0A03F00103002B00F0CF80B5
:104C0000BB7B212B03D1786800F070FAC7E0FB7BF7
:104C1000402B40F0C480786800F0DEFABFE07B688B
:104C20001B685B6803F40063B3F5006F00F0B780A6
:104C3000FB699B0903F00103002B0FD07B699B0AE2
:104C400003F00103002B09D0FB699B0803F001036B
:104C5000002B03D1786800F053FB11E0FB699B083F
:104C600003F00103002B00F09A807B695B0A03F0DC
:104C70000103002B00F09380786800F0FCFB8EE0CD
:104C80008DE07B681B6C002B04D07B681B685B6924
:104C9000FB6107E07B681B689B69BB617B681B68E5
:104CA0005B69FB61FB695B0803F00103002B12D019
:104CB0007B695B0A03F00103002B0CD07B681B6C43
:104CC000002B03D07B681B689B69BB61B96978685E
:104CD00000F0BAFF66E0FB691B0903F00103002B3B
:104CE00009D07B695B0A03F00103002B03D07868CD
:104CF00000F0F4FF56E0BB7B212B02D0BB7B292BBD
:104D000025D1FB69DB0903F00103002B0FD07B6980
:104D10009B0A03F00103002B09D0FB699B0803F0F9
:104D20000103002B03D1786800F0D0FE39E0FB6965
:104D30009B0803F00103002B33D07B695B0A03F06F
:104D40000103002B2DD0786800F0FDFE29E0FB69FF
:104D50009B0903F00103002B0FD07B699B0A03F032
:104D60000103002B09D0FB699B0803F00103002B12
:104D700003D1786800F008FF14E0FB699B0803F09A
:104D80000103002B0ED07B695B0A03F00103002BAB
:104D900008D0786800F036FF04E000BF02E000BFF2
:104DA00000E000BF2037BD4680BD80B58AB000AFAF
:104DB00078607B681B685B693B627B681B685B682B
:104DC000FB6100237B627B6893F83E30FB763B6A95
:104DD0001B0A03F00103002B0ED0FB691B0A03F032
:104DE0000103002B08D07B6A43F001037B627B68E0
:104DF0001B686FF480725A613B6A5B0A03F001031F
:104E0000002B0ED0FB691B0A03F00103002B08D016
:104E10007B6A43F002037B627B681B686FF400725D
:104E20005A613B6A9B0A03F00103002B3FD0FB69E8
:104E30001B0A03F00103002B39D0FB7EBB767B6895
:104E40005B8D9BB27B617B6893F83D30FB747B6824
:104E50001B6BFB60BB7E202B12D17B69002B0FD11B
:104E6000FB7C212B08D0FB7C292B05D0FB7C282B3D
:104E700006D1FB68212B03D1786801F05FF816E0BA
:104E80007B681B686FF480625A617B6A43F004039D
:104E90007B62FB7E102B02D0FB7E402B07D17B6810
:104EA0001B681A687B681B6842F400721A603B6AD0
:104EB000DB0A03F00103002B0ED0FB691B0A03F091
:104EC0000103002B08D07B6A43F008037B627B68F8
:104ED0001B686FF400625A617B6A002B08D07B6804
:104EE0001A6C7B6A1A437B681A64786801F096F83A
:104EF00000BF2837BD4680BD80B483B000AF786066
:104F000000BF0C37BD465DF8047B704780B483B0AA
:104F100000AF786000BF0C37BD465DF8047B70477A
:104F200080B483B000AF786000BF0C37BD465DF839
:104F3000047B704780B483B000AF786000BF0C374B
:104F4000BD465DF8047B704780B483B000AF7860E5
:104F50000B46FB7013463B8000BF0C37BD465DF827
:104F6000047B704780B483B000AF786000BF0C371B
:104F7000BD465DF8047B704780B483B000AF7860B5
:104F800000BF0C37BD465DF8047B704780B483B02A
:104F900000AF786000BF0C37BD465DF8047B7047FA
:104FA00080B483B000AF786000BF0C37BD465DF8B9
:104FB000047B704780B584B000AF78607B6893F85D
:104FC0003D30FB737B6893F83E30BB737B68DB6AD4
:104FD000BB607B681B8D002B50D1FB7B212B4DD1FF
:104FE000BB68082B1DD0BB68202B1AD0BB6813F5FB
:104FF000803F16D07B681B685A687B681B6822F468
:10500000E0625A607B6811221A637B68002283F891
:105010003E207B68202283F83D207868FFF76CFFF4
:1050200060E07B681B685A687B681B6822F4E0625A
:105030005A607B681B681A687B681B6842F40072C0
:105040001A607B6800221A637B68202283F83D2067
:105050007B6893F83E30DBB2402B07D17B6800229F
:1050600083F83E207868FFF787FF3BE07B680022EB
:1050700083F83E207868FFF73FFF33E0FB7B212B6E
:1050800005D0BB7B402B2DD1FB7B222B2AD17B680B
:105090005B8D9BB2002B08D17B681B685A687B68CC
:1050A0001B6822F480625A601CE07B6893F83E30F3
:1050B000DBB2402B03D1786800F08EF812E07B68F9
:1050C0005B6A1A787B681B681A617B685B6A5A1C8A
:1050D0007B685A627B685B8D9BB2013B9AB27B68AE
:1050E0005A85FFE700BF1037BD4680BD80B584B04C
:1050F00000AF78607B68DB6AFB607B6893F83D30CB
:10510000DBB2212B64D17B685B8D9BB2002B12D06C
:105110007B685B6A1A787B681B681A617B685B6ACC
:105120005A1C7B685A627B685B8D9BB2013B9AB2CA
:105130007B685A854CE0FB68082B1DD0FB68202B50
:105140001AD0FB6813F5803F16D07B681B685A683D
:105150007B681B6822F4E0625A607B6811221A6344
:105160007B68002283F83E207B68202283F83D2064
:105170007868FFF7C1FE2BE07B681B685A687B6884
:105180001B6822F4E0625A607B681B681A687B68BF
:105190001B6842F400721A607B6800221A637B6805
:1051A000202283F83D207B6893F83E30DBB2402B11
:1051B00007D17B68002283F83E207868FFF7DCFE89
:1051C00006E07B68002283F83E207868FFF794FEB3
:1051D00000BF1037BD4680BD80B584B000AF786099
:1051E0007B6893F83D30FB737B681B6D002B1DD1F2
:1051F0007B68DB6C012B0BD17B689B6CDAB27B6824
:105200001B681A617B681B6D9A1C7B681A6573E0CA
:105210007B689B6C9BB21B12DAB27B681B681A61BD
:105220007B681B6D5A1C7B681A6565E07B681B6D8B
:10523000012B0BD17B689B6CDAB27B681B681A610F
:105240007B681B6D5A1C7B681A6555E07B681B6D7B
:10525000022B51D1FB7B222B0DD17B681B681A6876
:105260007B681B6842F480721A607B681B6D5A1C55
:105270007B681A6540E07B685B8D9BB2002B15D084
:10528000FB7B212B12D17B685B6A1A787B681B68D9
:105290001A617B685B6A5A1C7B685A627B685B8D0B
:1052A0009BB2013B9AB27B685A8525E07B685B8D97
:1052B0009BB2002B20D1FB7B212B1DD17B681B686F
:1052C0005A687B681B6822F4E0625A607B681B683E
:1052D0001A687B681B6842F400721A607B680022BF
:1052E0001A637B68202283F83D207B68002283F8C4
:1052F0003E207868FFF740FE00BF1037BD4680BDF6
:1053000080B584B000AF78607B6893F83D30DBB245
:10531000222B40F0AC807B685B8D9BB2FB60FB680E
:10532000032B21D97B681B681A697B685B6AD2B240
:105330001A707B685B6A5A1C7B685A627B685B8D5B
:105340009BB2013B9AB27B685A857B685B8D9BB2AE
:10535000032B40F08C807B681B685A687B681B6855
:1053600022F480625A6082E07B68DB6A022B75D08F
:10537000FB68012B02D0FB68002B6FD1786801F02D
:10538000FDFA0346002B42D17B681B681A687B68D4
:105390001B6822F480621A607B681B685A687B680D
:1053A0001B6822F4E0625A607B681B681A697B689C
:1053B0005B6AD2B21A707B685B6A5A1C7B685A625D
:1053C0007B685B8D9BB2013B9AB27B685A857B6898
:1053D000202283F83D207B6893F83E30DBB2402BDF
:1053E0000AD17B68002283F83E207B6800221A6382
:1053F0007868FCF7D5FA3AE07B68002283F83E2013
:105400007B6812221A637868FFF780FD2FE07B68C3
:105410001B685A687B681B6822F4E0625A607B68EC
:105420001B681A697B685B6AD2B21A707B685B6A18
:105430005A1C7B685A627B685B8D9BB2013B9AB2B7
:105440007B685A857B68202283F83D207B68002298
:1054500083F83E207868FFF799FD08E07B681B68B9
:105460005A687B681B6822F480625A60FFE700BFBD
:105470001037BD4680BD80B584B000AF78607B68D2
:10548000DB6AFB607B685B8D9BB2042B1BD17B6866
:105490001B685A687B681B6822F480625A607B68CC
:1054A0001B681A697B685B6AD2B21A707B685B6A98
:1054B0005A1C7B685A627B685B8D9BB2013B9AB237
:1054C0007B685A85BDE07B685B8D9BB2032B29D13D
:1054D0007B681B685A687B681B6822F480625A608C
:1054E000FB68042B0AD0FB68022B07D07B681B6883
:1054F0001A687B681B6822F480621A607B681B68EC
:105500001A697B685B6AD2B21A707B685B6A5A1C44
:105510007B685A627B685B8D9BB2013B9AB27B6869
:105520005A858EE07B685B8D9BB2022B76D1FB683F
:10553000012B02D0FB68102B08D17B681B681A680E
:105540007B681B6822F480621A6019E0FB68042BF8
:1055500002D0FB68022B08D17B681B681A687B6845
:105560001B6842F480621A600AE0FB68102B07D0C7
:105570007B681B681A687B681B6842F400721A60BB
:105580007B681B681A697B685B6AD2B21A707B6899
:105590005B6A5A1C7B685A627B685B8D9BB2013BDD
:1055A0009AB27B685A857B681B681A697B685B6A5C
:1055B000D2B21A707B685B6A5A1C7B685A627B683D
:1055C0005B8D9BB2013B9AB27B685A857B681B68F6
:1055D0005A687B681B6822F440725A607B682022FC
:1055E00083F83D207B6893F83E30DBB2402B0AD134
:1055F0007B68002283F83E207B6800221A6378686B
:10560000FCF7CEF91DE07B68002283F83E207B6822
:1056100012221A637868FFF779FC12E07B681B6836
:105620001A697B685B6AD2B21A707B685B6A5A1C23
:105630007B685A627B685B8D9BB2013B9AB27B6848
:105640005A8500BF1037BD4680BD80B483B000AF1F
:1056500078607B6893F83E30DBB2402B17D17B68D3
:105660001B6D002B09D17B685B6CDBB21A467B6833
:105670001B6802F0FE021A6167E07B685B6CDBB2BC
:1056800043F00103DAB27B681B681A615DE07B6856
:105690001B69B3F5804F33D17B6893F83D30DBB2A3
:1056A000212B09D17B685B6CDBB21A467B681B68D7
:1056B00002F0FE021A6108E07B685B6CDBB243F02B
:1056C0000103DAB27B681B681A617B685B6B002B95
:1056D00004D07B685B6BDB6B002B08D17B689B6B1A
:1056E000002B32D07B689B6BDB6B002B2DD07B6853
:1056F0001B685A687B681B6842F400625A6024E0A9
:105700007B681B6D002B0ED17B685B6C9BB2DB1141
:10571000DBB203F00603DBB263F00F03DAB27B689F
:105720001B681A6111E07B681B6D012B0DD17B6832
:105730005B6C9BB2DB11DBB203F00603DBB263F000
:105740000E03DAB27B681B681A6100BF0C37BD46D6
:105750005DF8047B704780B483B000AF78607B68ED
:105760005B6CDAB27B681B681A617B685B6B002B31
:1057700004D07B685B6BDB6B002B08D17B689B6B79
:10578000002B0CD07B689B6BDB6B002B07D07B68FE
:105790001B685A687B681B6842F400625A6000BF4D
:1057A0000C37BD465DF8047B704780B491B000AF04
:1057B00078607B6893F83E3087F83F307B68DB6A1F
:1057C000BB637B681B6B7B637B6893F83D30DBB20C
:1057D000222B40F069817B681B6D002B0FD197F85D
:1057E0003F30402B0BD100233B637B681B685B6918
:1057F0003B637B681B689B693B633B6B60E17B6839
:105800001B6D002B1DD17B681B69B3F5404F18D170
:105810000023FB627B681B685B69FB627B681B681B
:105820009B69FB62FB6A7B681B681A687B681B6864
:1058300042F480721A607B681B6D5A1C7B681A6583
:105840003EE17B685B8D9BB2002B13D10023BB62D2
:105850007B681B685B69BB627B681B689B69BB627A
:10586000BB6A7B681B681A687B681B6842F400721D
:105870001A6015E17B685B8D9BB2012B40F08A803A
:10588000BB6B13F5803F37D17B681B681A687B6858
:105890001B6822F480621A607B681B685B6803F4F3
:1058A0000063B3F5006F13D17B681B681A687B68CF
:1058B0001B6822F480621A6000237B627B681B688D
:1058C0005B697B627B681B689B697B627B6AE7E044
:1058D00000233B627B681B685B693B627B681B68DB
:1058E0009B693B623B6A7B681B681A687B681B6824
:1058F00042F400721A60D3E0BB6B082B2ED0BB6B56
:10590000202B2BD07B6B122B02D1BB6B012B25D113
:10591000BB6B042B0ED0BB6B022B0BD0BB6B102BC5
:1059200008D07B681B681A687B681B6822F4806259
:105930001A6007E07B681B681A687B681B6842F482
:1059400080621A600023FB617B681B685B69FB61F6
:105950007B681B689B69FB61FB69A1E07B681B6836
:105960001A687B681B6822F480621A600023BB619E
:105970007B681B685B69BB617B681B689B69BB615B
:10598000BB697B681B681A687B681B6842F40072FD
:105990001A6085E07B685B8D9BB2022B4DD1BB6B9F
:1059A000042B16D0BB6B022B13D0BB6B102B10D06B
:1059B0007B681B681A687B681B6822F480621A6027
:1059C0007B681B681A687B681B6842F400621A6077
:1059D00007E07B681B681A687B681B6842F480627A
:1059E0001A607B681B685B6803F40063B3F5006FA3
:1059F00017D1BB6B13F5803F0BD0BB6B012B08D0CD
:105A0000BB6B082B05D0BB6B102B02D0BB6B202BC4
:105A100007D17B681B685A687B681B6842F4805218
:105A20005A6000237B617B681B685B697B617B68D4
:105A30001B689B697B617B6932E07B681B681A6825
:105A40007B681B6842F480621A607B681B685B6835
:105A500003F40063B3F5006F17D1BB6B13F5803F00
:105A60000BD0BB6B012B08D0BB6B082B05D0BB6BDD
:105A7000102B02D0BB6B202B07D17B681B685A68A8
:105A80007B681B6842F480525A6000233B617B684C
:105A90001B685B693B617B681B689B693B613B6979
:105AA0007B6800221A650BE00023FB607B681B68A3
:105AB0005B69FB607B681B689B69FB60FB68FFE7B9
:105AC00000BF4437BD465DF8047B704780B584B0A5
:105AD00000AF78607B6893F83D30FB737B685B8D2B
