:020000040800F2
:1000000000000220DD2F0008D51F0008DB1F0008BC
:10001000E11F0008E71F0008ED1F000800000000B6
:10002000000000000000000000000000F31F0008B6
:1000300001200008000000000F2000081D2000081B
:100040002D3000082D3000082D3000082D3000081C
:100050002D3000082D3000082D3000082D3000080C
:100060002D3000082D3000082D3000082D300008FC
:100070002D3000082D3000082D3000082D300008EC
:100080002D3000082D3000082D3000082D300008DC
:100090002D3000082D3000082D3000082D300008CC
:1000A0002D3000082D3000082D3000082D300008BC
:1000B0002D3000082D300008292000082D300008C0
:1000C0002D3000082D3000082D3000082D3000089C
:1000D0002D3000083D2000082D3000082D3000088C
:1000E0002D3000082D3000082D3000082D3000087C
:1000F0002D3000082D3000082D3000082D3000086C
:100100002D3000082D300008512000082D30000847
:100110002D3000082D3000082D3000082D3000084B
:100120002D3000082D3000082D3000082D3000083B
:100130002D3000082D3000082D3000082D3000082B
:100140002D3000082D3000082D3000082D3000081B
:100150002D3000082D3000082D3000082D3000080B
:100160002D3000082D3000082D3000082D300008FB
:100170002D3000082D3000082D3000080000000050
:080180002D3000082D300008AD
:1001900010B5054C237833B9044B13B10448AFF3C1
:1001A00000800123237010BD4002002000000000E9
:1001B000A0C4000808B5034B1BB103490348AFF3C3
:1001C000008008BD0000000044020020A0C4000818
:1001D000034613F8012B002AFBD1181A0138704787
:1001E00001F0FF01102A2BDB10F0070F08D010F8E8
:1001F000013B013A8B422DD010F0070F42B3F6D1EC
:10020000F0B441EA012141EA014122F007047FF004
:1002100000070023F0E80256083C85EA010586EA5B
:10022000010685FA47F5A3FA87F586FA47F6A5FA97
:1002300087F68EB9EED1F0BC01F0FF0102F00702A3
:1002400032B110F8013B013A83EA010313B1F8D14E
:100250000020704701387047002D06BF354603382F
:10026000073815F0010F07D1013015F4807F02BF68
:10027000013015F4C03F0130F0BC0138704700BFB9
:1002800081F0004102E000BF83F0004330B54FEA47
:1002900041044FEA430594EA050F08BF90EA020FB4
:1002A0001FBF54EA000C55EA020C7FEA645C7FEA47
:1002B000655C00F0E2804FEA5454D4EB5555B8BF6A
:1002C0006D420CDD2C4480EA020281EA030382EADB
:1002D000000083EA010180EA020281EA0303362D6D
:1002E00088BF30BD11F0004F4FEA01314FF4801C40
:1002F0004CEA113102D0404261EB410113F0004F52
:100300004FEA03334CEA133302D0524263EB430308
:1003100094EA050F00F0A780A4F10104D5F1200EA6
:100320000DDB02FA0EFC22FA05F2801841F1000101
:1003300003FA0EF2801843FA05F359410EE0A5F1D5
:1003400020050EF1200E012A03FA0EFC28BF4CF006
:10035000020C43FA05F3C01851EBE37101F00045BC
:1003600007D54FF0000EDCF1000C7EEB00006EEBC9
:100370000101B1F5801F1BD3B1F5001F0CD3490853
:100380005FEA30004FEA3C0C04F101044FEA4452AA
:1003900012F5800F80F09A80BCF1004F08BF5FEA31
:1003A000500C50F1000041EB045141EA050130BD11
:1003B0005FEA4C0C404141EB0101013C28BFB1F523
:1003C000801FE9D291F0000F04BF01460020B1FA6E
:1003D00081F308BF2033A3F10B03B3F120020CDA41
:1003E0000C3208DD02F1140CC2F10C0201FA0CF01F
:1003F00021FA02F10CE002F11402D8BFC2F1200C84
:1004000001FA02F120FA0CFCDCBF41EA0C01904039
:10041000E41AA2BF01EB0451294330BD6FEA040482
:100420001F3C1CDA0C340EDC04F11404C4F120026D
:1004300020FA04F001FA02F340EA030021FA04F37F
:1004400045EA030130BDC4F10C04C4F1200220FAD6
:1004500002F001FA04F340EA0300294630BD21FA14
:1004600004F0294630BD94F0000F83F4801306BFDA
:1004700081F480110134013D4EE77FEA645C18BFCE
:100480007FEA655C29D094EA050F08BF90EA020F65
:1004900005D054EA000C04BF1946104630BD91EA5D
:1004A000030F1EBF0021002030BD5FEA545C05D160
:1004B0004000494128BF41F0004130BD14F580049F
:1004C0003CBF01F5801130BD01F0004545F0FE4113
:1004D00041F470014FF0000030BD7FEA645C1ABF48
:1004E000194610467FEA655C1CBF0B46024650EA7F
:1004F000013406BF52EA033591EA030F41F40021AB
:1005000030BD00BF90F0000F04BF0021704730B530
:100510004FF4806404F132044FF000054FF0000105
:1005200050E700BF90F0000F04BF0021704730B5C6
:100530004FF4806404F1320410F0004548BF40429B
:100540004FF000013EE700BF42004FEAE2014FEAF0
:1005500031014FEA02701FBF12F07F4393F07F4FCB
:1005600081F06051704732F07F4208BF704793F0CE
:100570007F4F04BF41F40021704730B54FF46074E1
:1005800001F0004521F000411CE700BF50EA0102E4
:1005900008BF704730B54FF000050AE050EA01028D
:1005A00008BF704730B511F0004502D5404261EBFD
:1005B00041014FF4806404F132045FEA915C3FF43E
:1005C000D8AE4FF003025FEADC0C18BF03325FEADB
:1005D000DC0C18BF033202EBDC02C2F1200300FA8C
:1005E00003FC20FA02F001FA03FE40EA0E0021FAB1
:1005F00002F11444BDE600BF70B54FF0FF0C4CF49F
:10060000E06C1CEA11541DBF1CEA135594EA0C0F50
:1006100095EA0C0F00F0DEF82C4481EA030621EA8B
:100620004C5123EA4C5350EA013518BF52EA0335C6
:1006300041F4801143F4801338D0A0FB02CE4FF078
:100640000005E1FB02E506F00042E0FB03E54FF0A8
:100650000006E1FB03569CF0000F18BF4EF0010EA0
:10066000A4F1FF04B6F5007F64F5407404D25FEA9C
:100670004E0E6D4146EB060642EAC62141EA55514F
:100680004FEAC52040EA5E504FEACE2EB4F1FD0C91
:1006900088BFBCF5E06F1ED8BEF1004F08BF5FEA0F
:1006A000500E50F1000041EB045170BD06F00046C1
:1006B00046EA010140EA020081EA0301B4EB5C046E
:1006C000C2BFD4EB0C0541EA045170BD41F4801166
:1006D0004FF0000E013C00F3AB8014F1360FDEBF8B
:1006E000002001F0004170BDC4F10004203C35DA67
:1006F0000C341BDC04F11404C4F1200500FA05F3EA
:1007000020FA04F001FA05F240EA020001F000428A
:1007100021F0004110EBD37021FA04F642EB060100
:100720005EEA430E08BF20EAD37070BDC4F10C042A
:10073000C4F1200500FA04F320FA05F001FA04F2EE
:1007400040EA020001F0004110EBD37041F10001DA
:100750005EEA430E08BF20EAD37070BDC4F12005E5
:1007600000FA05F24EEA020E20FA04F301FA05F24D
:1007700043EA020321FA04F001F0004121FA04F2F5
:1007800020EA020000EBD3705EEA430E08BF20EAC5
:10079000D37070BD94F0000F0FD101F000464000FF
:1007A00041EB010111F4801F08BF013CF7D041EA81
:1007B000060195F0000F18BF704703F00046520085
:1007C00043EB030313F4801F08BF013DF7D043EA56
:1007D0000603704794EA0C0F0CEA135518BF95EA0C
:1007E0000C0F0CD050EA410618BF52EA4306D1D193
:1007F00081EA030101F000414FF0000070BD50EAB2
:10080000410606BF1046194652EA430619D094EA3B
:100810000C0F02D150EA013613D195EA0C0F05D125
:1008200052EA03361CBF104619460AD181EA030179
:1008300001F0004141F0FE4141F470014FF0000031
:1008400070BD41F0FE4141F4780170BD70B54FF0CC
:10085000FF0C4CF4E06C1CEA11541DBF1CEA13554C
:1008600094EA0C0F95EA0C0F00F0A7F8A4EB05042E
:1008700081EA030E52EA03354FEA013100F0888025
:100880004FEA03334FF0805545EA131343EA1263EE
:100890004FEA022245EA111545EA10654FEA0026A3
:1008A0000EF000419D4208BF964244F1FD0404F55C
:1008B000407402D25B084FEA3202B61A65EB0305B8
:1008C0005B084FEA32024FF480104FF4002CB6EB75
:1008D000020E75EB030E22BFB61A754640EA0C00F5
:1008E0005B084FEA3202B6EB020E75EB030E22BF35
:1008F000B61A754640EA5C005B084FEA3202B6EB76
:10090000020E75EB030E22BFB61A754640EA9C0034
:100910005B084FEA3202B6EB020E75EB030E22BF04
:10092000B61A754640EADC0055EA060E18D04FEAC2
:10093000051545EA16754FEA06164FEAC30343EA62
:1009400052734FEAC2025FEA1C1CC0D111F4801F2F
:100950000BD141EA00014FF000004FF0004CB6E728
:1009600011F4801F04BF01430020B4F1FD0C88BFC7
:10097000BCF5E06F3FF6AFAEB5EB030C04BFB6EBD2
:10098000020C5FEA500C50F1000041EB045170BDC5
:100990000EF0004E4EEA113114EB5C04C2BFD4EBF2
:1009A0000C0541EA045170BD41F480114FF0000E76
:1009B000013C90E645EA060E8DE60CEA135594EAF2
:1009C0000C0F08BF95EA0C0F3FF43BAF94EA0C0FF5
:1009D0000AD150EA01347FF434AF95EA0C0F7FF46A
:1009E00025AF104619462CE795EA0C0F06D152EABE
:1009F00003353FF4FDAE1046194622E750EA4106A2
:100A000018BF52EA43067FF4C5AE50EA41047FF4B2
:100A10000DAF52EA43057FF4EBAE12E74FF0FF3C17
:100A200006E000BF4FF0010C02E000BF4FF0010CE8
:100A30004DF804CD4FEA410C7FEA6C5C4FEA430C61
:100A400018BF7FEA6C5C1BD001B050EA410C0CBFB0
:100A500052EA430C91EA030F02BF90EA020F002012
:100A6000704710F1000F91EA030F58BF994208BF79
:100A700090422CBFD8176FEAE37040F00100704736
:100A80004FEA410C7FEA6C5C02D150EA013C07D18D
:100A90004FEA430C7FEA6C5CD6D152EA033CD3D0D8
:100AA0005DF8040B704700BF8446104662468C46D2
:100AB0001946634600E000BF01B5FFF7B7FF002805
:100AC00048BF10F1000F01BD4DF808EDFFF7F4FF2E
:100AD0000CBF012000205DF808FB00BF4DF808EDB9
:100AE000FFF7EAFF34BF012000205DF808FB00BFDC
:100AF0004DF808EDFFF7E0FF94BF012000205DF8FE
:100B000008FB00BF4DF808EDFFF7CEFF94BF0120B2
:100B100000205DF808FB00BF4DF808EDFFF7C4FFAB
:100B200034BF012000205DF808FB00BF4FEA410CF4
:100B30007FEA6C5C02D150EA013C0AD14FEA430CD7
:100B40007FEA6C5C02D152EA033C02D14FF0000014
:100B500070474FF0010070474FEA410212F5001252
:100B600015D211D56FF47873B3EB625212D94FEAF4
:100B7000C12343F0004343EA505311F0004F23FADE
:100B800002F018BF404270474FF00000704750EA33
:100B9000013005D111F0004008BF6FF000407047F0
:100BA0004FF00000704700BF4A0011D212F500124A
:100BB00011D20DD56FF47873B3EB62520ED44FEAB5
:100BC000C12343F0004343EA505323FA02F0704735
:100BD0004FF00000704750EA013002D14FF0FF3073
:100BE00070474FF0000070474FEA4102B2F1E04316
:100BF00024BFB3F5001CDCF1FE5C0DD901F0004C04
:100C00004FEAC0024CEA5070B2F1004F40EB830053
:100C100008BF20F00100704711F0804F21D113F17F
:100C20003872BCBF01F00040704741F480114FEAB8
:100C30005252C2F11802C2F1200C10FA0CF320FA41
:100C400002F018BF40F001004FEAC1234FEAD3235E
:100C500003FA0CFC40EA0C0023FA02F34FEA4303C8
:100C6000CCE77FEA625307D150EA01331EBF4FF051
:100C7000FE4040F44000704701F0004040F0FE406C
:100C800040F40000704700BF53B94AB9002908BFBB
:100C900000281CBF4FF0FF314FF0FF3000F0AAB921
:100CA000ADF1080C6DE904CE00F03CF8DDF804E08D
:100CB000DDE9022304B0704738B500220023044662
:100CC0000D46FFF70BFF28B920462946BDE83840FE
:100CD00000F00AB8204605F1004100F005F8404256
:100CE00061EB410138BD00BFD0B50C4B0022064678
:100CF0000F46FFF781FCFFF757FF0446FFF702FCA2
:100D0000074B0022FFF778FC02460B463046394677
:100D1000FFF7BAFAFFF748FF2146D0BD0000F03DCB
:100D20000000F0412DE9F047089D04468E46002B57
:100D30004DD18A42944669D9B2FA82F252B101FA8F
:100D400002F3C2F1200120FA01F10CFA02FC41EA9F
:100D5000030E94404FEA1C48210CBEFBF8F61FFA24
:100D60008CF708FB16E341EA034306FB07F19942BF
:100D70000AD91CEB030306F1FF3080F01F81994272
:100D800040F21C81023E63445B1AA4B2B3FBF8F04C
:100D900008FB103344EA034400FB07F7A7420AD9D3
:100DA0001CEB040400F1FF3380F00A81A74240F2FB
:100DB00007816444023840EA0640E41B00261DB166
:100DC000D4400023C5E900433146BDE8F0878B429B
:100DD00009D9002D00F0EF800026C5E9000130465A
:100DE0003146BDE8F087B3FA83F6002E4AD18B4234
:100DF00002D3824200F2F980841A61EB03030120DE
:100E00009E46002DE0D0C5E9004EDDE702B9FFDEC9
:100E1000B2FA82F2002A40F09280A1EB0C014FEA74
:100E20001C471FFA8CFE0126200CB1FBF7F307FBD1
:100E3000131140EA01410EFB03F0884208D91CEB74
:100E4000010103F1FF3802D2884200F2CB80434611
:100E5000091AA4B2B1FBF7F007FB101144EA0144F0
:100E60000EFB00FEA64508D91CEB040400F1FF317F
:100E700002D2A64500F2BB800846A4EB0E0440EA6D
:100E800003409CE7C6F12007B34022FA07FC4CEA76
:100E9000030C20FA07F401FA06F31C43F9404FEA69
:100EA0001C4900FA06F3B1FBF9F8200C1FFA8CFE7E
:100EB00009FB181140EA014108FB0EF0884202FAD2
:100EC00006F20BD91CEB010108F1FF3A80F0888093
:100ED000884240F28580A8F102086144091AA4B250
:100EE000B1FBF9F009FB101144EA014100FB0EFED1
:100EF0008E4508D91CEB010100F1FF346CD28E4500
:100F00006AD90238614440EA0840A0FB0294A1EB90
:100F10000E01A142C846A64656D353D05DB1B3EBED
:100F2000080261EB0E0101FA07F722FA06F3F1401D
:100F30001F43C5E9007100263146BDE8F087C2F1C4
:100F40002003D8400CFA02FC21FA03F3914001433C
:100F50004FEA1C471FFA8CFEB3FBF7F007FB103675
:100F60000B0C43EA064300FB0EF69E4204FA02F421
:100F700008D91CEB030300F1FF382FD29E422DD974
:100F8000023863449B1B89B2B3FBF7F607FB1633A9
:100F900041EA034106FB0EF38B4208D91CEB010129
:100FA00006F1FF3816D28B4214D9023E6144C91AA9
:100FB00046EA004638E72E46284605E70646E3E6B9
:100FC0001846F8E64B45A9D2B9EB020864EB0C0EC3
:100FD0000138A3E74646EAE7204694E74046D1E7D2
:100FE000D0467BE7023B614432E7304609E7644480
:100FF000023842E7704700BF80B584B000AF3B467F
:1010000000221A605A609A60DA60214B214A1A6005
:101010001F4B4FF480325A601D4B00229A601C4BCC
:1010200000221A611A4B00221A76194B002283F80B
:101030002020174B0022DA62154B174A9A62144B94
:101040000022DA60124B0122DA61114B002283F890
:1010500030200F4B01225A610D4802F07FF8034601
:10106000002B01D000F044FD05233B6001237B6091
:101070000023BB603B461946054802F0B3F803461F
:10108000002B01D000F034FD00BF1037BD4680BDFD
:101090005C020020002001400100000F80B58AB0F2
:1010A00000AF786007F1140300221A605A609A605A
:1010B000DA601A617B681B68174A934227D10023C4
:1010C0003B61164B5B6C154A43F480735364134BBE
:1010D0005B6C03F480733B613B690023FB600F4B47
:1010E0001B6B0E4A43F0010313630C4B1B6B03F0A5
:1010F0000103FB60FB6820237B610323BB610023AA
:10110000FB6107F114031946054802F055FF00BFC3
:101110002837BD4680BD00BF002001400038024096
:101120000000024080B500AF1F4B204A1A60204BE0
:1011300000221A701E4B80225A701D4BE1229A70B9
:101140001B4B0022DA701A4B00221A71184B002236
:101150005A71154B164A5A60134B4FF400029A60AD
:10116000114B144ADA60104B134A1A610E4B40F2CD
:10117000F4525A610C4802F0F7FB0346002B01D0F1
:1011800000F0B6FC382200210C4806F00FFD0B4B96
:1011900021221A60094B4FF440025A61074B00228A
:1011A0001A6100BF80BD00BF1C0400200080024007
:1011B000CC04002044030020A4020020E40300200B
:1011C00080B58EB000AF786007F1240300221A606A
:1011D0005A609A60DA601A617B681B68464A9342DB
:1011E00040F0858000233B62444B1B6B434A43F035
:1011F00000731363414B1B6B03F000733B623B6A4C
:101200000023FB613D4B1B6B3C4A43F0806313633F
:101210003A4B1B6B03F08063FB61FB690023BB61EE
:10122000364B1B6B354A43F000631363334B1B6B28
:1012300003F00063BB61BB6900237B612F4B1B6B19
:101240002E4A43F0040313632C4B1B6B03F004037F
:101250007B617B6900233B61284B1B6B274A43F072
:1012600001031363254B1B6B03F001033B613B69D7
:101270000023FB60214B1B6B204A43F002031363E6
:101280001E4B1B6B03F00203FB60FB6832237B6287
:101290000223BB620023FB6203233B630B237B63BC
:1012A00007F124031946164802F086FE86237B6266
:1012B0000223BB620023FB6203233B630B237B639C
:1012C00007F1240319460F4802F076FE4FF46053ED
:1012D0007B620223BB620023FB6203233B630B237D
:1012E0007B6307F124031946074802F065FE00BF3F
:1012F0003837BD4680BD00BF008002400038024044
:1013000000080240000002400004024080B58CB09A
:1013100000AF07F11C0300221A605A609A60DA607D
:101320001A610023BB615C4B1B6B5B4A43F01003EB
:101330001363594B1B6B03F01003BB61BB690023A4
:101340007B61554B1B6B544A43F080031363524B34
:101350001B6B03F080037B617B6900233B614E4B79
:101360001B6B4D4A43F0040313634B4B1B6B03F0A1
:1013700004033B613B690023FB60474B1B6B464A00
:1013800043F001031363444B1B6B03F00103FB6049
:10139000FB680023BB60404B1B6B3F4A43F00203DA
:1013A00013633D4B1B6B03F00203BB60BB68002360
:1013B0007B60394B1B6B384A43F008031363364B91
:1013C0001B6B03F008037B607B6800224FF69B7168
:1013D000324802F08DFF00224FF40161304802F0E4
:1013E00087FF00224CF203012E4802F081FF002209
:1013F00043F61B712C4802F07BFF4FF69B73FB6199
:1014000001233B6200237B620023BB6207F11C03C4
:101410001946224802F0D0FD4FF40163FB6101231D
:101420003B6200237B620023BB6207F11C03194669
:101430001B4802F0C1FD4CF20303FB6101233B6238
:1014400000237B620023BB6207F11C031946154889
:1014500002F0B2FD43F61B73FB6101233B620023E4
:101460007B620023BB6207F11C0319460E4802F0A1
:10147000A3FD4FF44043FB614FF488133B6200230C
:101480007B6207F11C031946074802F095FD00BF77
:101490003037BD4680BD00BF00380240001002401A
:1014A0000000024000040240000C024080B500AF82
:1014B000124B134A1A60114B124A5A600F4B00220A
:1014C0009A600E4B0022DA600C4B4FF480421A6196
:1014D0000A4B00225A61094B00229A61074B0022F5
:1014E000DA61064B00221A62044802F01BFF034631
:1014F000002B01D000F0FCFA00BF80BDD404002016
:1015000000540040A086010080B500AF124B134A82
:101510001A60114B124A5A600F4B00229A600E4B10
:101520000022DA600C4B4FF480421A610A4B002211
:101530005A61094B00229A61074B0022DA61064B7F
:1015400000221A62044802F0EDFE0346002B01D08F
:1015500000F0CEFA00BF80BD28050020005C0040EE
:10156000A086010080B58CB000AF786007F11C0345
:1015700000221A605A609A60DA601A617B681B6800
:10158000424A93422CD10023BB61414B1B6B404A22
:1015900043F0020313633E4B1B6B03F00203BB617A
:1015A000BB69C023FB6112233B6200237B620323E0
:1015B000BB620423FB6207F11C031946354802F0A5
:1015C000FBFC00237B61324B1B6C314A43F400135C
:1015D00013642F4B1B6C03F400137B617B6950E099
:1015E0007B681B682C4A93424BD100233B61284BFC
:1015F0001B6B274A43F004031363254B1B6B03F05B
:1016000004033B613B690023FB60214B1B6B204AB9
:1016100043F0010313631E4B1B6B03F00103FB60DC
:10162000FB684FF40073FB6112233B6200237B6273
:101630000323BB620423FB6207F11C03194617480E
:1016400002F0BAFC4FF48073FB6112233B6200236B
:101650007B620323BB620423FB6207F11C03194670
:101660000F4802F0A9FC0023BB60094B1B6C084A21
:1016700043F400031364064B1B6C03F40003BB60CC
:10168000BB6800BF3037BD4680BD00BF005400407E
:101690000038024000040240005C004000080240A4
:1016A0000000024080B582B000AF7860391D4FF66F
:1016B000FF730122034805F0E0F97B6818460837FC
:1016C000BD4680BD9C0800202DE9F04387B006AFE1
:1016D00001F0AEFC00F060F9FFF718FEFFF78CFC9C
:1016E000FFF720FDFFF7E2FEFFF70EFF00F040FBE3
:1016F00000F074FB00F0DEFD00F030FE00F082FE32
:1017000000F04AFF00F0F4FF01F034FB01F05CFB55
:1017100000F080FD00F0F2FE01F006FC874B6C4605
:1017200003F1100207CA84E807000FCB01F0E0F9CB
:101730000021834803F034FD0421814803F030FD8B
:101740003C21804804F012F83C217F4804F00EF858
:101750007E4803F05BFC4FF0804300225A627C4BD2
:1017600000225A624FF080435B6A9AB2794B1A802A
:10177000774B5B6A9AB2774B5A800121764800F02A
:1017800017FA0121754800F013FA754B1B78012BED
:10179000FBD14FF080435B6A9AB26E4B1A806C4B60
:1017A0005B6A9AB26B4B5A806A4B5B881A466D4BE8
:1017B0001B88D31A002B08DB664B5A88694B1B88A1
:1017C000D31A9AB2684B1A800BE0624B5A88654B69
:1017D0001B88D31A9BB2A3F58143403B9AB2624B5C
:1017E0001A805C4B5A885F4B1A805A4B1B881A46EA
:1017F0005E4B1B88D31A002B08DB564B1A885B4BB9
:101800001B88D31A9AB25A4B1A800BE0514B1A8894
:10181000564B1B88D31A9BB2A3F58143403B9AB227
:10182000534B1A804B4B1A88504B1A80504B1B88D5
:101830001A4641F2707302FB03F34E4A82FB031215
:101840005213DB17D31A07EE903AF8EEE77A4A4BB9
:10185000C3ED007A444B1B881A4641F2707302FBB9
:1018600003F3444A82FB03125213DB17D31A07EE29
:10187000903AF8EEE77A414BC3ED007A3E4BD3ED58
:10188000007ADFED3F0AB0EE670A334800F0B0F9A6
:101890003A4BD3ED007ADFED3A0AB0EE670A2F48F3
:1018A00000F0A6F92E4B00221A702B4B93F824302F
:1018B0005AB2344B03926C4603F1100207CA84E813
:1018C00007000FCB00F01AF9244B93F824305AB2DA
:1018D0002D4B03926C4603F1100207CA84E80700FF
:1018E0000FCB00F00BF9254B1B681846FEF72CFEBA
:1018F00080468946194B93F824301E46174B1B6AC5
:101900001846FEF721FE04460D46144B5B69184647
:10191000FEF71AFE02460B46CDE90423CDE9024547
:10192000009642464B461949194806F0C7FF402227
:101930001749184805F033F927E700BF18C5000814
:10194000F40700201C070020D4060020AC0700206C
:1019500000040040C80500200000002030000020E6
:10196000D5050020C0050020C2050020BE050020CE
:10197000C40500202B80D52ACC050020D0050020EE
:1019800000003E43FCC40008E0C40008B8C40008DE
:101990007C0500209C08002080B594B000AF07F1C2
:1019A000200330220021184606F000F907F10C034D
:1019B00000221A605A609A60DA601A610023BB60E4
:1019C000284B1B6C274A43F080531364254B1B6C38
:1019D00003F08053BB60BB6800237B60224B1B6815
:1019E000214A43F4804313601F4B1B6803F4804378
:1019F0007B607B6801233B624FF480337B62022370
:101A0000BB634FF48003FB6319233B644FF4A8735B
:101A10007B640223BB640423FB6407F120031846A4
:101A200002F0C4FD0346002B01D000F061F80F2343
:101A3000FB6002233B6100237B614FF4A053BB6139
:101A40004FF48053FB6107F10C030521184603F0A6
:101A500025F80346002B01D000F04AF800BF5037AC
:101A6000BD4680BD0038024000700040B0B586B071
:101A700004AF7860074C6D4604F10C030FCB85E88A
:101A80000F0094E80E00786801F04AF800BF0837AC
:101A9000BD46B0BD18C5000880B582B000AF786003
:101AA00001220549054805F0BFF8054B01221A70CF
:101AB00000BF0837BD4680BDBC0500209C08002043
:101AC000D405002080B483B000AF78607B68064AFC
:101AD000934202D1054B01221A7000BF0C37BD465C
:101AE0005DF8047B704700BFAC070020D5050020DF
:101AF00080B400AF72B600BFFEE7000084B080B5CE
:101B000082B000AF07F1100C8CE80F0097F92C3071
:101B1000DB115BB2DBB203F00103002B14BF012326
:101B20000023FB7197F92C30002BB8BF5B42DBB26E
:101B300087F82C30BB6A97F92C2002FB03F31B4A71
:101B4000A2FB03235B093B603869B98AFB7983F008
:101B50000103DBB21A4602F0CBFBBB69B98BFA7901
:101B6000184602F0C5FB7B6A002B04D13B6A1B6858
:101B70003A685A6313E07B6A042B04D13B6A1B6802
:101B80003A689A630BE07B6A082B04D13B6A1B68B6
:101B90003A68DA6303E03B6A1B683A681A6400BF7C
:101BA0000837BD46BDE8804004B070471F85EB5143
:101BB00080B483B000AF78600B46FB707B68FA7826
:101BC00083F825207B684FF00002DA617B684FF0D4
:101BD00000025A617B684FF000021A627B680022A3
:101BE00083F8242000BF0C37BD465DF8047B7047A6
:101BF00080B584B000AFF86087ED020AC7ED010A36
:101C000097ED017AD7ED027A77EE677AFB68C3ED3C
:101C10000B7AFB68D3ED0B7A9FED527A27EE877A29
:101C2000DFED516AC7EE267AFB68C3ED0B7AFB68DD
:101C300093ED057AFB68D3ED036AFB6893ED016AC7
:101C4000FB68D3ED0B5AFB68D3ED087A75EEA77AE3
:101C500066EE277A66EEA77A77EE277AFB68C3ED01
:101C6000057AFB684FF000029A61FB6893ED007AF9
:101C7000FB68D3ED0B7A27EE277AFB68D3ED057A64
:101C800037EE277AFB68D3ED067A77EE277AFCEEFB
:101C9000E77AC7ED007A3B78DAB2FB6883F8242054
:101CA000FB6893F82530012B30D1FB6893F8243082
:101CB000642B0AD801224FF480612C4802F018FBF3
:101CC000FB685A69FB689A6220E0FB6893ED007A32
:101CD000FB68D3ED0B7A27EE277AFB68D3ED0A7AFF
:101CE00037EE277AFB68D3ED067A77EE277AFCEE9B
:101CF000E77AC7ED007A3B78DAB2FB6883F82420F4
:101D000000224FF48061194802F0F2FAFB6893F860
:101D100024301A46FB6893F911309A4207DDFB68BC
:101D200093F91130DAB2FB6883F824200FE0FB68E6
:101D300093F824301A46FB6893F910309A4206DA79
:101D4000FB6893F91030DAB2FB6883F82420FB6853
:101D5000BA68DA61FB68DA6AFB681A6200BF10379A
:101D6000BD4680BD0000964200005A43000C024070
:101D700080B500AF174B184A1A60164B4FF48272A9
:101D80005A60144B00229A60124B0022DA60114B09
:101D900000221A610F4B00225A610E4B4FF4007261
:101DA0009A610C4B0022DA610A4B00221A62094B3D
:101DB00000225A62074B00229A62064B0A22DA621C
:101DC000044803F04BF80346002B01D0FFF790FEC8
:101DD00000BF80BDD80500200038004080B500AFAE
:101DE000174B184A1A60164B4FF482725A60144B04
:101DF00000229A60124B0022DA60114B00221A6115
:101E00000F4B00225A610E4B4FF400729A610C4B3B
:101E10000022DA610A4B00221A62094B00225A6240
:101E2000074B00229A62064B0A22DA62044803F04A
:101E300015F80346002B01D0FFF75AFE00BF80BD06
:101E400030060020003C004080B58CB000AF7860C8
:101E500007F11C0300221A605A609A60DA601A6166
:101E60007B681B68424A93424BD10023BB61414BC4
:101E70001B6C404A43F4804313643E4B1B6C03F4D9
:101E80008043BB61BB6900237B613A4B1B6B394AC2
:101E900043F004031363374B1B6B03F004037B61B4
:101EA0007B6900233B61334B1B6B324A43F00203D7
:101EB0001363304B1B6B03F002033B613B690C2344
:101EC000FB6102233B6200237B620323BB62052389
:101ED000FB6207F11C031946274802F06DF84FF426
:101EE0008063FB6102233B6200237B620323BB62AE
:101EF0000523FB6207F11C031946204802F05CF839
:101F000031E07B681B681E4A93422CD10023FB60A2
:101F1000184B1B6C174A43F400431364154B1B6C9E
:101F200003F40043FB60FB680023BB60114B1B6B99
:101F3000104A43F0040313630E4B1B6B03F00403BE
:101F4000BB60BB684FF4E053FB6102233B6200239C
:101F50007B620323BB620623FB6207F11C03194665
:101F6000054802F029F800BF3037BD4680BD00BFEC
:101F700000380040003802400008024000040240DF
:101F8000003C004080B483B000AF00237B60104B66
:101F90005B6C0F4A43F4804353640D4B5B6C03F45A
:101FA00080437B607B6800233B60094B1B6C084AC5
:101FB00043F080531364064B1B6C03F080533B606B
:101FC0003B6800BF0C37BD465DF8047B704700BF1F
:101FD0000038024080B400AFFEE780B400AFFEE7F7
:101FE00080B400AFFEE780B400AFFEE780B400AF7E
:101FF000FEE780B400AF00BFBD465DF8047B7047CC
:1020000080B400AF00BFBD465DF8047B704780B46C
:1020100000AF00BFBD465DF8047B704780B500AFE0
:1020200001F058F800BF80BD80B500AF024803F052
:102030002BFC00BF80BD00BF6407002080B500AF4F
:10204000024804F021FE00BF80BD00BF9C080020B4
:1020500080B500AF024803F017FC00BF80BD00BF91
:10206000AC07002080B400AF01231846BD465DF8E0
:10207000047B704780B582B000AF7860396005F0AE
:102080006BFD034616221A604FF0FF3318460837DF
:10209000BD4680BD80B582B000AF78604FF0FF31A3
:1020A0007868FFF7E7FFFEE780B586B000AFF8601D
:1020B000B9607A6000237B610AE0AFF300800146DB
:1020C000BB685A1CBA60CAB21A707B6901337B6163
:1020D0007A697B689A42F0DB7B6818461837BD4600
:1020E00080BD80B586B000AFF860B9607A6000232B
:1020F0007B6109E0BB685A1CBA601B781846FFF781
:10210000D1FA7B6901337B617A697B689A42F1DBA2
:102110007B6818461837BD4680BD80B483B000AFD9
:1021200078604FF0FF3318460C37BD465DF8047BEE
:10213000704780B483B000AF786039603B684FF47B
:1021400000525A60002318460C37BD465DF8047BE8
:10215000704780B483B000AF7860012318460C3715
:10216000BD465DF8047B704780B485B000AFF86071
:10217000B9607A60002318461437BD465DF8047BC9
:102180007047000080B586B000AF7860144A154BE8
:10219000D31A7B617B693B61134B1B68002B02D117
:1021A000114B124A1A60104B1A687B6813443A6943
:1021B0009A4207D205F0D0FC03460C221A604FF079
:1021C000FF3309E0084B1B68FB60074B1A687B680C
:1021D0001344054A1360FB6818461837BD4680BD96
:1021E00000000220000400008806002038090020BA
:1021F00080B400AF064BD3F88830054A43F470032F
:10220000C2F8883000BFBD465DF8047B704700BF50
:1022100000ED00E080B586B000AF07F108030022B2
:102220001A605A609A60DA603B4600221A605A606F
:102230001E4B1F4A1A601D4BA7225A601B4B0022DF
:102240009A601A4B4FF6FF72DA60184B00221A613F
:10225000164B00225A61154B00229A61134802F076
:1022600086FE0346002B01D0FFF742FC4FF480535B
:10227000BB6007F1080319460C4803F06BFD0346E9
:10228000002B01D0FFF734FC00233B6000237B6070
:102290003B461946054804F0C1FA0346002B01D01D
:1022A000FFF726FC00BF1837BD4680BD8C06002016
:1022B0000000014080B58CB000AF07F10C03242270
:1022C0000021184605F072FC3B1D00221A605A607E
:1022D000214B4FF080421A601F4B00225A601E4B68
:1022E00000229A601C4B4BF64072DA601A4B0022B7
:1022F0001A61194B80229A610323FB6002233B6120
:1023000001237B610023BB610A23FB6100233B6245
:1023100001237B620023BB620A23FB6207F10C03EB
:1023200019460D4803F07CF90346002B01D0FFF756
:10233000DFFB00237B600023BB603B1D1946064882
:1023400004F06CFA0346002B01D0FFF7D1FB00BF6D
:102350003037BD4680BD00BFD406002080B58CB0AC
:1023600000AF07F10C0324220021184605F01EFCE3
:102370003B1D00221A605A60204B214A1A601F4BF5
:1023800000225A601D4B00229A601C4B4BF6407293
:10239000DA601A4B00221A61184B80229A610323DB
:1023A000FB6000233B6101237B610023BB610A23A7
:1023B000FB6100233B6201237B620023BB620A2393
:1023C000FB6207F10C0319460C4803F029F9034698
:1023D000002B01D0FFF78CFB00237B600023BB6048
:1023E0003B1D1946054804F019FA0346002B01D09D
:1023F000FFF77EFB00BF3037BD4680BD1C070020C5
:102400000004004080B58AB000AF07F11803002235
:102410001A605A609A60DA6007F1100300221A60AD
:102420005A603B4600221A605A609A60DA60314B6B
:10243000314A1A602F4B00225A602E4B00229A60BC
:102440002C4B4FF6FF72DA602A4B00221A61294B9F
:1024500000229A61274802F08AFD0346002B01D032
:10246000FFF746FB4FF48053BB6107F11803194691
:10247000204803F06FFC0346002B01D0FFF738FB28
:102480001C4802F055FF0346002B01D0FFF730FB3C
:1024900000233B6100237B6107F1100319461548B7
:1024A00004F0BCF90346002B01D0FFF721FB002309
:1024B0003B6001237B600023BB600023FB603B4645
:1024C000082219460B4803F0E7FA0346002B01D017
:1024D000FFF70EFB3B460C221946064803F0DCFAD8
:1024E0000346002B01D0FFF703FB00BF2837BD4692
:1024F00080BD00BF640700200008004080B586B0A2
:1025000000AF07F1080300221A605A609A60DA608F
:102510003B4600221A605A601D4B1E4A1A601C4B33
:1025200042F210725A601A4B00229A60184B5322E2
:10253000DA60174B00221A61154B00229A61144889
:1025400002F015FD0346002B01D0FFF7D1FA4FF43E
:102550008053BB6007F1080319460D4803F0FAFBEE
:102560000346002B01D0FFF7C3FA00233B60002392
:102570007B603B461946064804F050F90346002BA1
:1025800001D0FFF7B5FA00BF1837BD4680BD00BFC8
:10259000AC070020000C004080B596B000AF07F1FA
:1025A000480300221A605A609A60DA6007F140031B
:1025B00000221A605A6007F1240300221A605A6050
:1025C0009A60DA601A615A619A613B1D20220021EB
:1025D000184605F0EBFA444B444A1A60424B072276
:1025E0005A60414B00229A603F4B4FF47A72DA6096
:1025F0003D4B00221A613C4B00225A613A4B80222B
:102600009A61394802F0B3FC0346002B01D0FFF772
:102610006FFA4FF48053BB6407F148031946324800
:1026200003F098FB0346002B01D0FFF761FA2E4818
:1026300002F05CFD0346002B01D0FFF759FA00239E
:102640003B6400237B6407F140031946264804F0ED
:10265000E5F80346002B01D0FFF74AFA60237B62BE
:102660000023BB620023FB6200233B6300237B63E8
:102670000023BB630023FB6307F1240300221946F8
:10268000194803F0A5FA0346002B01D0FFF730FAF2
:1026900007F1240304221946134803F099FA03466C
:1026A000002B01D0FFF724FA00237B600023BB60DE
:1026B0000023FB6000233B6100237B614FF4005348
:1026C000BB6100233B623B1D1946074804F022F919
:1026D0000346002B01D0FFF70BFA034800F0CEF9B8
:1026E00000BF5837BD4680BDF407002000040140FC
:1026F00080B584B000AF3B4600221A605A609A60F1
:10270000DA601E4B1E4A1A601C4B00225A601B4B9B
:1027100000229A60194B4FF6FF72DA60174B0022C5
:102720001A61164B00229A61144802F001FE03461A
:10273000002B01D0FFF7DCF900233B6001237B6015
:102740000023BB600023FB603B46002219460B4878
:1027500003F0A2F90346002B01D0FFF7C9F93B466D
:1027600004221946054803F097F90346002B01D0CF
:10277000FFF7BEF900BF1037BD4680BD3C08002002
:102780000040014080B58CB000AF786007F11C03B9
:1027900000221A605A609A60DA601A617B681B68CE
:1027A0003F4A93420ED10023BB613E4B5B6C3D4AD6
:1027B00043F0010353643B4B5B6C03F00103BB61CB
:1027C000BB6969E07B681B68374A934235D10023B7
:1027D0007B61344B1B6C334A43F004031364314B6D
:1027E0001B6C03F004037B617B6900233B612D4B71
:1027F0001B6B2C4A43F0020313632A4B1B6B03F041
:1028000002033B613B694FF44073FB6102233B626F
:1028100000237B620023BB620223FB6207F11C03DF
:102820001946224801F0C8FB002200211E2000F0BA
:10283000D2FF1E2000F0EBFF2EE07B681B681C4AD5
:10284000934216D10023FB60164B1B6C154A43F0D4
:1028500008031364134B1B6C03F00803FB60FB6855
:1028600000220021322000F0B6FF322000F0CFFF1E
:1028700012E07B681B680F4A93420DD10023BB60B6
:10288000084B5B6C074A43F002035364054B5B6CD7
:1028900003F00203BB60BB6800BF3037BD4680BD9C
:1028A00000000140003802400008004000040240DF
:1028B000000C00400004014080B58CB000AF78608F
:1028C00007F11C0300221A605A609A60DA601A61EC
:1028D0007B681B68B3F1804F4BD10023BB613F4B3A
:1028E0001B6C3E4A43F0010313643C4B1B6C03F02A
:1028F0000103BB61BB6900237B61384B1B6B374A0B
:1029000043F001031363354B1B6B03F001037B6141
:102910007B6900233B61314B1B6B304A43F0020360
:1029200013632E4B1B6B03F002033B613B694FF4B7
:102930000043FB6102233B6200237B620023BB62F6
:102940000123FB6207F11C031946254801F034FB03
:102950000823FB6102233B6200237B620023BB62EE
:102960000123FB6207F11C0319461E4801F024FBFA
:1029700030E07B681B681C4A93422BD10023FB602C
:10298000164B1B6C154A43F002031364134B1B6C6C
:1029900003F00203FB60FB680023BB600F4B1B6B63
:1029A0000E4A43F0020313630C4B1B6B03F002034C
:1029B000BB60BB683023FB6102233B6200237B6268
:1029C0000023BB620223FB6207F11C031946054882
:1029D00001F0F2FA00BF3037BD4680BD003802403A
:1029E00000000240000402400004004080B58AB0AC
:1029F00000AF786007F1140300221A605A609A60F1
:102A0000DA601A617B681B68194A93422BD1002354
:102A10003B61184B5B6C174A43F480335364154B8E
:102A20005B6C03F480333B613B690023FB60114B1B
:102A30001B6B104A43F0100313630E4B1B6B03F028
:102A40001003FB60FB6860237B610223BB610023F2
:102A5000FB6100233B6203237B6207F114031946E9
:102A6000054801F0A9FA00BF2837BD4680BD00BF68
:102A700000400140003802400010024080B588B09C
:102A800000AF786007F10C0300221A605A609A6068
:102A9000DA601A617B681B68124A93421DD10023D9
:102AA000BB60114B1B6B104A43F0040313630E4BC6
:102AB0001B6B03F00403BB60BB68C023FB600223F5
:102AC0003B6100237B610023BB610323FB6107F1B2
:102AD0000C031946054801F06FFA00BF2037BD46C8
:102AE00080BD00BF000401400038024000080240E1
:102AF00084B080B500AF07F1080C8CE80F003B698B
:102B0000184602F083FA3B69BA691146184602F08A
:102B10005FFC00BFBD46BDE8804004B070470000C8
:102B200084B0B0B582B000AF786007F11C0080E8D7
:102B30000E007B681A68BB6A9A4240F00D817B6880
:102B40001B7F1A46FB6A9A4240F00681884B1B782D
:102B500083F00103DBB2002B66D0FB6A194678686C
:102B600003F0C0F90346824A9360814B01221A7038
:102B70007F4B00225A80FB6A002B08D17B681B68C0
:102B80001A6A7B681B6822F00A021A621FE0FB6A5D
:102B9000042B08D17B681B681B6A7A68126823F0D3
:102BA000A003136213E0FB6A082B08D17B681B6843
:102BB0001B6A7A68126823F42063136207E07B685B
:102BC0001B681B6A7A68126823F420431362FB6A4D
:102BD000002B08D17B681B681A6A7B681B6842F06F
:102BE00002021A62B8E0FB6A042B08D17B681B68FA
:102BF0001B6A7A68126843F020031362ACE0FB6A38
:102C0000082B08D17B681B681B6A7A68126843F43A
:102C100000731362A0E07B681B681B6A7A68126805
:102C200043F40053136297E0FB6A1946786803F097
:102C300059F903464E4AD360BB6ADB6A4C4A53607B
:102C40004B4BDA684A4B5B881946494B5B6801334A
:102C500001FB03F31344464AD360454BDA68444B07
:102C60009B68D31A424A1361414B1B691846FDF712
:102C700049FC3DA3D3E90023FDF7BEFC02460B4609
:102C800014461D463A6B7B6BB2FBF3F31846FDF717
:102C900039FC02460B4620462946FDF7D7FD024681
:102CA0000B4610461946FDF79FFF0346304A536115
:102CB0002F4B00221A70FB6A002B08D17B681B681F
:102CC0001A6A7B681B6822F00A021A621FE0FB6A1C
:102CD000042B08D17B681B681B6A7A68126823F092
:102CE000A003136213E0FB6A082B08D17B681B6802
:102CF0001B6A7A68126823F42063136207E07B681A
:102D00001B681B6A7A68126823F420431362FB6A0B
:102D1000002B06D17B681A687B681B68126A1A62EE
:102D20001AE0FB6A042B06D17B681B687A6812687C
:102D30001B6A136210E0FB6A082B06D17B681B68D4
:102D40007A6812681B6A136206E07B681B687A68FF
:102D500012681B6A1362FFE700BF0837BD46BDE873
:102D6000B04004B0704700BF9CC420B07268913F6F
:102D70008408002080B500AF114B124A1A60104B36
:102D80004FF4E1325A600E4B00229A600C4B002245
:102D9000DA600B4B00221A61094B0C225A61084B76
:102DA00000229A61064B0022DA61054803F018FE02
:102DB0000346002B01D0FEF79BFE00BF80BD00BF85
:102DC0009C0800200010014080B500AF114B124A52
:102DD0001A60104B4FF4E1325A600E4B00229A6099
:102DE0000C4B0022DA600B4B00221A61094B0C22BB
:102DF0005A61084B00229A61064B0022DA610548AD
:102E000003F0EEFD0346002B01D0FEF771FE00BF7C
:102E100080BD00BFE00800200044004080B58CB0B9
:102E200000AF786007F11C0300221A605A609A60B4
:102E3000DA601A617B681B68364A934235D10023F9
:102E4000BB61354B5B6C344A43F010035364324B27
:102E50005B6C03F01003BB61BB6900237B612E4BED
:102E60001B6B2D4A43F0010313632B4B1B6B03F0C9
:102E700001037B617B694FF4C063FB6102233B620A
:102E800000237B620323BB620723FB6207F11C0361
:102E90001946224801F090F800220021252000F078
:102EA0009AFC252000F0B3FC30E07B681B681C4ACC
:102EB00093422BD100233B61174B1B6C164A43F402
:102EC00000331364144B1B6C03F400333B613B6908
:102ED0000023FB60104B1B6B0F4A43F00803136386
:102EE0000D4B1B6B03F00803FB60FB686023FB6169
:102EF00002233B6200237B620323BB620723FB6246
:102F000007F11C031946074801F056F800BF303797
:102F1000BD4680BD00100140003802400000024064
:102F200000440040000C024080B586B000AF07F1BD
:102F3000080300221A605A609A60DA603B46002259
:102F40001A605A60224B234A1A6001F053FF03466D
:102F5000214AA2FB03239B0C013B1D4A53601C4BDF
:102F600000229A601A4B4FF6FF72DA60184B00226B
:102F70001A61174B00225A61154B00229A611448BE
:102F800001F0F5FF0346002B01D0FEF7B1FD4FF431
:102F90008053BB6007F1080319460D4802F0DAFEC2
:102FA0000346002B01D0FEF7A3FD00233B60002366
:102FB0007B603B461946064803F030FC0346002B75
:102FC00001D0FEF795FD00BF1837BD4680BD00BF9C
:102FD0008C0600200000014083DE1B43DFF834D064
:102FE0000D480E490E4A002302E0D458C450043361
:102FF000C4188C42F9D30B4A0B4C002301E0136038
:103000000432A242FBD3FFF7F3F804F0ABFDFEF766
:103010005BFB7047000002200000002040020020FF
:1030200004CA00084002002038090020FEE7000022
:1030300080B500AF0E4B1B680D4A43F4007313605C
:103040000B4B1B680A4A43F480631360084B1B68F0
:10305000074A43F480731360032000F0B1FB0F2094
:1030600000F008F8FEF78EFF0023184680BD00BF71
:10307000003C024080B582B000AF7860124B1A6805
:10308000124B1B7819464FF47A73B3FBF1F3B2FB82
:10309000F3F3184600F0C9FB0346002B01D00123CF
:1030A0000EE07B680F2B0AD8002279684FF0FF30C2
:1030B00000F091FB064A7B681360002300E00123C7
:1030C00018460837BD4680BD60000020680000201B
:1030D0006400002080B400AF064B1B781A46064BF4
:1030E0001B681344044A136000BFBD465DF8047BAF
:1030F000704700BF680000202409002080B400AFA2
:10310000034B1B681846BD465DF8047B704700BF43
:103110002409002080B584B000AF7860FFF7EEFF8F
:10312000B8607B68FB60FB68B3F1FF3F05D00A4BDA
:103130001B781A46FB681344FB6000BFFFF7DEFFF5
:103140000246BB68D31AFA689A42F7D800BF00BF9C
:103150001037BD4680BD00BF6800002080B584B038
:1031600000AF78600023FB737B68002B01D1012343
:1031700033E07B681B6C002B09D17868FDF78EFF6C
:103180007B6800225A647B68002283F83C207B68BD
:103190001B6C03F01003002B18D17B681B6C23F40D
:1031A000885323F0020343F002027B681A647868B4
:1031B00000F03AF97B6800225A647B681B6C23F0AC
:1031C000030343F001027B681A6401E00123FB73EF
:1031D0007B68002283F83C20FB7B18461037BD46F5
:1031E00080BD000080B485B000AF786039600023F6
:1031F000BB607B6893F83C30012B01D1022305E1D1
:103200007B68012283F83C203B681B68092B25D989
:103210007B681B68D9683B681B689BB21A461346DB
:103220005B0013441E3B072202FA03F3DA437B6878
:103230001B680A40DA607B681B68D9683B689A683B
:103240003B681B689BB2184603465B0003441E3B69
:103250009A407B681B680A43DA6022E07B681B683F
:1032600019693B681B689BB21A4613465B001344FE
:10327000072202FA03F3DA437B681B680A401A61EB
:103280007B681B6819693B689A683B681B689BB23E
:10329000184603465B0003449A407B681B680A4358
:1032A0001A613B685B68062B24D87B681B68596BE6
:1032B0003B685A6813469B001344053B1F2202FAE1
:1032C00003F3DA437B681B680A405A637B681B6818
:1032D000596B3B681B689BB218463B685A6813469B
:1032E0009B001344053B00FA03F27B681B680A430A
:1032F0005A634CE03B685B680C2B24D87B681B68E6
:10330000196B3B685A6813469B001344233B1F22EA
:1033100002FA03F3DA437B681B680A401A637B688E
:103320001B68196B3B681B689BB218463B685A6860
:1033300013469B001344233B00FA03F27B681B688F
:103340000A431A6323E07B681B68D96A3B685A68A2
:1033500013469B001344413B1F2202FA03F3DA4356
:103360007B681B680A40DA627B681B68D96A3B6825
:103370001B689BB218463B685A6813469B0013446F
:10338000413B00FA03F27B681B680A43DA62224B76
:10339000FB607B681B68214A934209D13B681B682C
:1033A000122B05D1FB685B6843F48002FB685A600E
:1033B0007B681B68194A934223D13B681B68102B1A
:1033C00003D03B681B68112B1BD1FB685B6843F47F
:1033D0000002FB685A603B681B68102B11D1104B30
:1033E0001B68104AA2FB03239A0C13469B0013444C
:1033F0005B00BB6002E0BB68013BBB60BB68002BAD
:10340000F9D17B68002283F83C200023184614374A
:10341000BD465DF8047B7047002301400020014059
:103420006000002083DE1B4380B485B000AF78606D
:10343000794BFB60FB685B6823F44032FB685A60A1
:10344000FB685A687B685B681A43FB685A607B6854
:103450001B685A687B681B6822F480725A607B681C
:103460001B6859687B681B691A027B681B680A43E2
:103470005A607B681B685A687B681B6822F0407240
:103480005A607B681B6859687B689A687B681B6810
:103490000A435A607B681B689A687B681B6822F441
:1034A00000629A607B681B6899687B68DA687B6851
:1034B0001B680A439A607B689B6A584A934222D0F1
:1034C0007B681B689A687B681B6822F070629A6050
:1034D0007B681B6899687B689A6A7B681B680A43EB
:1034E0009A607B681B689A687B681B6822F0405270
:1034F0009A607B681B6899687B68DA6A7B681B68DE
:103500000A439A600FE07B681B689A687B681B68B7
:1035100022F070629A607B681B689A687B681B68FF
:1035200022F040529A607B681B689A687B681B682F
:1035300022F002029A607B681B6899687B681B7E98
:103540005A007B681B680A439A607B6893F82030B6
:10355000002B1BD07B681B685A687B681B6842F491
:1035600000625A607B681B685A687B681B6822F49B
:1035700060425A607B681B6859687B685B6A013BE4
:103580005A037B681B680A435A6007E07B681B6824
:103590005A687B681B6822F400625A607B681B686B
:1035A000DA6A7B681B6822F47002DA627B681B6847
:1035B000D96A7B68DB69013B1A057B681B680A4393
:1035C000DA627B681B689A687B681B6822F4007269
:1035D0009A607B681B6899687B6893F830305A0260
:1035E0007B681B680A439A607B681B689A687B68E3
:1035F0001B6822F480629A607B681B6899687B680C
:103600005B699A027B681B680A439A6000BF1437A3
:10361000BD465DF8047B7047002301400100000FA8
:1036200080B485B000AF78607B6803F00703FB606F
:103630000C4BDB68BB60BA684FF6FF031340BB60FE
:10364000FB681A02BB68134343F0BF6343F40033C3
:10365000BB60044ABB68D36000BF1437BD465DF849
:10366000047B704700ED00E080B400AF044BDB68E2
:103670001B0A03F007031846BD465DF8047B70473C
:1036800000ED00E080B483B000AF0346FB7197F912
:103690000730002B0BDBFB7903F01F02074997F97A
:1036A00007305B09012000FA02F241F8232000BF35
:1036B0000C37BD465DF8047B704700BF00E100E0B9
:1036C00080B483B000AF03463960FB7197F90730CF
:1036D000002B0ADB3B68DAB20C4997F9073012017C
:1036E000D2B20B4483F800230AE03B68DAB20849FF
:1036F000FB7903F00F03043B1201D2B20B441A769C
:1037000000BF0C37BD465DF8047B704700E100E068
:1037100000ED00E080B489B000AFF860B9607A6075
:10372000FB6803F00703FB61FB69C3F10703042B8C
:1037300028BF0423BB61FB690433062B02D9FB6954
:10374000033B00E000237B614FF0FF32BB6902FACC
:1037500003F3DA43BB681A407B699A404FF0FF31AC
:103760007B6901FA03F3D9437B680B401343184686
:103770002437BD465DF8047B7047000080B582B0F9
:1037800000AF78607B68013BB3F1807F01D30123F8
:103790000FE00A4A7B68013B53600F214FF0FF3076
:1037A000FFF78EFF054B00229A60044B07221A6038
:1037B000002318460837BD4680BD00BF10E000E07A
:1037C00080B582B000AF78607868FFF729FF00BF4E
:1037D0000837BD4680BD80B586B000AF0346B960EE
:1037E0007A60FB7300237B61FFF73EFF78617A68A4
:1037F000B9687869FFF78EFF024697F90F301146D6
:103800001846FFF75DFF00BF1837BD4680BD80B585
:1038100082B000AF0346FB7197F907301846FFF7F7
:1038200031FF00BF0837BD4680BD80B582B000AF14
:1038300078607868FFF7A2FF034618460837BD4650
:1038400080BD80B584B000AF78607B689B6DFB6005
:10385000FFF754FCB8607B6893F83530DBB2022B7D
:1038600008D07B6880225A657B68002283F8342068
:10387000012352E07B681B681A687B681B6822F092
:1038800016021A607B681B685A697B681B6822F005
:1038900080025A617B681B6C002B03D17B689B6C98
:1038A000002B07D07B681B681A687B681B6822F0B6
:1038B00008021A607B681B681A687B681B6822F024
:1038C00001021A6013E0FFF719FC0246BB68D31A25
:1038D000052B0CD97B6820225A657B68032283F86C
:1038E00035207B68002283F83420032315E07B68B1
:1038F0001B681B6803F00103002BE4D17B68DB6DC0
:103900003F229A40FB689A607B68012283F8352049
:103910007B68002283F83420002318461037BD4608
:1039200080BD80B483B000AF78607B6893F8353099
:10393000DBB2022B04D07B6880225A6501230CE0A5
:103940007B68052283F835207B681B681A687B68D2
:103950001B6822F001021A60002318460C37BD468E
:103960005DF8047B7047000080B584B000AF7860DC
:103970007B68002B01D101236CE07B68D3F8843095
:10398000002B06D17B682322C3F884207868FDF7DA
:1039900017FC0023BB60314B5B6C304A43F480431F
:1039A00053642E4B5B6C03F48043BB60BB682C4BB1
:1039B0005B682B4A23F400035360294B5A687B68E9
:1039C0009B68274913434B60254B5B687B681B68EA
:1039D00003F580531B687A68126843F0010302F50F
:1039E00080521360FFF78AFBF86011E0FFF786FB57
:1039F0000246FB68D31AB3F5FA7F09D97B68042223
:103A0000C3F888207B68E022C3F88420012321E0EA
:103A10007B681B6803F580531B6803F00103002BD0
:103A2000E4D1786800F058F9786800F0FFF9786818
:103A300000F055FA7B685B681A460021786800F050
:103A4000BDF97B680022C3F888207B681022C3F888
:103A50008420002318461037BD4680BD0038024040
:103A60000038014080B584B000AF786039607B6871
:103A70001B681B68FB60FA68514B1340FB603B6896
:103A80001B7C002B02D14FF4000200E000223B68B7
:103A90005B7C002B02D14FF4800300E000231A432B
:103AA0003B689B681A433B68DB7F1B041A433B68F7
:103AB0005B6913433A68927F002A02D14FF40052A7
:103AC00000E000221A433B681B7F1B031A433B683C
:103AD0009B691A433B681B799B0213433A6892F82F
:103AE0002020002A02D14FF4007200E000221A4385
:103AF0003B68DB7BDB011A433B685B6A1A433B682C
:103B000093F828301B011343FA681343FB607B686A
:103B10001B68FA681A607B681B681B68FB600120E1
:103B2000FFF7F8FA7B681B68FA681A607B681B6805
:103B30009B69FB60FA684FF641731340FB603B687A
:103B40009B6C1B043A6892F84C20002A01D1802219
:103B500000E000221A433B681B6D13433A6892F859
:103B60005520012A01D1082200E0002213433A68BF
:103B700092F85620012A01D1042200E000221343CA
:103B80003A6892F85420012A01D1022200E0002272
:103B90001343FA681343FB607B681B68FA689A61F9
:103BA0007B681B689B69FB600120FFF7B3FA7B68A9
:103BB0001B68FA689A6100BF1037BD4680BD00BF20
:103BC0000F8120FF80B584B000AF786039607B68DA
:103BD0001B6803F580539B69FB60FA683D4B1340FB
:103BE000FB603B681B7B002B02D14FF0806200E042
:103BF00000223B685B7B5B0613433A68527F002AD6
:103C000002D14FF4801200E000221A433B689B7BF4
:103C10005B051A433B685B691A433B681B7FDB010A
:103C20001A433B689B7F9B011A433B681B6A1A43FC
:103C30003B6893F824309B001343FA681343FB60FE
:103C40007B681B6803F580531A46FB6893617B68A9
:103C50001B6803F580539B69FB600120FFF75AFA4C
:103C60007B681B6803F580531A46FB6893613B68C9
:103C70001B795A063B689B681A433B689B691A4349
:103C80003B681B691A433B6893F82530DB011A43F4
:103C90003B689B6A9B001A433B681B6813437A6826
:103CA000126843F4000302F5805213607B681B68BE
:103CB00003F580531B68FB600120FFF72BFA7B683C
:103CC0001B6803F580531A46FB68136000BF10376A
:103CD000BD4680BD233FDEF880B5A6B000AF78605A
:103CE000012387F84430012387F845300023FB6324
:103CF000002387F85330012387F85230002387F8D8
:103D00005030012387F83830002387F854300023DF
:103D100087F843300023BB65002387F85C3000231D
:103D2000FB67002387F880300023C7F88430002326
:103D300087F88A30002387F888304FF48043BB64CB
:103D40004FF40063FB64002387F8893007F13403E4
:103D500019467868FFF786FE01233B7501237B75C2
:103D6000012387F825300123BB750023FB61002365
:103D700087F82430002387F826300023BB62012314
:103D800087F82C3001233B734FF480333B614FF4B1
:103D900080033B624FF40053BB61012387F82D3051
:103DA00000233B630023BB6007F1080319467868D2
:103DB000FFF708FF00BF9837BD4680BD80B487B0CD
:103DC00000AFF860B9607A607B6805331B781B022E
:103DD0007A680432127813437B61BA68114B13443A
:103DE0001A467B6913607B6803331B781A067B686D
:103DF00002331B781B041A437B6801331B781B02B8
:103E000013437A68127813437B61BA68064B1344F4
:103E10001A467B69136000BF1C37BD465DF8047B02
:103E2000704700BF408002404480024080B485B0AB
:103E300000AF78600023FB603EE07B68D968FA68D9
:103E400013469B001344DB000B44BB60BB6800229D
:103E50001A60BB6800225A60BB6800229A60BB6887
:103E60000022DA60B9687B68FA68063243F82210EB
:103E7000BB681B6843F48012BB681A60FB68022BA6
:103E80000CD87B68D968FB685A1C13469B00134406
:103E9000DB000B441A46BB68DA6004E07B68DB6831
:103EA0001A46BB68DA60BB681B6843F44002BB6813
:103EB0001A60FB680133FB60FB68032BBDD97B688C
:103EC00000229A627B68DA687B681B6803F580537E
:103ED0001A6100BF1437BD465DF8047B704780B49B
:103EE00085B000AF78600023FB6046E07B6819690D
:103EF000FA6813469B001344DB000B44BB60BB68AD
:103F000000221A60BB6800225A60BB6800229A60D7
:103F1000BB680022DA60BB6800221A62BB6800221C
:103F20005A62BB684FF000421A60BB6844F2F85214
:103F30005A60BB685B6823F00042BB685A60B9688E
:103F40007B68FA68123243F82210FB68022B0CD807
:103F50007B681969FB685A1C13469B001344DB00FD
:103F60000B441A46BB68DA6004E07B681B691A469A
:103F7000BB68DA60FB680133FB60FB68032BB5D9D3
:103F80007B680022DA657B6800221A667B68002263
:103F90009A667B680022DA667B6800229A657B68F5
:103FA0001A697B681B6803F58053DA6000BF143719
:103FB000BD465DF8047B704780B489B000AF78607F
:103FC000396000237B6100233B610023BB61002338
:103FD000FB616BE10122FB6902FA03F37B613B6841
:103FE0001B687A6913403B613A697B699A4240F0E9
:103FF0005A813B685B6803F00303012B05D03B68E3
:104000005B6803F00303022B30D17B689B68BB61C4
:10401000FB695B00032202FA03F3DB43BA69134036
:10402000BB613B68DA68FB695B0002FA03F3BA69BB
:104030001343BB617B68BA699A607B685B68BB614C
:104040000122FB6902FA03F3DB43BA691340BB6147
:104050003B685B681B0903F00102FB6902FA03F38A
:10406000BA691343BB617B68BA695A603B685B6895
:1040700003F00303032B17D07B68DB68BB61FB698C
:104080005B00032202FA03F3DB43BA691340BB610E
:104090003B689A68FB695B0002FA03F3BA69134351
:1040A000BB617B68BA69DA603B685B6803F0030355
:1040B000022B23D1FB69DA087B68083253F82230DF
:1040C000BB61FB6903F007039B000F2202FA03F3B5
:1040D000DB43BA691340BB613B681A69FB6903F0B3
:1040E00007039B0002FA03F3BA691343BB61FB6940
:1040F000DA087B680832B96943F822107B681B68CC
:10410000BB61FB695B00032202FA03F3DB43BA697C
:104110001340BB613B685B6803F00302FB695B0013
:1041200002FA03F3BA691343BB617B68BA691A6088
:104130003B685B6803F44033002B00F0B48000233D
:10414000FB60604B5B6C5F4A43F4804353645D4BA0
:104150005B6C03F48043FB60FB685B4AFB699B0874
:10416000023352F82330BB61FB6903F003039B0069
:104170000F2202FA03F3DB43BA691340BB617B6889
:10418000524A93422BD07B68514A934225D07B6898
:10419000504A93421FD07B684F4A934219D07B68A4
:1041A0004E4A934213D07B684D4A93420DD07B68B0
:1041B0004C4A934207D07B684B4A934201D1072374
:1041C0000EE008230CE006230AE0052308E00423A0
:1041D00006E0032304E0022302E0012300E00023C1
:1041E000FA6902F0030292009340BA691343BB617B
:1041F0003549FB699B080233BA6941F823203B4BE0
:104200009B68BB613B69DB43BA691340BB613B6898
:104210005B6803F48013002B03D0BA693B69134336
:10422000BB61324ABB699360304BDB68BB613B6961
:10423000DB43BA691340BB613B685B6803F400135E
:10424000002B03D0BA693B691343BB61274ABB69A2
:10425000D360264B5B68BB613B69DB43BA691340A3
:10426000BB613B685B6803F40033002B03D0BA6981
:104270003B691343BB611D4ABB6953601B4B1B6801
:10428000BB613B69DB43BA691340BB613B685B6858
:1042900003F48033002B03D0BA693B691343BB613D
:1042A000124ABB691360FB690133FB61FB690F2B89
:1042B0007FF690AE00BF00BF2437BD465DF8047B9B
:1042C000704700BF00380240003801400000024043
:1042D0000004024000080240000C024000100240AE
:1042E0000014024000180240001C0240003C014043
:1042F00080B483B000AF78600B467B8013467B7040
:104300007B78002B03D07A887B689A6103E07B88F6
:104310001A047B689A6100BF0C37BD465DF8047BC8
:104320007047000080B584B000AF78607B68002BD8
:1043300001D101232BE17B6893F83D30DBB2002BE8
:1043400006D17B68002283F83C207868FDF70AF9E3
:104350007B68242283F83D207B681B681A687B6891
:104360001B6822F001021A607B681B681A687B6870
:104370001B6842F400421A607B681B681A687B68FD
:104380001B6822F400421A6000F040FDF8607B6870
:104390005B68814A934207D8FB68804A934294BF86
:1043A00001230023DBB206E0FB687D4A934294BF01
:1043B00001230023DBB2002B01D00123E7E0FB68DF
:1043C000784AA2FB03239B0CBB607B681B685B687D
:1043D00023F03F017B681B68BA680A435A607B6818
:1043E0001B681B6A23F03F017B685B686A4A934243
:1043F00002D8BB68013309E0BB684FF4967202FB38
:1044000003F3694AA2FB03239B0901337A6812680C
:104410000B4313627B681B68DB6923F44F4222F075
:10442000FF027B685B685C498B4219D8FB68591EA8
:104430007B685B685B00B1FBF3F3591C40F6FC73CF
:104440000B40002B0AD0FB68591E7B685B685B0041
:10445000B1FBF3F30133C3F30B0351E004234FE04B
:104460007B689B68002B11D1FB68581E7B685968DC
:104470000B465B000B44B0FBF3F30133C3F30B03B8
:10448000002B0CBF01230023DBB212E0FB68581E97
:104490007B6859680B469B000B4499000B44B0FBAA
:1044A000F3F30133C3F30B03002B0CBF01230023F1
:1044B000DBB2002B01D0012322E07B689B68002B3C
:1044C0000ED1FB68581E7B6859680B465B000B4495
:1044D000B0FBF3F30133C3F30B0343F400430FE0EA
:1044E000FB68581E7B6859680B469B000B4499007B
:1044F0000B44B0FBF3F30133C3F30B0343F440432A
:10450000796809681343CB617B681B681B6823F0DB
:10451000C0017B68DA697B681B6A1A437B681B6889
:104520000A431A607B681B689B6823F4034323F0EB
:10453000FF037A6811697A68D26811437A68126851
:104540000B4393607B681B68DB6823F0FF017B688B
:104550005A697B689B691A437B681B680A43DA6067
:104560007B681B681A687B681B6842F001021A604E
:104570007B6800221A647B68202283F83D207B68D8
:1045800000221A637B68002283F83E20002318462D
:104590001037BD4680BD00BFA08601007F841E008D
:1045A000FF083D0083DE1B43D34D621080B586B00B
:1045B00000AF78607B68002B01D1012367E27B6844
:1045C0001B6803F00103002B75D0884B9B6803F038
:1045D0000C03042B0CD0854B9B6803F00C03082BB9
:1045E00012D1824B5B6803F48003B3F5800F0BD1CB
:1045F0007E4B1B6803F40033002B5BD07B685B6849
:10460000002B57D1012342E27B685B68B3F5803F02
:1046100006D1764B1B68754A43F4803313601DE066
:104620007B685B68B3F5A02F0CD1704B1B686F4A99
:1046300043F4802313606D4B1B686C4A43F4803352
:1046400013600BE0694B1B68684A23F480331360E6
:10465000664B1B68654A23F4802313607B685B68A4
:10466000002B13D0FEF74AFD386108E0FEF746FD47
:1046700002463B69D31A642B01D9032307E25B4B43
:104680001B6803F40033002BF0D014E0FEF736FD76
:10469000386108E0FEF732FD02463B69D31A642B0D
:1046A00001D90323F3E1514B1B6803F40033002BC2
:1046B000F0D100E000BF7B681B6803F00203002B11
:1046C00063D04A4B9B6803F00C03002B0BD0474B85
:1046D0009B6803F00C03082B1CD1444B5B6803F46C
:1046E0008003002B16D1414B1B6803F00203002B03
:1046F00005D07B68DB68012B01D00123C7E13B4B70
:104700001B6823F0F8027B681B69DB003749134301
:104710000B603AE07B68DB68002B20D0344B012231
:104720001A60FEF7EBFC386108E0FEF7E7FC024692
:104730003B69D31A022B01D90323A8E12B4B1B6839
:1047400003F00203002BF0D0284B1B6823F0F80283
:104750007B681B69DB00254913430B6015E0244B84
:1047600000221A60FEF7CAFC386108E0FEF7C6FCBA
:1047700002463B69D31A022B01D9032387E11B4B65
:104780001B6803F00203002BF0D17B681B6803F069
:104790000803002B36D07B685B69002B16D0154BC5
:1047A00001221A60FEF7AAFC386108E0FEF7A6FCB9
:1047B00002463B69D31A022B01D9032367E10B4B55
:1047C0005B6F03F00203002BF0D01BE0094B0022CB
:1047D0001A60FEF793FC38610EE0FEF78FFC02468C
:1047E0003B69D31A022B07D9032350E1003802405A
:1047F00000004742800E4742884B5B6F03F0020384
:10480000002BEAD17B681B6803F00403002B00F047
:1048100097800023FB75814B1B6C03F08053002BAA
:104820000FD10023BB607D4B1B6C7C4A43F080534F
:1048300013647A4B1B6C03F08053BB60BB6801238D
:10484000FB75774B1B6803F48073002B18D1744BF6
:104850001B68734A43F480731360FEF74FFC3861A2
:1048600008E0FEF74BFC02463B69D31A022B01D944
:1048700003230CE16A4B1B6803F48073002BF0D018
:104880007B689B68012B06D1644B1B6F634A43F026
:10489000010313671CE07B689B68052B0CD15F4B01
:1048A0001B6F5E4A43F0040313675C4B1B6F5B4A4C
:1048B00043F0010313670BE0584B1B6F574A23F07B
:1048C00001031367554B1B6F544A23F0040313670E
:1048D0007B689B68002B15D0FEF710FC38610AE05E
:1048E000FEF70CFC02463B69D31A41F28832934230
:1048F00001D90323CBE0494B1B6F03F00203002BCC
:10490000EED014E0FEF7FAFB38610AE0FEF7F6FBA2
:1049100002463B69D31A41F28832934201D90323FC
:10492000B5E03E4B1B6F03F00203002BEED1FB7D85
:10493000012B05D1394B1B6C384A23F0805313648B
:104940007B689B69002B00F0A180344B9B6803F0CF
:104950000C03082B5CD07B689B69022B41D1314B47
:1049600000221A60FEF7CAFB386108E0FEF7C6FBBA
:1049700002463B69D31A022B01D9032387E0274B58
:104980001B6803F00073002BF0D17B68DA697B6849
:104990001B6A1A437B685B6A9B011A437B689B6AAC
:1049A0005B08013B1B041A437B68DB6A1B061B493F
:1049B00013434B601B4B01221A60FEF79FFB3861CB
:1049C00008E0FEF79BFB02463B69D31A022B01D994
:1049D00003235CE0114B1B6803F00073002BF0D045
:1049E00054E0104B00221A60FEF788FB386108E0A3
:1049F000FEF784FB02463B69D31A022B01D903233D
:104A000045E0064B1B6803F00073002BF0D13DE03E
:104A10007B689B69012B07D1012338E000380240F5
:104A200000700040600047421B4B5B68FB607B6886
:104A30009B69012B28D0FB6803F480027B68DB694B
:104A40009A4221D1FB6803F03F027B681B6A9A42BD
:104A50001AD1FA6847F6C07313407A68526A920115
:104A6000934211D1FB6803F440327B689B6A5B0878
:104A7000013B1B049A4207D1FB6803F070627B681C
:104A8000DB6A1B069A4201D0012300E0002318468E
:104A90001837BD4680BD00BF0038024080B584B0E5
:104AA00000AF786039607B68002B01D10123CCE036
:104AB000684B1B6803F007033A689A420CD9654BB0
:104AC0003A68D2B21A70634B1B6803F007033A6866
:104AD0009A4201D00123B8E07B681B6803F002030F
:104AE000002B20D07B681B6803F00403002B05D04B
:104AF000594B9B68584A43F4E05393607B681B68AA
:104B000003F00803002B05D0534B9B68524A43F433
:104B100060439360504B9B6823F0F0027B689B6876
:104B20004D4913438B607B681B6803F00103002B26
:104B300044D07B685B68012B07D1474B1B6803F4AB
:104B40000033002B19D101237FE07B685B68022BC7
:104B500003D07B685B68032B07D13F4B1B6803F0D6
:104B60000073002B09D101236FE03B4B1B6803F05E
:104B70000203002B01D1012367E0374B9B6823F030
:104B800003027B685B68344913438B60FEF7B6FA17
:104B9000F8600AE0FEF7B2FA0246FB68D31A41F267
:104BA0008832934201D903234FE02B4B9B6803F0DB
:104BB0000C027B685B689B009A42EBD1254B1B681B
:104BC00003F007033A689A420CD2224B3A68D2B2F9
:104BD0001A70204B1B6803F007033A689A4201D011
:104BE000012332E07B681B6803F00403002B08D02C
:104BF000194B9B6823F4E0527B68DB68164913432A
:104C00008B607B681B6803F00803002B09D0124BF4
:104C10009B6823F460427B681B69DB000E491343E9
:104C20008B6000F021F802460B4B9B681B0903F0D8
:104C30000F030A49CB5C22FA03F3094A1360094BBC
:104C40001B681846FEF716FA002318461037BD46B3
:104C500080BD00BF003C02400038024034C500085F
:104C600060000020640000202DE9B04F90B000AF3C
:104C700000237B630023FB6300233B630023BB63B0
:104C8000594B9B6803F00C03082B0DD0082B00F246
:104C9000A180002B02D0042B03D09BE0534BBB63BD
:104CA0009BE0534BBB6398E04F4B5B6803F03F03C3
:104CB0007B634D4B5B6803F48003002B28D04A4B89
:104CC0005B689B0900223B627A623B6AC3F308007F
:104CD0000021474B03FB01F2002300FB03F31344C5
:104CE000434AA0FB0212FA620A46BA62FA6A134405
:104CF000FB627B6B0022BB61FA61D7E90623D7E92F
:104D00000A01FBF7C1FF02460B461346FB6353E063
:104D1000354B5B689B0900223B617A613B69C3F3B9
:104D2000080A4FF0000B52465B464FF000004FF070
:104D30000001590141EAD261500102460B46B2EB33
:104D40000A0863EB0B094FF000024FF000034FEA33
:104D5000891343EA98634FEA8812B2EB080463EBC5
:104D600009054FF000024FF00003EB0043EA5473D3
:104D7000E20014461D4614EB0A033B6045EB0B03AF
:104D80007B604FF000024FF00003D7E90045294651
:104D90008B02214643EA915321468A021046194666
:104DA0007B6B0022BB60FA60D7E90223FBF76CFF44
:104DB00002460B461346FB630B4B5B681B0C03F070
:104DC000030301335B003B63FA6B3B6BB2FBF3F312
:104DD000BB6302E0054BBB6300BFBB6B18464037AB
:104DE000BD46BDE8B08F00BF003802400024F4008B
:104DF00040787D0180B400AF034B1B681846BD4668
:104E00005DF8047B704700BF6000002080B500AFF4
:104E1000FFF7F0FF0246054B9B689B0A03F0070370
:104E20000349CB5C22FA03F3184680BD00380240E8
:104E300044C5000880B500AFFFF7DCFF0246054B14
:104E40009B685B0B03F007030349CB5C22FA03F377
:104E5000184680BD0038024044C5000880B582B0C5
:104E600000AF78607B68002B01D101237BE07B6879
:104E70005B6A002B08D17B685B68B3F5827F09D041
:104E80007B680022DA6105E07B6800221A617B689A
:104E900000225A617B6800229A627B6893F8513045
:104EA000DBB2002B06D17B68002283F850207868A3
:104EB000FCF7CAFF7B68022283F851207B681B68DD
:104EC0001A687B681B6822F040021A607B685B6886
:104ED00003F482727B689B6803F404431A437B6883
:104EE000DB6803F400631A437B681B6903F0020369
:104EF0001A437B685B6903F001031A437B689B6973
:104F000003F400731A437B68DB6903F038031A4328
:104F10007B681B6A03F0800342EA03017B689B6A9B
:104F200003F400527B681B680A431A607B689B6924
:104F30001B0C03F004017B685B6A03F010027B68C2
:104F40001B680A435A607B681B68DA697B681B68C8
:104F500022F40062DA617B6800225A657B680122D4
:104F600083F85120002318460837BD4680BD80B520
:104F700082B000AF78607B68002B01D1012341E053
:104F80007B6893F83D30DBB2002B06D17B680022B2
:104F900083F83C207868FDF7F5FB7B68022283F8F4
:104FA0003D207B681A687B6804331946104600F080
:104FB000FBFF7B68012283F846207B68012283F88F
:104FC0003E207B68012283F83F207B68012283F822
:104FD00040207B68012283F841207B68012283F80E
:104FE00042207B68012283F843207B68012283F8FA
:104FF00044207B68012283F845207B68012283F8E6
:105000003D20002318460837BD4680BD80B485B0DA
:1050100000AF78607B6893F83D30DBB2012B01D0A4
:1050200001234EE07B68022283F83D207B681B68E9
:10503000DA687B681B6842F00102DA607B681B68F3
:10504000234A934222D07B681B68B3F1804F1DD066
:105050007B681B681F4A934218D07B681B681E4AF6
:10506000934213D07B681B681C4A93420ED07B6826
:105070001B681B4A934209D07B681B68194A9342FC
:1050800004D07B681B68184A934211D17B681B6867
:105090009B6803F00703FB60FB68062B10D07B685E
:1050A0001B681A687B681B6842F001021A6007E0FF
:1050B0007B681B681A687B681B6842F001021A60F3
:1050C000002318461437BD465DF8047B704700BFC7
:1050D000000001400004004000080040000C0040B7
:1050E00000040140004001400018004080B582B03B
:1050F00000AF78607B68002B01D1012341E07B6821
:1051000093F83D30DBB2002B06D17B68002283F898
:105110003C20786800F039F87B68022283F83D2053
:105120007B681A687B6804331946104600F03CFF20
:105130007B68012283F846207B68012283F83E20A9
:105140007B68012283F83F207B68012283F840209E
:105150007B68012283F841207B68012283F842208A
:105160007B68012283F843207B68012283F8442076
:105170007B68012283F845207B68012283F83D206B
:10518000002318460837BD4680BD80B483B000AF09
:10519000786000BF0C37BD465DF8047B70470000A7
:1051A00080B584B000AF786039603B68002B09D1CE
:1051B0007B6893F83E30DBB2012B14BF0123002340
:1051C000DBB222E03B68042B09D17B6893F83F30C7
:1051D000DBB2012B14BF01230023DBB215E03B68D7
:1051E000082B09D17B6893F84030DBB2012B14BF48
:1051F00001230023DBB208E07B6893F84130DBB287
:10520000012B14BF01230023DBB2002B01D00123AB
:105210007CE03B68002B04D17B68022283F83E20AF
:1052200013E03B68042B04D17B68022283F83F2003
:105230000BE03B68082B04D17B68022283F84020F6
:1052400003E07B68022283F841207B681B6801220F
:105250003968184601F0BCFA7B681B682D4A9342F6
:1052600004D07B681B682C4A934201D1012300E0E3
:105270000023002B07D07B681B685A6C7B681B6877
:1052800042F400425A647B681B68224A934222D04F
:105290007B681B68B3F1804F1DD07B681B681F4A79
:1052A000934218D07B681B681D4A934213D07B68D9
:1052B0001B681C4A93420ED07B681B68164A9342B7
:1052C00009D07B681B68184A934204D07B681B682E
:1052D000164A934211D17B681B689B6803F0070351
:1052E000FB60FB68062B10D07B681B681A687B6824
:1052F0001B6842F001021A6007E07B681B681A68AD
:105300007B681B6842F001021A60002318461037C0
:10531000BD4680BD00000140000401400004004083
:1053200000080040000C0040004001400018004010
:1053300080B582B000AF78607B68002B01D101237B
:1053400041E07B6893F83D30DBB2002B06D17B68EF
:10535000002283F83C207868FDF748FB7B68022236
:1053600083F83D207B681A687B6804331946104631
:1053700000F01AFE7B68012283F846207B68012238
:1053800083F83E207B68012283F83F207B6801225E
:1053900083F840207B68012283F841207B6801224A
:1053A00083F842207B68012283F843207B68012236
:1053B00083F844207B68012283F845207B68012222
:1053C00083F83D20002318460837BD4680BD000005
:1053D00080B584B000AF786039600023FB733B6810
:1053E000002B04D17B6893F83E30DBB213E03B68BE
:1053F000042B04D17B6893F83F30DBB20BE03B68B1
:10540000082B04D17B6893F84030DBB203E07B6863
:1054100093F84130DBB2BB733B68002B04D17B684F
:1054200093F84230DBB213E03B68042B04D17B6875
:1054300093F84330DBB20BE03B68082B04D17B6868
:1054400093F84430DBB203E07B6893F84530DBB27D
:105450007B73BB7B012B02D17B7B012B01D0012312
:10546000CCE03B68002B04D17B68022283F83E200D
:1054700013E03B68042B04D17B68022283F83F20B1
:105480000BE03B68082B04D17B68022283F84020A4
:1054900003E07B68022283F841203B68002B04D1A3
:1054A0007B68022283F8422013E03B68042B04D17E
:1054B0007B68022283F843200BE03B68082B04D171
:1054C0007B68022283F8442003E07B68022283F891
:1054D00045203B680C2B41D801A252F823F000BFB5
:1054E000155500085D5500085D5500085D5500081C
:1054F000275500085D5500085D5500085D550008FA
:10550000395500085D5500085D5500085D550008D7
:105510004B5500087B681B68DA687B681B6842F0A3
:105520000202DA601DE07B681B68DA687B681B6832
:1055300042F00402DA6014E07B681B68DA687B687A
:105540001B6842F00802DA600BE07B681B68DA68CF
:105550007B681B6842F01002DA6002E00123FB73F3
:1055600000BFFB7B002B48D17B681B680122396898
:10557000184601F02DF97B681B68224A934222D01D
:105580007B681B68B3F1804F1DD07B681B681E4A87
:10559000934218D07B681B681C4A934213D07B68E7
:1055A0001B681B4A93420ED07B681B68194A9342C2
:1055B00009D07B681B68184A934204D07B681B683B
:1055C000164A934211D17B681B689B6803F007035E
:1055D000BB60BB68062B10D07B681B681A687B68B1
:1055E0001B6842F001021A6007E07B681B681A68BA
:1055F0007B681B6842F001021A60FB7B184610377B
:10560000BD4680BD0000014000040040000800408D
:10561000000C004000040140004001400018004020
:1056200080B586B000AF786039607B68002B01D10F
:10563000012397E07B6893F83D30DBB2002B06D165
:105640007B68002283F83C207868FDF735F97B6899
:10565000022283F83D207B681B689B687A68126889
:1056600023F4804323F0070393607B681A687B6808
:1056700004331946104600F097FC7B681B689B6852
:105680007B617B681B689B693B617B681B681B6A4D
:10569000FB603B681B687A6913437B613B6923F4B9
:1056A000407323F003033B613B689A683B689B6946
:1056B0001B0213433A6913433B613B6923F4406384
:1056C00023F00C033B613B6923F4704323F0F003A8
:1056D0003B613B68DA683B68DB691B0213433A694C
:1056E00013433B613B681B691A013B681B6A1B0340
:1056F00013433A6913433B61FB6823F02203FB60C9
:10570000FB6823F08803FB603B685A683B685B6971
:105710001B011343FA681343FB607B681B687A69BB
:105720009A607B681B683A699A617B681B68FA68B3
:105730001A627B68012283F846207B68012283F885
:105740003E207B68012283F83F207B68012283F89A
:1057500042207B68012283F843207B68012283F882
:105760003D20002318461837BD4680BD80B584B063
:1057700000AF786039607B6893F83E30FB737B68DC
:1057800093F83F30BB737B6893F842307B737B6840
:1057900093F843303B733B68002B10D1FB7B012B0C
:1057A00002D17B7B012B01D0012369E07B680222BF
:1057B00083F83E207B68022283F8422031E03B6878
:1057C000042B10D1BB7B012B02D13B7B012B01D0E1
:1057D000012355E07B68022283F83F207B68022288
:1057E00083F843201DE0FB7B012B08D1BB7B012B01
:1057F00005D17B7B012B02D13B7B012B01D0012307
:105800003EE07B68022283F83E207B68022283F818
:105810003F207B68022283F842207B68022283F8C3
:1058200043203B68002B03D03B68042B08D00FE0DB
:105830007B681B6801220021184600F0C9FF16E0B2
:105840007B681B6801220421184600F0C1FF0EE0AE
:105850007B681B6801220021184600F0B9FF7B68B5
:105860001B6801220421184600F0B2FF00BF7B68CC
:105870001B681A687B681B6842F001021A600023EB
:1058800018461037BD4680BD80B582B000AF786045
:105890007B681B681B6903F00203022B22D17B6823
:1058A0001B68DB6803F00203022B1BD17B681B68BB
:1058B0006FF002021A617B6801221A777B681B680D
:1058C0009B6903F00303002B03D07868FCF7CEF844
:1058D00005E0786800F04AFB786800F051FB7B68CF
:1058E00000221A777B681B681B6903F00403042BF2
:1058F00022D17B681B68DB6803F00403042B1BD1F7
:105900007B681B686FF004021A617B6802221A77B9
:105910007B681B689B6903F44073002B03D0786895
:10592000FCF7A4F805E0786800F020FB786800F048
:1059300027FB7B6800221A777B681B681B6903F0D2
:105940000803082B22D17B681B68DB6803F008037F
:10595000082B1BD17B681B686FF008021A617B68FB
:1059600004221A777B681B68DB6903F00303002BB2
:1059700003D07868FCF77AF805E0786800F0F6FA6A
:10598000786800F0FDFA7B6800221A777B681B6854
:105990001B6903F01003102B22D17B681B68DB68A6
:1059A00003F01003102B1BD17B681B686FF01002F3
:1059B0001A617B6808221A777B681B68DB6903F42D
:1059C0004073002B03D07868FCF750F805E0786846
:1059D00000F0CCFA786800F0D3FA7B6800221A77DE
:1059E0007B681B681B6903F00103012B0ED17B68E8
:1059F0001B68DB6803F00103012B07D17B681B6880
:105A00006FF001021A617868FCF75CF87B681B682C
:105A10001B6903F08003802B0ED17B681B68DB6859
:105A200003F08003802B07D17B681B686FF0800236
:105A30001A61786800F0CAFF7B681B681B6903F075
:105A40004003402B0ED17B681B68DB6803F04003EA
:105A5000402B07D17B681B686FF040021A617868A1
:105A600000F098FA7B681B681B6903F02003202B69
:105A70000ED17B681B68DB6803F02003202B07D165
:105A80007B681B686FF020021A61786800F094FF51
:105A900000BF0837BD4680BD80B586B000AFF86056
:105AA000B9607A600023FB75FB6893F83C30012BEA
:105AB00001D1022388E0FB68012283F83C207B6847
:105AC000002B1BD1FB681868BB681968BB685A6853
:105AD000BB68DB6800F0B8FCFB681B689A69FB6870
